:020000040800F2
:100000001892012071030008FF4500081B3F0008FB
:10001000FD4500081B0A000885600008000000007C
:10002000000000000000000000000000AD02000819
:100030001D0A0008000000000903000853580008CA
:100040008B0300088B0300088B0300088B03000858
:100050008B0300088B0300088B0300088B03000848
:100060008B0300088B0300088B0300088B03000838
:100070008B0300088B0300088B0300088B03000828
:100080008B0300088B0300088B0300088B03000818
:100090008B0300088B0300088B0300088B03000808
:1000A0008B0300088B0300088B0300088B030008F8
:1000B0008B0300088B0300088B0300088B030008E8
:1000C0008B0300088B0300088B0300088B030008D8
:1000D0008B0300088B0300088B0300088B030008C8
:1000E0008B0300088B030008000000008B0300084E
:1000F0008B0300088B0300088B0300088B030008A8
:100100008B030008414800088B0300088B0300089C
:100110008B0300088B0300088B0300088B03000887
:100120008B0300088B0300088B0300088B03000877
:100130008B0300088B0300088B0300088B03000867
:1001400000000000000000000000000000000000AF
:100150008B0300088B0300088B0300088B03000847
:100160008B0300088B0300088B0300088B03000837
:100170008B0300088B0300088B0300088B03000827
:100180008B0300088B0300088B0300088B03000817
:100190008B0300088B0300088B0300088B03000807
:1001A0008B0300088B0300088B0300088B030008F7
:1001B0008B0300088B0300088B0300088B030008E7
:1001C0008B0300088B0300088B0300088B030008D7
:1001D0008B0300088B0300088B0300088B030008C7
:1001E0008B0300088B0300088B0300088B030008B7
:1001F0008B0300088B0300088B0300088B030008A7
:100200008B0300088B0300088B0300088B03000896
:100210008B0300088B0300088B0300088B03000886
:100220008B0300088B0300088B030008000000000C
:100230008B0300088B030008000000008B030008FC
:100240008B0300088B0300088B0300088B03000856
:100250008B0300088B0300088B0300088B03000846
:100260008B0300088B0300088B0300088B03000836
:100270008B0300088B0300088B03000800000000BC
:100280008B0300088B0300088B03000800000000AC
:10029000000000008B030008DFF80CD000F0BCFA6F
:1002A00000480047496A0008189201202D4B196840
:1002B0000868B0E8F04F80F30988BFF36F8F4FF004
:1002C000000080F3118870470000000008480068B3
:1002D000006880F308884FF0000080F3148862B64D
:1002E00061B6BFF34F8FBFF36F8F00DF00BF00BF5A
:1002F00008ED00E0DFF80C00016841F470010160D6
:10030000704700BF88ED00E0EFF30980BFF36F8F07
:10031000144B1A681EF0100F08BF20ED108A20E958
:10032000F04F106009B44FF0500072B680F311889E
:10033000BFF34F8FBFF36F8F62B607F089FE4FF0A8
:10034000000080F3118809BC19680868B0E8F04F14
:100350001EF0100F08BFB0EC108A80F30988BFF3BD
:100360006F8F704750000020EFF30580704700004A
:100370000648804706480047FEE7FEE7FEE7FEE73F
:10038000FEE7FEE7FEE7FEE7FEE7FEE77959000835
:10039000990200082DE9F05F0546002092469B4631
:1003A00088460646814640241BE02846414647468B
:1003B000224600F069F853465A46C01A914110D3BC
:1003C00011461846224600F050F82D1A67EB010836
:1003D0004F4622460120002100F047F817EB0009A4
:1003E0004E41201EA4F10104DFDC484631462A4676
:1003F0004346BDE8F09F40EA01039B0703D009E0B4
:1004000008C9121F08C0042AFAD203E011F8013B00
:1004100000F8013B521EF9D27047D2B201E000F859
:10042000012B491EFBD270470022F6E710B5134698
:100430000A4604461946FFF7F0FF204610BD30B5C6
:100440000B46014600202022012409E021FA02F592
:100450009D4205D303FA02F5491B04FA02F528442C
:10046000151EA2F10102F1DC30BD202A04DB203A86
:1004700000FA02F1002070479140C2F1200320FAF7
:1004800003F3194390407047202A04DB203A21FAF5
:1004900002F00021704721FA02F3D040C2F120029D
:1004A00091400843194670472DE9FE4F804681EA86
:1004B0000300C00F0C46009021F0004123F00045DE
:1004C000B8EB0200A94105D24046214690461C46A1
:1004D0000B46024623F00040104347D0270DC7F3D8
:1004E0000A00C3F30A510290401A019040286BDAC7
:1004F000C3F3130040F4801B0098924620B1002300
:10050000D2EB030A63EB0B0B01985946C0F1400292
:100510005046FFF7AAFF06460D4650465946019A37
:1005200000F08CF910EB08006141002487EA1152B9
:1005300084EAE7731A4340D0009A62B3019A012A11
:100540004FEA075215DC001B61EB02014FF000423D
:1005500002EA0752CDE90042001C41F58011324603
:100560002B4600F08CF903B0BDE8F08F40462146E1
:10057000F9E7001B61EB0201001C41F58013001834
:100580005B412018A2F5001747EB030140EAD57044
:10059000B6196D4111E06D084FEA360645EAC0759F
:1005A0004FEA0752001B61EB0201001C41F580116C
:1005B00049084FEA30000019514132462B4603B03A
:1005C000BDE8F04F00F04CB9009801224000002334
:1005D000D0EB020263EBE073009821464FEAE0742F
:1005E000B8EB000061EB0401E9E783F000435BE74F
:1005F00081F0004158E72DE9FE4F81EA030404F041
:10060000004421F0004100944FF0000B23F0004320
:1006100050EA01045ED052EA03045BD0C3F30A54EB
:10062000C1F30A552C44A4F2F3340194A0FB025404
:10063000C1F3130141F48011C3F3130343F4801396
:1006400001FB024400FB034E840A970A44EA8154EA
:1006500047EA8357A4FB076802958D0A05FB0785C7
:100660004FEA932C04FB0C542705029D4FEA0658D1
:1006700047EA1637B5EB08056EEB070C870E920EAE
:1006800047EA811742EA8312A7FB0201B6EB0B018E
:1006900064EB00042B0D43EA0C335E1844EB1C5052
:1006A000DA465146E7FB0201C5F313044FEA0B3368
:1006B00043EA14534FEA0432019C43EA0603A4F1CF
:1006C0000C040294009CCDE900B400F0D8F803B00B
:1006D000BDE8F08F00200146F9E72DE9F04D81EAF1
:1006E000030404F0004B21F0004514464FF0000ACB
:1006F00023F0004150EA050220D054EA01021DD047
:10070000C5F30A570246C5F31303C1F31300C1F33F
:100710000A5640F4801543F48013A7EB0608101B1B
:10072000D64608F2FD3873EB050002D308F1010844
:1007300001E092185B41B8F1000F03DA0020014696
:10074000BDE8F08D00204FF48011064684460EE08F
:10075000171B73EB050705D3121B63EB0503064359
:100760004CEA010C49084FEA300092185B4150EA0C
:100770000107EDD152EA030012D082EA040083EAB5
:100780000501084305D0101BAB4106D2012200230E
:1007900006E000224FF0004302E06FF00102531028
:1007A0001AEB06004CEB085110EB0A0041EB0B0171
:1007B000BDE8F04D00F054B8C1F30A52C1F3130183
:1007C00040F2FF3341F480119A4202DA00200146E0
:1007D000704740F233439A42A2F2334202DC524263
:1007E000FFF752BEFFF741BE30B5041E71F10004A1
:1007F00004DB4FF00044404264EB0101141E73F12E
:10080000000405DB1C464FF00043524263EB040337
:10081000994208BF904230BD064C074D06E0E068A3
:1008200040F0010394E8070098471034AC42F6D337
:10083000FFF736FD809D0008A09D0008202A06DBFA
:10084000CB17203A41FA02F043EAE07306E041FA9E
:1008500002F3D040C2F1200291400843194670478C
:1008600010B5141E73F1000408DA401C41F10001B8
:1008700092185B411A4301D120F0010010BD2DE90F
:10088000F04D92469B4611B1B1FA81F202E0B0FA06
:1008900080F220329046FFF7E8FD04460F4640EA1A
:1008A0000A0041EA0B0153465A46084313D0114649
:1008B00053EA010019D0C8F140025046FFF7E4FDA9
:1008C00005460E46504659464246FFF7CEFD0843C0
:1008D00005D0012004E020463946BDE8F08D002017
:1008E000054346EAE0762C4337430A986305E40A59
:1008F000A0EB08000022FD0A44EA47540A3002D562
:1009000000200146E9E7010510196941DDE90845C4
:1009100000196941BDE8F04DA2E7000010B54FF0A5
:10092000000408B1A41E06E004480A4402F0F8F9E5
:1009300008B16FF00304204610BD00004C010020F8
:100940000649C0EB401010B501EB800002F02AFB15
:10095000042801D0012010BD002010BD4C01002052
:1009600070B54FF0000508B1AD1E1CE000F020F896
:10097000012802D06FF0060515E00C4C204604F06B
:10098000F1FC204603F0FCFD6FF0030628B94FF49C
:100990008041204602F000F908B1354603E002210B
:1009A000204602F09FF8284670BD00004C01002050
:1009B00010B16FF0010070470120704738B5642511
:1009C0004FF00004002803FB05F001D0A41E06E050
:1009D0000090044802F024FD08B16FF003042046A3
:1009E00038BD00004C0100207047000038B5642578
:1009F0004FF00004002803FB05F001D0A41E06E020
:100A00000090044802F006FE08B16FF0030420468F
:100A100038BD00004C0100207047FEE77047F0B57C
:100A2000D1E90843CD690A68C2B10268254322F4BE
:100A3000F84213431D430560D1E90125D1E903368E
:100A40004C692A434568334389691A43EB0B2243B7
:100A5000DB030A431A4342600020F0BDD1E9012EB6
:100A6000D1E9036CD1E9057142EA0E0246EA0C06AF
:100A700032433A430A4301682A4322431A436FF33D
:100A80000E010A430260E7E7426943F6FE739A43A8
:100A900042EA410141610020704770B591E81C00B5
:100AA000C9686FF01F0506691A4305EB441444EA50
:100AB00041210A4306EA45431A430261002070BD02
:100AC0002DE9F04F8B8A6FF00F05264C4FF07F4BCE
:100AD000D1F80C9004EB03536FF0FF044FEA042AA3
:100AE0001AB386684FEA09321F4FA2F580521A43A3
:100AF0003E4032438260D1E900278E68521E05EBEA
:100B000007150F8A2A43C56804EB06240E7E0AEBFC
:100B1000074322431A430BEB06610A4305F0704377
:100B20001A43C2600020BDE8F08F91E804110F4E17
:100B3000521E0F8A05EB08152A4304EB0C2C06EB1A
:100B400009350E7E42EA0C022A4385680AEB074407
:100B500022431A430BEB06610A4305F070431A4324
:100B60008260DFE70000F0FFFF0F0FFF00F0FFFFE4
:100B70007CB506F08DFF2249012000234022CDE9FB
:100B8000000123481FA107F0F7FC224C02211C4A58
:100B90000023121D20602348CDE9001280221EA1EF
:100BA00007F0EAFC164A032160600023083221485E
:100BB000CDE9001280221CA107F0DEFC104A0421BE
:100BC000A06000230C322048CDE900124A021AA18D
:100BD00007F0D2FCE0601DA005F056FA5FF00005BA
:100BE0001EA054F8251005F04FFA6D1C092DF7DBF7
:100BF0001CA005F049FABDE87C4007F0C7B9000029
:100C0000140000206C65645F5461736B0000000089
:100C1000296A0008A40A002075736172745F546128
:100C2000736B0000F97A00086C63645F5461736B46
:100C300000000000F56900086465766963655F740B
:100C4000657374696E670000CD6900087468726529
:100C500061642073746174653A090000256C64094D
:100C6000000000000D0A000070B5044600F0C0F955
:100C70000546601C02D004480078044400F0B8F92E
:100C8000401BA042FAD370BD28000020F0B587B009
:100C900014216846FFF7C8FB3948016841F48051C8
:100CA0000160006800F48050059035480C30016800
:100CB00041F004010160016801F00401059101683F
:100CC00041F008010160016801F008010591016827
:100CD00041F010010160016801F010010591016807
:100CE00041F020010160016801F0200105910168D7
:100CF00041F040010160016801F040010591016887
:100D000041F080010160006802250026694600F07C
:100D10008000059003274FF63F000C2404948DE8D3
:100D2000E100184800F03AF88DE8F00016486946EE
:100D3000049400F033F848F2371004948DE8E10091
:100D40001248694600F02AF84FF6837004948DE843
:100D5000E1000F48694600F021F84CF2037004945A
:100D60008DE8E1000B48694600F018F80120049472
:100D70008DE8E1000848694600F010F807B0F0BDC2
:100D8000D444025800140258001C0258001802589B
:100D900000100258000C0258000802582DE9F84FC4
:100DA00003247D4D00234FF001094FF0B04B4FF06D
:100DB0000F0AE9E009FA03F73A4076D00E7906F017
:100DC0000306012E01D0022E18D1D0F808C04FEA38
:100DD000430ECE6804FA0EF82CEA080C06FA0EF65A
:100DE00046EA0C068660D0F804C00E792CEA070C9F
:100DF000C6F300169E4046EA0C0646600E79F6439E
:100E0000B6070BD0C6684FEA43088F6804FA08FC9F
:100E100026EA0C0607FA08F73743C7600E7906F092
:100E20000306022E12D1DE080F694FEA437C00EB65
:100E30008606B646366A4FEADC6C0AFA0CF807FA00
:100E40000CF726EA08063743CEF820700F790668BB
:100E50004FEA430807F0030704FA08FC07FA08F70B
:100E600026EA0C06374307604E6816F4403F1CD054
:100E70004A4E376847F00207376036689F0706F02A
:100E80000206009623F0030606F1B046B6463F0F71
:100E9000D6F80864DFF808810AFA07FC404526EA1C
:100EA0000C0603D14FF0000C41E06CE0DFF8F4C019
:100EB000604502D14FF0010C39E0DFF8ECC060452D
:100EC00002D14FF0020C32E0DFF8E0C0604502D101
:100ED0004FF0030C2BE0DFF8D8C0604502D14FF093
:100EE000040C24E0DFF8CCC0604502D14FF0050CC3
:100EF0001DE0DFF8C4C0604502D14FF0060C16E0DB
:100F0000DFF8B8C0604502D14FF0070C0FE0DFF802
:100F1000B0C0604502D14FF0080C08E0DFF8A4C073
:100F2000604502D14FF0090C01E04FF00A0C0CFAB9
:100F300007FC4CEA060CCEF808C44F68DBF80060EA
:100F4000FF0226EA020600D516435F46CBF8006092
:100F5000D1F804C0DBF804605FEA8C2C26EA0206B4
:100F600000D516437E606E684F6826EA0206BF030E
:100F700000D516436E602E684F6826EA0206FF030E
:100F800000D516432E605B1C0A6832FA03F67FF424
:100F900011AFBDE8F88F000080000058F4440258FB
:100FA000000002580004025800080258000C0258C1
:100FB000001002580014025800180258001C025871
:100FC0000020025800240258426921EA02030A4024
:100FD00043EA0241816170470AB1816170470904A7
:100FE000FBE7000001480068000C70470010005C3F
:100FF000014880687047000028000020024881688E
:10100000027811448160704728000020032010B549
:1010100000F086F801F0CEF90F4A10491468136801
:10102000C4F3032203F00F038A5CC95C02F01F02C1
:1010300001F01F01D0400A4A20FA01F1116009496C
:1010400008600F2000F010F808B1012010BD00F07A
:101050002BF8002010BD000018440258289D0008FD
:10106000380000203400002070B50D4D044628786B
:10107000A0B14FF47A71B1FBF0F00A490968B1FBF5
:10108000F0F002F0F5FD48B9102C07D200222146FD
:10109000501E00F025F800206C6070BD012070BD6E
:1010A0002800002034000020054808B5016841F000
:1010B00002010160006800F00200009008BD00001D
:1010C000F4440258002809DB410900F01F0289009E
:1010D000012001F1E0219040C1F8000170470000BB
:1010E0000E4BF0B41B680D46C3F30223C3F1070691
:1010F000042E00D90426191D072901D2002300E07F
:10110000DB1E012404FA06F19C40491E2940641E9E
:10111000994014402143F0BC04F0DABF0CED00E02C
:10112000064900F0070210B54FF6FF040868044BAB
:10113000204040EA02201843086010BD0CED00E09A
:101140000000FA05134970B50A68D243520705D565
:10115000096801F00701814213D118E00A6822F002
:10116000070202430A60FFF743FF0A4D4FF47A7605
:101170000446083D07E000BFFFF73AFF001BB042FE
:1011800001D9012070BD2868C0438004F4D4002038
:1011900070BD00000C48025810B501F0C5F80549B3
:1011A0000968054AC1F30211515C01F01F01C840F2
:1011B00010BD000020440258289D00084A4930B55F
:1011C000494C0B1D0A680C3409681D68246802F03C
:1011D000030305F00102C1F30511C4F3CC04002997
:1011E00014FB02F200EE102AF8EE400A76D0414AD3
:1011F0009FED3E1ADFED3E1AB7EE000A23B1012B38
:101200005AD0022B18D15CE0374C283C23689B064F
:1012100012D5394B246801EE901A1168C4F3C10449
:10122000F8EE612AE34001EE903AC1F30801F8EECE
:10123000611A81EEA22A07E002EE101A1168F8EE98
:10124000422A81EEA22A45E001EE901A1168F8EEDA
:10125000611A40EE811A71EE800A62EE200AC1F333
:10126000462101EE101AB8EE411A31EE001AC0EE16
:10127000811ABCEEE11A80ED001A1168C1F3064133
:1012800001EE101AB8EE411A31EE001AC0EE811AC2
:10129000BCEEE11A80ED011A1168C1F3066101EE9E
:1012A000101AB8EE411A31EE000A80EE801ABCEE38
:1012B000C10A80ED020A30BD01EE901ADFED0F2A5F
:1012C00003E001EE901ADFED0E2A1168F8EE611AC4
:1012D00082EEA12AC1F30801B6E7FFE70021016011
:1012E0004160816030BD0000284402580000003990
:1012F0000024744C304402580090D0030024744AF7
:1013000020BCBE4B494930B5484C0B1D0A6814340B
:1013100009681D68246802F00303C5F30012C1F3D5
:101320000531C4F3CC04002914FB02F200EE102AAC
:10133000F8EE400A75D03F4A9FED3D1AB7EE000A1D
:101340006BB1DFED3D1A012B01D0022B64D002EE10
:10135000101A1168F8EE422A81EEA22A21E0334CDD
:10136000283C23689B0612D5344B246801EE901A62
:101370001168C4F3C104F8EE612AE34001EE903A2B
:10138000C1F30801F8EE611A81EEA22A0BE001EE2A
:10139000901ADFED2B2A00BFF8EE611A116882EE79
:1013A000A12AC1F3080101EE901A1168F8EE611A42
:1013B00040EE811A71EE800A62EE200AC1F34621E6
:1013C00001EE101AB8EE411A31EE001AC0EE811A81
:1013D000BCEEE11A80ED001A1168C1F3064101EE7E
:1013E000101AB8EE411A31EE001AC0EE811ABCEEA6
:1013F000E11A80ED011A1168C1F3066101EE101ABD
:10140000B8EE411A31EE000A80EE801ABCEEC10A35
:1014100080ED020A30BD04E001EE901ADFED092AEA
:10142000BAE70021016041608160F3E72844025877
:1014300000000039384402580024744A0090D00358
:101440000024744C20BCBE4B494930B5484C0B1DA0
:101450000A681C3409681D68246802F00303C5F398
:101460000022C1F30551C4F3CC04002914FB02F29D
:1014700000EE102AF8EE400A75D03F4A9FED3D1A63
:10148000B7EE000A6BB1DFED3D1A012B01D0022B44
:1014900064D002EE101A1168F8EE422A81EEA22AF8
:1014A00021E0334C283C23689B0612D5344B24683A
:1014B00001EE901A1168C4F3C104F8EE612AE3400A
:1014C00001EE903AC1F30801F8EE611A81EEA22A0A
:1014D0000BE001EE901ADFED2B2A00BFF8EE611A47
:1014E000116882EEA12AC1F3080101EE901A116879
:1014F000F8EE611A40EE811A71EE800A62EE200A5F
:10150000C1F3462101EE101AB8EE411A31EE001A6D
:10151000C0EE811ABCEEE11A80ED001A1168C1F329
:10152000064101EE101AB8EE411A31EE001AC0EE73
:10153000811ABCEEE11A80ED011A1168C1F306614F
:1015400001EE101AB8EE411A31EE000A80EE801A50
:10155000BCEEC10A80ED020A30BD04E001EE901A33
:10156000DFED092ABAE70021016041608160F3E7FD
:101570002844025800000039404402580024744AAC
:101580000090D0030024744C20BCBE4B2DE9F04FDA
:10159000944A4FF48079DFF848824845924B89B0ED
:1015A000924EA8F1040592494FF080574FEA221459
:1015B0004FF0005C2ED1D8F8000000F0070005289D
:1015C00024D2DFE800F09BB58425AA0003A8FFF72A
:1015D000F5FD049809B0BDE8F08F6846FFF792FE6C
:1015E0000098F7E706A8FFF72FFF0698F2E70868CC
:1015F000C0F3C10022FA00F0ECE70A68D2057CD5FE
:10160000B8427AD12046E5E71846E3E70020E1E753
:101610003046DFE7B0F5007F1AD0DFF8D891B0F59B
:10162000806F26D0B0F5006F37D04FF4805A504508
:101630004FF4804B4FD1D8F8000000F4E040B0F5F3
:10164000005F44D03DDC002858D05045DED16FE02B
:10165000D8F8000000F4E070802838D004DC0028BE
:101660004CD04028D2D163E0C028D1D04845CDD15C
:1016700053E0D9F8000000F46000B0F5800F26D0E8
:1016800004DCD8B3B0F5001FC0D151E0B0F5C00FF5
:10169000BED0B0F5000FB9D13FE0D9F8000000F09E
:1016A000E060B0F1007F12D004DC38B3B0F1807F8D
:1016B000ACD13DE0B0F1407FAAD0B0F1806FA5D1B0
:1016C0002BE0B0F5405FA3D058459FD125E00868D6
:1016D00080009BD586E7B0F5002F4FF4803612D0FE
:1016E000B04237D1286810F4803075D0B0428DD127
:1016F000086800018AD5684601E025E06CE0FFF744
:1017000001FE029866E7D9F8000010F440300FD0CF
:10171000B04211D0B0F5003F98D128680D6800F0B4
:1017200040506D077FF569AF00287FF466AF5EE734
:1017300008680001CDD550E708688000C9D506A823
:10174000FFF782FE089845E709688903C1D560451F
:1017500088D159E758452BD1D9F8000000F0E04076
:10176000B0F1405F1CD00CDC90B1B8422CD0604589
:101770008AD108688000ACD506A8FFF765FE0798F7
:1017800028E7B0F1804F0FD0B0F1A04F90D11FE00B
:10179000FFF702FD1EE76846FFF7B4FD019819E761
:1017A0000868400795D522E70868C00591D529E764
:1017B000B0F5004F89D1D8F8000010F0405007D0A4
:1017C000B84209D0604592D108680001E3D41DE712
:1017D00008688003FBD517E708688001F7D5F5E6B0
:1017E000504402580090D00340787D010080BB0037
:1017F00000440258584402582DE9FC5F044650F852
:10180000241B002500902E460801FE4FDFF8F883C8
:101810001DD5606E50B1B0F5801F0CD0B0F5001F23
:101820000ED0B0F5401F1DD001250FE0386840F400
:101830000030386016E00221201D02F0E1FE03E0D6
:101840000098022102F06CFF05000BD02E46208884
:10185000C00523D5606D05281ED2DFE800F00C110D
:10186000161B1B00626ED8F8001021F440111143C2
:10187000C8F80010EBE7386840F40030386009E041
:101880000021201D02F0BCFE03E00098002102F0C0
:1018900047FF05466DB100E001252E4620888005F2
:1018A00028D5A06D80281ED00CDC90B140280ED128
:1018B00014E0626DD8F8001021F007011143C8F858
:1018C0000010EBE7C02813D0B0F5807F10D00125C1
:1018D0000FE0386840F40030386009E00021201D36
:1018E00002F08EFE03E00098002102F019FF054689
:1018F00095B12E462088DFF81093400509F10809BC
:101900002CD5D4F8A400B0F5800F20D00DDCA0B108
:10191000B0F5001F0FD115E0A26DD8F8001021F42A
:10192000E0711143C8F80010E4E7B0F5C00F13D020
:10193000B0F5000F10D001250FE0386840F40030FA
:10194000386009E00021201D02F05AFE03E00098F3
:10195000002102F0E5FE054675B12E4620880005FF
:101960002DD5D4F8A800B0F1007F21D00EDCA8B1AD
:10197000B0F1807F10D116E0D4F8A420D9F800107F
:1019800021F460011143C9F80010E7E7B0F1407F8E
:1019900013D0B0F1806F10D001250FE0386840F40B
:1019A0000030386009E00021201D02F029FE03E02C
:1019B0000098002102F0B4FE05466DB12E46206865
:1019C00080011FD5A06CD8B110280FD0202812D0CC
:1019D000302815D0012514E0D4F8A820D9F800103B
:1019E00021F0E0611143C9F80010E8E7386840F4DD
:1019F0000030386004E00221201D02F001FE05469F
:101A00006DB12E462088C0042BD5E06DB0F5005F87
:101A100020D00DDCA0B1B0F5805F0FD115E07A4881
:101A2000A26C001F016821F0300111430160E9E759
:101A3000B0F5405F13D0B0F5804F10D001250FE016
:101A4000386840F40030386009E00021201D02F0C1
:101A5000D7FD03E00098002102F062FE054685B143
:101A60002E462088800429D5206EB0F5403F23D033
:101A700010DC08B3B0F5803F14D0B0F5003F0FD1B3
:101A800015E0E26DD8F8001021F4E0411143C8F8E8
:101A90000010E6E7B0F5802F0ED0B0F5A02F0BD0E8
:101AA00001250AE00121201D02F0AAFD03E00098B3
:101AB000012102F035FE05468DB12E4620884004F6
:101AC0002AD5D4F8AC00B0F1405F23D010DC08B3C5
:101AD000B0F1805F14D0B0F1005F0FD115E0226E3D
:101AE000D8F8001021F4E0211143C8F80010E5E710
:101AF000B0F1804F0ED0B0F1A04F0BD001250AE01D
:101B00000121201D02F07CFD03E00098012102F07C
:101B100007FE05466DB12E46208800041FD5E06EF5
:101B2000D8B1B0F1805F0ED0B0F1005F10D00125C8
:101B300014E0D4F8AC20D9F8001021F0E0411143B2
:101B4000C9F80010E8E7386840F40030386004E075
:101B50000121201D02F054FD05466DB12E4620687E
:101B6000C0011ED5606CD0B101280ED0022811D062
:101B7000032814D0012513E0E26ED8F8001021F0FC
:101B800040511143C8F80010E9E7386840F40030CC
:101B9000386004E00221201D02F032FD054685B1C7
:101BA0002E462068DFF85CB04002ABF11C0B57D525
:101BB0001648016841F480710160FFF719FA824606
:101BC0000EE01148626C001F016821F0030111430F
:101BD0000160E6E7FFF70CFAA0EB0A0064283DD8A5
:101BE0000A480068C005F5D57DBBDFF81CA0B4F835
:101BF000B0200AF1200ADAF8001002F4407001F473
:101C0000407105E02C4402585044025800480258E4
:101C1000814211D0DAF80010DAF8002021F4407186
:101C200042F48032CAF80020DAF8002022F4803230
:101C3000CAF80020CAF80010D4F8B000B0F5807FD0
:101C400021D1FFF7D5F9019019E008E0FFF7D0F9AD
:101C50000199411A41F28830814210D903252E465C
:101C60002078DFF844A4C0073DD0A06F182838D0F2
:101C700026DC80B3082829D0102825D12CE0DAF8FA
:101C800000008007E2D5D4F8B010C1F3012003288A
:101C900058460DD0016821F47C510160B4F8B020A1
:101CA000DAF80010C2F30B021143CAF80010D7E7AC
:101CB000FE4A036802EA111223F47C511143ECE757
:101CC00020280ED028280CD001250BE00121201D52
:101CD00002F096FC04E004E00098012102F020FDEF
:101CE00005465DB12E46207880071ED5606F062818
:101CF00019D2DFE800F0160C11161616A26FDAF8EA
:101D0000001021F038011143CAF80010EBE701215F
:101D1000201D02F075FC03E00098012102F000FD97
:101D2000054675B100E001252E46207840071FD5F5
:101D3000D4F89000062819D2DFE800F0160C11162E
:101D40001616626FDAF8001021F007011143CAF885
:101D50000010EAE70121201D02F052FC03E0009888
:101D6000012102F0DDFC05469DB100E001252E4673
:101D7000207880062BD5D4F88C00B0F1405F24D0B9
:101D800011DC10B3B0F1805F15D0B0F1005F10D15D
:101D900016E0D4F89020D9F8001021F00701114383
:101DA000C9F80010E4E7B0F1804F0ED0B0F1A04FB9
:101DB0000BD001250AE00021201D02F021FC03E0E8
:101DC0000098022102F0ACFC05468DB12E46207829
:101DD00040062BD5D4F89800B0F5406F24D011DC24
:101DE00010B3B0F5806F15D0B0F5006F10D116E0CC
:101DF000D4F88C20DAF8001021F0E0411143CAF841
:101E00000010E4E7B0F5805F0ED0B0F5A05F0BD016
:101E100001250AE00021201D02F0F2FB03E00098FA
:101E2000022102F07DFC05468DB12E462078000689
:101E30002BD5D4F89C00B0F5C04F24D011DC10B3E2
:101E4000B0F5005F15D0B0F5804F10D116E0D4F892
:101E50009820D9F8001021F4E0511143C9F800107E
:101E6000E4E7B0F5004F0ED0B0F5204F0BD00125C0
:101E70000AE00021201D02F0C3FB03E000980221CC
:101E800002F04EFC05464DB12E46207800071ED5C7
:101E9000D4F88000B0F5805F0AD00FE0D4F89C2021
:101EA000D9F8001021F460411143C9F80010ECE7A3
:101EB0000098022102F034FC00B10126D4F8802001
:101EC000DAF8001021F440511143CAF800102078CC
:101ED000C00613D5D4F89400B0F5807F05D10098E2
:101EE000022102F01DFC00B10126D4F89420D9F89B
:101EF000001021F440711143C9F80010206800035C
:101F000016D5D4F8A00038B1B0F5803F09D0B0F5AF
:101F1000003F0BD001250AE00021201D02F070FBDC
:101F200003E00098022102F0FBFB054685B12E4636
:101F30002068400322D5D4F88400B0F5801F11D06A
:101F4000B0F5001F13D0B0F5401F15D0012514E0E7
:101F5000D4F8A020D9F8001021F440311143C9F879
:101F60000010E5E7386840F40030386004E000987D
:101F7000012102F0D5FB054655B12E462068C0036D
:101F80001CD5E06C70B1B0F5803F10D0012514E095
:101F9000D4F88420DAF8001021F440111143CAF873
:101FA0000010EBE7386840F40030386004E00221AC
:101FB000201D02F025FB0546CDB12E46206880008D
:101FC00005D50098022102F0ABFB00B10126206884
:101FD00080031BD5E06FB8B1B0F5807F10D0B0F5AD
:101FE000007F11D0B0F5407F0ED001250DE02E48C6
:101FF000E26C0838016821F4803111430160DDE7AB
:10200000386840F400303860F5B32E462068C002CE
:1020100007D5226FD8F8001021F000411143C8F80D
:1020200000102068C00008D5D4F8B420DBF80010F8
:1020300021F480411143CBF800102068800207D5BD
:10204000A26ED8F8001021F080711143C8F800107A
:10205000206840000CD5DBF8001021F40041CBF8DB
:102060000010DBF80010D4F8B8201143CBF80010B2
:102070002068002807DA0C48226D0838016821F032
:1020800040511143016000E014E02068000208D5CF
:10209000D4F88820DAF8001021F440011143CAF87E
:1020A000001086B1012003E054440258CFFFFF0026
:1020B000BDE8FC9FE26FDAF8001021F44071114393
:1020C000CAF80010A2E70020EDE700002DE9F05F5C
:1020D00004000F467ED0DFF83882D8F8000000F008
:1020E0000F00B8420CD2D8F8001021F00F0139438C
:1020F000C8F80010D8F8000000F00F00B84269D10D
:102100002078844D40070AD52069296801F07001C4
:10211000884204D9296821F07001014329602078A0
:102120007C4E361D00070AD56069316801F07001E8
:10213000884204D9316821F0700101433160207870
:10214000C0060AD5A069316801F4E061884204D96B
:10215000316821F4E061014331602078DFF8B4B1E7
:1021600080060BF1080B0CD5E1695846DBF800201E
:1021700002F07002914204D9026822F070020A4310
:102180000260207880070AD5E068296801F00F0115
:10219000884204D9296821F00F0101432960207881
:1021A000C0073ED05B49A2682868183920F47060E7
:1021B000104328606068022818D0032819D00968E5
:1021C000012819D0490700294ADADFF848A1AAF105
:1021D000080A00E044E0DAF8002022F00702024397
:1021E000CAF80020FEF704FF814612E0096889035F
:1021F000E9E709688901E6E7C905E4E7FEF7F8FEC3
:10220000A0EB090141F28830814202D90320BDE8E8
:10221000F09F6168DAF8000000F03800B0EBC10F01
:10222000ECD1207880070AD5E068296801F00F0119
:10223000884204D2296821F00F0101432960D8F8AF
:102240000010404601F00F01B9420BD9016821F09E
:102250000F0139430160006800F00F00B84201D05F
:102260000120D4E7207840070AD52069296801F0C9
:102270007001884204D2296821F07001014329606D
:10228000207800070AD56069316801F07001884242
:1022900004D2316821F07001014331602078C0061A
:1022A0000AD5A069316801F4E061884204D231683E
:1022B00021F4E06101433160207880060CD5E169AA
:1022C0005846DBF8002002F07002914204D2026806
:1022D00022F070020A43026000F06CF80E492A688E
:1022E0002B68C2F3032203F00F038A5CC95C02F07F
:1022F0001F0201F01F01D040084A20FA01F11160CD
:102300000749086007480068BDE8F05FFEF7ACBE0B
:102310000020005218440258289D00083800002070
:10232000340000202C00002030B500F043F80B4AA8
:102330000B490C4B15681468C5F3032204F00F0415
:102340008A5C095D02F01F0201F01F01D040064ABD
:1023500020FA01F119601060084630BD1844025897
:10236000289D0008380000203400002000B5FFF749
:10237000DBFF05490968054AC1F30211515C01F010
:102380001F01C84000BD00001C440258289D0008E1
:1023900000B5FFF7C9FF05490968054AC1F30221E5
:1023A000515C01F01F01C84000BD00001C440258F0
:1023B000289D0008454970B545480968434B103BC6
:1023C00011F0380208D00111082A03D0102A0BD0CE
:1023D000182A0BD0084670BD19688906FBD5196804
:1023E000C1F3C101C84070BD3A4870BD3749374D8F
:1023F00018310C1D24350A68096826682D6802F01A
:10240000030406F00102C1F30511C5F3CC0515FB69
:1024100002F200EE102AB8EE400AE9B32F4ADFEDCF
:102420002E0AB7EE001A6CB1DFED2D1A012C01D087
:10243000022C43D002EE101A1068F8EE422A81EE08
:10244000A22A1EE01C68A40611D51B6801EE901A92
:102450001168C3F3C103F8EE612AD84001EE900A77
:10246000C1F30800F8EE611A81EEA22A0BE001EE3A
:10247000901ADFED1C2A00BFF8EE611A106882EE98
:10248000A12AC0F3080001EE900AF8EE611A40EEAE
:10249000201A31EE810A00E015E022EE000A1068F1
:1024A000C0F34620401C00EE900AF8EE600A80EE71
:1024B000201ABCEEC10A10EE100A70BD01EE901A8F
:1024C000DFED092AD8E7002070BD00001044025853
:1024D0000090D00340787D0100000039304402585C
:1024E0000024744A0024744C20BCBE4B2DE9F05FDC
:1024F00004007DD0FF4F2078FE4D1837DFF8F493AD
:10250000103DC00748D0D9F80000396800F0380005
:10251000102815D0182803D101F0030002280FD08D
:102520006068B0F5803F12D010B1B0F5A02F18D080
:10253000286820F480302860286820F4802009E092
:102540002868800328D560680028D2D024E0286855
:1025500040F480302860606888B1FEF749FD064687
:1025600009E0286840F480202860F0E7FEF740FD8D
:10257000801B64286FD828688003F7D50CE0FEF72D
:1025800037FD064605E000BFFEF732FD801B6428DC
:10259000F0D828688003F7D4207841F20308D54E9C
:1025A0000C3E800769D5D9F80000396810F0380072
:1025B0000ED0182801D188070AD0E06890B32968A6
:1025C00021F0190101432960FEF712FD824631E036
:1025D0002868400702D5E06800288AD0E1682868AA
:1025E00020F0190008432860FEF702FD824607E04C
:1025F000DFE000BFFEF7FCFCA0EB0A000228B9D820
:1026000028684007F6D500BFFEF7ECFC40451BD814
:102610002069402812D0316821F47C3141EA003031
:1026200030602AE018E000BFFEF7E2FCA0EB0A00F1
:1026300002289FD828684007F6D5E5E7306820F4DF
:102640007C3040F40030EBE7207C316821F0FE4123
:1026500041EA0060E4E70DE1286820F0010028600D
:10266000FEF7C6FC824605E0FEF7C2FCA0EB0A00BE
:1026700002288DD828684007F6D42078C0065DD59A
:10268000D9F80000DFF86CB2396800F03800ABF11F
:10269000040B082810D0182803D101F003000128EA
:1026A0000AD0E0690028286838D040F0800028600F
:1026B000FEF79EFC824623E02868C00523D5E0692A
:1026C000802876D11FE0206A202821D0316821F0AF
:1026D000F84141EA8060306030E000BF94F820109B
:1026E000DBF8002022F07C5242EA0161CBF80010B6
:1026F00024E000BFFEF77CFCA0EB0A00022898D87B
:102700002868C005F6D5FEF76DFC4045E6D8DAE747
:10271000306820F0F84040F08040DCE720F0800096
:102720002860FEF765FC064605E000BFFEF760FC8A
:10273000801B02289DD82868C005F7D420780007A0
:1027400029D56C486169643000298046016811D040
:1027500041F001010160FEF74BFC064605E000BFB9
:10276000FEF746FC801B0228C9D8D8F80000800775
:10277000F6D510E021F001010160FEF739FC0646B4
:1027800005E000BFFEF734FC801B022872D8D8F8A1
:1027900000008007F6D42078800623D5A0690028A1
:1027A000286810D040F480502860FEF721FC0646CF
:1027B00005E02CE1FEF71CFC801B02285AD8286893
:1027C0008004F7D50EE020F480502860FEF710FC5E
:1027D000064604E0FEF70CFC801B02284AD8286855
:1027E0008004F7D4207840074FD5DFF80C81D8F863
:1027F000001041F48071C8F80010FEF7F9FB06469E
:1028000005E000BFFEF7F4FB801B642832D8D8F83F
:102810000000C005F6D5374EA068603601280AD002
:1028200008B1052813D0306820F00100306030680E
:1028300020F0040002E0306840F001003060A06841
:1028400041F2883A90B1FEF7D3FB80460AE0306847
:1028500040F004003060EEE7FEF7CAFBA0EB080191
:10286000514507D830688007F6D50EE0FEF7C0FB6B
:10287000804607E084E000BFFEF7BAFBA0EB08014A
:1028800051457DD830688007F6D4606AB0B3DFF870
:102890006480D9F8001008F12008C1F3C2010329AF
:1028A0006FD00228286820F08070286003D0FEF7DF
:1028B0009FFB044680E0FEF79BFB064605E000BF59
:1028C000FEF796FB801B022873D828688001F7D496
:1028D000E26A40F2F331386854F8283F884340EA0E
:1028E000021018433860217B4FF4FE0C22894FF010
:1028F000FE4704E0104402580048025889E0208A4C
:102900004902521E267DA1F5007189B2401EC2F314
:1029100008021143761E0CEA004001433E4807EAD4
:10292000066211433C4AC8F800100832016821F0E1
:102930000101016011684FF6F876236AB14341EA5C
:10294000C30111600168A26921F00C01114301600B
:102950000168E26921F0020111430160016841F45C
:1029600080310160016841F400310160016841F487
:1029700080210160016841F001010160286801E0E7
:1029800017E01DE040F080702860FEF731FB044640
:1029900005E000BFFEF72CFB001B022809D82868C1
:1029A0008001F7D535E000BFFEF722FB001B0228AF
:1029B00002D90320BDE8F09F28688001F4D428E004
:1029C00039680128D8F8000021D0A26A01F0030379
:1029D00093421CD1E26AC1F305118A4217D1216BDF
:1029E000C0F30802491E8A4211D1616BC0F346222E
:1029F000491E91420BD1A16BC0F30642491E914280
:102A000005D1E16BC0F30660491E814201D001206F
:102A1000D0E70020CEE700002C44025870477047F2
:102A20007047704770B504000D4603D094F82C0031
:102A300010B107E0012070BD002084F82D00204671
:102A400000F018F8022084F82C002068211DFDF702
:102A5000E6FFD4E900022946FEF732F804480121D6
:102A6000026842F00042026084F82C10002070BD21
:102A700000400052FEF70AB910B5044690F82C0049
:102A8000022804D094F82C00012801D0012010BDA8
:102A9000022084F82C002068FDF7F6FF012084F85E
:102AA0002C00002010BD000070B5044690F82C00EA
:102AB0000D46022804D0012803D0052801D00120AA
:102AC00070BD022084F82C002068FDF7E6FF28681E
:102AD000022805D05FF0010084F82C00002070BDB2
:102AE0000520F9E72DE9F0410446032084F8300081
:102AF0004FF480724FF400784FF0000541B1012986
:102B000020D002290DD0606B012540F0006018E054
:102B1000A06D40450DD090420BD0A06B012808D08D
:102B200010E0A06D404504D0904202D0A06B012877
:102B300003D1204602F020FB20B1606B012540F05C
:102B400080506063FEF754FA0126074605E000BF97
:102B5000FEF74EFAC01B401C15D0204600F022FAAA
:102B60000428F5D12068414601F09EFE30B122686C
:102B7000012508499163616B0143616384F830600A
:102B80002846BDE8F0814FF00040606384F8306073
:102B90000320F6E7FF0FE01F2DE9FC5F0446806B82
:102BA0000E46032184F83010002703285CD0B6F5C8
:102BB000004F59D0B6F5804F4FF000054FF4006834
:102BC0004FF0806904D006B3606B40F000603FE0D6
:102BD000009500210195206802F0E8F980011CD4DD
:102BE0006946204602F056FA70BB019840032DD585
:102BF000B4F844102068090401F025FE20BB2068C9
:102C000002211DE0606B284322E000950021019520
:102C1000206802F0CBF9800101D54546F2E769460C
:102C2000204602F037FA78B90198C0030ED5B4F8FF
:102C300044102068090401F006FE28B9206800212C
:102C400001F04BFE0028DDD00546DBE74D46D9E715
:102C50006063606B4FF4007BDFF8B8A040B121687F
:102C60000127C1F838A042E0606B40F08050EFE7E8
:102C70004FF48030FEF78AFC010033D0264D3346F6
:102C8000D4E904C0B1FBF5F8D4E90192804511D92B
:102C9000A66D5E450ED0B6F5807F12D04FEA650670
:102CA000E8B14FEA4008B1FBF8F8B04502D900BFDF
:102CB000B1FBF5F04946CDE900C0206802F07AF991
:102CC00015E0164E30B14FEA4008B1FBF8F8A845C0
:102CD00002D8EFE7A942EDD9B1FBF6F0EAE7B1423D
:102CE000E6D8E7E7606B012740F00060606320688A
:102CF000594601F0D9FD30B122680127C2F838A049
:102D0000616B01436163012084F830003846BDE8FF
:102D1000FC9F0000FF0FE01F80F0FA0200E1F505C4
:102D20002DE9F041044690F830000E461546012882
:102D300002D00220BDE8F08100206063B54203D2DA
:102D4000606B40F0006005E0206DA84204D2606B2B
:102D500040F0007060633CE094F8401003200127CD
:102D600084F83000DFF87880880606D42168C1F83E
:102D70003880606B40F080600BE02068002102F03A
:102D800015F9800107D52168C1F83880606B40F4DF
:102D9000006060631BE0A06B012803D076026D0227
:102DA000032809D02068314601F058FE48B9206850
:102DB000294601F039FE20B92068002101F0A7FD65
:102DC00048B12268C2F83880616B0143616384F8BE
:102DD00030700120AEE784F830700020AAE70000D0
:102DE000FF0FE01F70470000F0B5C26D920F0A7030
:102DF000C26DC2F383624A70C26DC2F301628A700F
:102E0000C26D120CCA70B0F85C20120A0A7190F8F8
:102E10005C204A71026E120DCA80026EC2F3034238
:102E20000A72B0F86020C2F3C0324A72B0F8602073
:102E3000C2F380328A72B0F86020C2F34032CA72A4
:102E4000B0F860200026C2F300320A734E730122EC
:102E5000836B4FF4007463B1012B3AD0036850497F
:102E60009963416B41F08051416380F8302001202B
:102E7000F0BDB0F86030456E9B051B0D43EA9573BD
:102E80000B61436EC3F3C2630B75436EC3F30263FE
:102E90004B75436EC3F342538B75436EC3F382434A
:102EA000CB75436EC3F3C2330B760D696D1C85641D
:102EB0000B7E03F007039B1C9D4085640B7A4465E1
:102EC00003F00F0302FA03F35F0A7D43C0E91335F1
:102ED0000EE090F86050436EAD06AD0A45EA13432C
:102EE0000B610B695B1C9B028364C0E9134344655F
:102EF000B0F86430C3F380334B76B0F86430C3F37A
:102F0000C6138B7690F8643003F07F03CB76836E24
:102F1000DB0F0B77836EC3F341734B77836EC3F381
:102F200082638B77836EC3F38353CB77836EC3F354
:102F3000405381F8203081F82160836EC3F3004351
:102F400081F82230B0F86830C3F3C03381F8233001
:102F5000B0F86830C3F3803381F82430B0F86830BB
:102F6000C3F3403381F82530B0F86830C3F3003341
:102F700081F82630B0F86830C3F3812381F8273018
:102F8000B0F86830C3F3012381F8283090F8680066
:102F9000C0F3460081F8290081F82A200020F0BD06
:102FA000FF0FE01F70B5B0F844100025044600681C
:102FB000090401F0CDFD18B1616B0143616304E0C8
:102FC0002068002101F0F2FF0546C5F3432070BDE3
:102FD0002DE9F041054690F8300090B00C460026EF
:102FE000032810D06946284602F064FA2A4F4FF0B1
:102FF000010860B12A68012697636A6B02436A631D
:1030000085F830803AE0012010B0BDE8F0810099E9
:103010004FF47F40C1F3811121700099C1F3401139
:10302000617000990A4600EA112141EA126161804B
:10303000019909BA6160029921720299090A6172C3
:103040000299C1F30351A172DDE9022100EA1240A5
:10305000C9B20843A0810398C0F38520A0730398E8
:10306000C0F30120E0730398C0F3031020740398A9
:1030700000F00F0060740498000EA07428684FF4EC
:10308000007101F011FC28B12A680126976368637A
:1030900085F830803046B7E7FF0FE01F2DE9F84391
:1030A00004460068E56A416B09041BD5290719D558
:1030B000D4E90950202813D30026206801F090FF9E
:1030C000020A2870010C6A70030EA970761CEB705E
:1030D000082E05F10405F0D3A06A2038C4E9095090
:1030E000BDE8F883416B0127DFF8EC810026C905B4
:1030F00051D539024CF23A12816329072068C16B1D
:1031000021EA0201C1632068C16B21F08051C163D3
:103110002068C16821F04001C16018D515F0220F68
:1031200009D0206801F060FD28B1616B0143616343
:103130002046FFF757FE2168AA07C1F8388084F8B7
:103140003070E66223D1204600F058FAC8E728061E
:10315000C6D5206815F0220F86622068C6622068F6
:10316000066509D0206801F03FFD28B1616B01437D
:1031700061632046FFF736FE15F0300F84F830709B
:10318000E66202D0204600F039FAA807A8D020460F
:1031900000F028FAA4E7416B490421D529071FD57F
:1031A000D4E9075020289BD300262878009069781E
:1031B00040EA01200090A97840EA01400090E978B7
:1031C0002D1D40EA016000902068694601F020FF53
:1031D000761C082EE9D3206A2038C4E907507FE71F
:1031E000416B11F03A0F416B58D0890703D5616BE1
:1031F00041F002016163416B090703D5616B41F046
:1032000008016163416B890603D5616B41F02001C0
:103210006163416BC90603D5616B41F010016163C5
:10322000C0F838802068C16B21F49D71C1632068AB
:10323000C16821F04001C1602068C16A41F40051B9
:10324000C1622068C16841F08001C160206801F05E
:10325000CBFC626B2B074FF4006140EA0200606315
:103260002068C26822F08002C2602068816303D5B2
:1032700084F83070E6620DE028068BD5606B00287C
:1032800088D02068C16B21F08051C1632068066539
:1032900084F830702046FFF7A5FD21E7C9009ED5D0
:1032A0004FF0805181632068006D40074FEA8560D0
:1032B00008D40028204602DAFFF7B3FB10E7FFF737
:1032C000AEFB0DE70028204602DAFFF7A9FB07E76F
:1032D000FFF7A4FB04E700003A0F0018F0B5040064
:1032E00085B020D094F83000002518B92046257606
:1032F00000F094F8042084F83000204600F03CF8F8
:1033000088B969462046FFF763FE60B99DF8101042
:10331000A26B9DF81100012A08D0A5652046E1683E
:10332000FFF73AFC58B1012005B0F0BD014302D0CF
:103330004FF4007001E04FF48070A065EEE7FDF7F8
:1033400057FE0127064604E0FDF752FE801B401C95
:103350000AD02046FFF726FE0428F5D16563E56212
:1033600084F830700020DFE74FF00040606384F89D
:1033700030700320D8E700002DE9FC4104464FF0EF
:1033800000084FF48030FEF701F905004FF0010608
:1033900020D01F48434642464146B5FBF0F7CDE9F1
:1033A0000087206801F006FE206801F013FE780017
:1033B0001849B5FBF0F0B1FBF0F0401CFDF754FCF0
:1033C000204602F01DF858B184F83060616B01436B
:1033D000616319E04FF0006084F83060606313E0CF
:1033E000204601F043FF0028EED120684FF4007121
:1033F00001F05AFA002808D0226807499163616BEE
:103400000143616384F830600120BDE8FC81000065
:1034100000350C0010210100FF0FE01F7047000075
:103420002DE9F04F87B0994617460D460446FDF743
:10343000DFFD06903DB194F83000012807D0606BA5
:1034400040F000500DE0606B40F0006009E0226D3C
:10345000002007EB09016063914204D9606B40F0E2
:1034600000706063A8E0032184F830102168C8620E
:10347000A16B012900D07F024FF0020ACDE903A021
:1034800090264FF0FF324FEA492305908DE84C001B
:1034900080462068694601F01FFC2068B9F1010FE1
:1034A0004FF00106C16841F04001C16006D9C4F87F
:1034B0002CA03946206801F083FA04E0E662394620
:1034C000206801F097FADFF814A150B12368C3F81F
:1034D00038A0616B0143616384F83060C4F82C80CC
:1034E0006AE0DDF804B01FE0406B000414D5BBF1C6
:1034F000200F11D30027206801F072FD020A287006
:10350000010C6A70030EA9707F1CEB70082F05F187
:103510000405F0D3ABF1200BFDF76AFD0699411AC3
:103520001098814221D200B32068416B11F4957F3D
:10353000DAD0C16821F04001C1602068416BC90543
:1035400022D5B9F1010F1FD9A16B03291CD001F0BD
:103550004BFBC8B12368C3F838A0626B02436263B7
:1035600084F83060C4F82C8026E02268C2F838A0C5
:10357000606B40F00040606384F83060C4F82C80D9
:10358000032007B0BDE8F08F2068416B090706D51E
:10359000C0F838A0616B404641F0080108E0416B7B
:1035A00089070BD5C0F838A0616B404641F0020195
:1035B000616384F83060E0620120E2E7416B8906D4
:1035C00006D5C0F838A0616B404641F02001EFE716
:1035D0000349816384F830600020D2E7FF0FE01FC9
:1035E0003A0F0018044910B5884201D0012000E0CC
:1035F0000020FDF7F9F910BD4C010020044910B579
:10360000884201D0012000E00020FDF705FA10BD3E
:103610004C0100202DE9F04F89B09A4616460D4620
:103620000446FDF7E5FC06903DB194F83000012812
:1036300007D0606B40F000500DE0606B40F0006020
:1036400009E0226D002006EB0A016063914204D973
:10365000606B40F000706063B2E0032184F83010CA
:103660002168C862A16B012900D076024FF0FF31BA
:103670004FEA4A22059090230490CDE90230CDE92B
:10368000001280462068694601F026FB2068C16868
:10369000BAF1010F41F04002C26006D92020E06279
:1036A0002068314601F0E4FA05E01020E06220686D
:1036B000314601F0F7FADFF830B106004FF00109AA
:1036C0000AD02368C3F838B0606B3043606384F875
:1036D0003090C4F82C8073E00198089027E0406B8C
:1036E00040041CD50898202819D300272878079073
:1036F000697840EA01200790A97840EA01400790E4
:10370000E9782D1D40EA01600790206807A901F0C3
:103710007FFC7F1C082FE9D3089820380890FDF71C
:1037200067FC0699411A1298814221D200B32068A1
:10373000416B11F48D7FD2D0C16821F04001C1608E
:103740002068416BC90521D5BAF1010F1ED9A16BC3
:1037500003291BD001F048FAC0B12568C5F838B07C
:10376000616B0143616384F83090C4F82C8027E0DA
:103770002368C3F838B0626B3243626384F83090D8
:10378000C4F82C80032009B0BDE8F08F2068416B9D
:10379000090707D54946C0F838B0626B404642F089
:1037A000080209E0416B89070CD54946C0F838B0DA
:1037B000626B404642F00202626384F83010E062BD
:1037C0000120E0E7416BC90607D54946C0F838B08B
:1037D000626B404642F01002EEE7044A826384F8CE
:1037E00030900020CFE70000FF0FE01F3A0F0018D5
:1037F0002DE9F047040029D0504A4FF00009206815
:103800004F4B504D9042C4F8289006D0984204D0B7
:10381000A84202D0E1680F2918D8E1684FF0010AE8
:10382000E76B0831C9080AEB57167143904205D07F
:10383000984203D0A84201D0082907D8904203D06B
:10384000984201D0A84204D1102902D90120BDE834
:10385000F08794F8810020B9204684F8809000F029
:1038600073F8022084F881002068016821F00101CA
:1038700001602168A0698A68B0F1806F02F4F810D5
:1038800010D16268B2F5800F01D01AB10AE0A26BC4
:1038900022B107E0A26BB2F1805F03D10A6842F463
:1038A00080520A60A66AE169E26B25683143E368E9
:1038B000024311431943A960D4E90D02D4E905710B
:1038C000636A25691843D4F820C00A432668104368
:1038D0002843A56D3843D4E90182D4E9123140EA86
:1038E0000C0040EA08000843104318432843F060E6
:1038F000606868B92068816821F4C05141F40061B2
:1039000081602068816821F4C06141F48061816038
:103910002068016D21F0010101656068400206D553
:103920002068626DC16821F000411143C160C4F894
:10393000849084F881A0002089E7000000300140D5
:1039400000380040003C0040F0B587B00446142128
:103950006846FCF769FD33492068884260D13248E7
:10396000016841F480110160006800F48010059046
:103970002D481038016841F480610160016801F44C
:1039800080610591016841F400710160016801F4F2
:1039900000710591016841F080010160016801F04A
:1039A00080010591016841F080010160016801F02A
:1039B00080010591016841F40071016000680522F1
:1039C000002400F4007005900125009503210220D9
:1039D000CDE90312CDE9010414486946FDF7DEF98B
:1039E000134EA802694600903046FDF7D7F9114FF3
:1039F0002020694600903846FDF7D0F9402000901D
:103A0000CDE90154694638460394FDF7C7F9E80249
:103A10000090CDE90154694630460394FDF7BEF9A4
:103A200007B0F0BD00500140F04402580028025891
:103A300000240258001C02582DE9FC5F044600686F
:103A400017468A4600211D4694F8802000F1200B7D
:103A50000191012A0DD04FF0010884F88080FDF714
:103A6000C7FA814694F881000026012804D002207C
:103A70001EE00220BDE8FC9FBAF1000F17D0B7B1DD
:103A8000A1680320C4F85CA0A4F8607084F88100E9
:103A9000C4F88460A4F862706666A4F86860A4F84C
:103AA0006A60B1F5C02F6667266704D008E0012080
:103AB00084F88060DEE72068016841F400610160FD
:103AC000206841686FF30F01394341602068016845
:103AD00041F0010101606068B0F5800F04D12068F9
:103AE000016841F400710160E0680F281BD81FE0F5
:103AF0002068416989070BD5E16D09680162E06DB5
:103B0000001DE065B4F86200401EA4F862000AE0FF
:103B1000FDF76EFAA0EB0900A84202D3681C02D0A0
:103B200095E0002D30D0B4F862000028E0D174E0B8
:103B300007282BD86DE02068416989071CD5B4F8A7
:103B4000621001290BD9E16B49B1E16D096801628D
:103B5000E06D001DE065B4F86200801E09E0E06DD4
:103B60000188ABF80010E06D801CE065B4F86200DD
:103B7000401EA4F8620009E0FDF73AFAA0EB090044
:103B8000A84202D3681C01D061E0BDB3B4F8620062
:103B90000028D0D141E02068416989072FD5B4F8C9
:103BA000621003290CD9E16B402909D9E16D09683C
:103BB0000162E06D001DE065B4F86200001F1AE0CC
:103BC000B4F8621001290CD9E16B51B1E06D0188A4
:103BD000ABF80010E06D801CE065B4F86200801E58
:103BE00009E0E16D097880F82010E06D401CE06587
:103BF000B4F86200401EA4F862000AE027E0FDF776
:103C0000F7F9A0EB0900A84202D3681C01D01EE01E
:103C1000EDB1B4F862000028BDD100224B46082166
:103C20002046009501F0F4FD28B1D4F8840040F05E
:103C30002000C4F88400204601F0AEFC84F88180A6
:103C4000D4F8840084F8806080B1012012E7204617
:103C500001F0A2FCD4F8841084F8806041F48071F3
:103C6000C4F8841084F88180032003E7019801E7F9
:103C7000401EB0F1807F10B501D3012010BD4FF080
:103C8000E02460610F21601702F022FA0020A06199
:103C90000721216110BD30B590F88010012918D09E
:103CA000012280F880202421C0F8841000222024E2
:103CB00050F8641B0B680D6823F0005325F00105D4
:103CC0000D60026050F8641C0B60046202771046BD
:103CD00030BD022030BD70B5044690F88000012848
:103CE0001DD0012284F880202420C4F8840020689C
:103CF0000568026822F0010202602068826822F0F2
:103D000060620A438260204601F0A4FE22682021FE
:103D100000201560C4F8841084F8800070BD022073
:103D200070BD70B5044690F8800001281DD00122B6
:103D300084F880202420C4F8840020680568026884
:103D400022F0010202602068826822F060420A4389
:103D50008260204601F07EFE22682021002015604E
:103D6000C4F8841084F8800070BD022070BD10B5C6
:103D7000040003D0D4F8840010B107E0012010BD86
:103D8000002084F88000204600F026F82420C4F8A3
:103D900084002068016821F001010160204601F0E3
:103DA0000FFF0128EBD0A06A10B1204601F074FE8D
:103DB0002068416821F4904141602068816821F0C9
:103DC0002A0181602068016841F0010101602046FC
:103DD000BDE8104001F0C4BE10B586B00446142101
:103DE0006846FCF721FB1A49206888422ED1194801
:103DF000016841F010010160006800F010000590BA
:103E000014481038016841F001010160016801F0B7
:103E100001010591016841F0010101600068022182
:103E2000012200F001000590032307244FF40070E5
:103E30008DE81F00084C69462046FCF7AFFF4FF4A1
:103E40008060694600902046FCF7A8FF06B010BDD0
:103E500000100140F0440258000002582DE9F843D8
:103E60000446D0F884001F4616460D46202852D13D
:103E7000DDB1D6B194F8800001284CD0012084F83F
:103E8000800021224FF00008C4F88C80C4F8842000
:103E90001834FDF7ADF8814654F8100CA687E68774
:103EA000183CB0F5805F03D004E00120BDE8F88342
:103EB000206920B12E46002584F8808010E000267D
:103EC000FAE78021204602F051F8B8B9C6B116F8D9
:103ED000010B21688862B4F85600401EA4F8560011
:103EE000B4F856004B464FF0000200970028E8D186
:103EF0004FF04001204602F039F838B10320D5E7F1
:103F000035F8020B2168C0F30800E3E72020C4F86D
:103F100084000020CAE70220C8E7FEE770B5134C12
:103F20006189A089491E8AB2401E83B200210846D9
:103F300000F0E2F901220E48D102FDF74DF8A4F697
:103F400088050F20E8602846FFF752FC6289A089A7
:103F5000A188424389B2284600F000F90720E860B2
:103F60002846BDE87040FFF743BC0000940A0020DB
:103F7000002402582DE9F05FDFF8A0E0203A00238A
:103F8000274E02F0FF0A894683461A46DEF80000F3
:103F9000194626E0234DD0F80080B5F800C0AF8860
:103FA0000AFB04851FFA8CFCBFB2002413F80550ED
:103FB0005FEAC57802D026F812C001E026F8127038
:103FC000B0F80480491C521C89B26D0892B2884531
:103FD00001D1002103E0641CA4B2082CE8D35B1CCF
:103FE0009BB204899C42D5D8C288A9F1010183887B
:103FF000ABF101001144744618448BB2494682B2B9
:10400000584600F079F920688188C088BDE8F05FE3
:104010004143034889B200F0F5B900000C000020CC
:1040200094020020940A00207FB51E46094B0546E5
:104030000C46187A1346324648B107A1684602F08A
:1040400033F86A462146284600F00CF87FBD03A1EC
:10405000F4E70000940A0020252A640025302E2A67
:10406000640000002DE9F0410B4F15460B4E8846C9
:10407000044608E041462046FFF77CFF38686D1C87
:104080008088204484B27089A04202D92A78002A0C
:10409000F0D1BDE8F08100000C000020940A00205F
:1040A00010B5026840F26F335169946944F0080416
:1040B00094610268946944F0100494610268146881
:1040C00024F001041460026814699C4314610268BE
:1040D000936823F44043936090F88120042A0CD025
:1040E0008A060AD5D0F8842042F08002C0F88420E5
:1040F0000268936943F02003936190F88120032ABA
:104100000CD04A060AD5D0F8842042F00402C0F848
:1041100084200268936943F0400393618A050AD5BD
:10412000D0F8842042F00102C0F88420026893692C
:1041300043F400739361C9050AD5D0F8841041F0A7
:104140000801C0F8841001688A6942F480728A61AB
:104150000021A0F86210A0F86A1010BD2DE9FC5FE4
:104160008A4690F8801004461646002001900129E6
:104170004FF47A770DD04FF0010884F88080FCF777
:1041800037FF814694F881000025012804D00220E1
:1041900017E00220BDE8FC9F96B1A16803204AEA1F
:1041A0000A4B84F88100C4F884506566A4F868500E
:1041B000A4F86A50B1F5C02F6567256704D008E000
:1041C000012084F88050E5E72068016841F400612F
:1041D0000160206841686FF30F0141602068016849
:1041E00041F0010101606068B0F5800F04D12068E2
:1041F000016841F4007101602068416989070DD5AB
:10420000B4F86210012905D9E16B19B1C0F820B0EA
:10421000B61E17E0A0F820A0761E13E0FCF7E8FE1B
:10422000A0EB0900B8420DD32046FFF739FFD4F8C0
:10423000841084F8805041F48071C4F8841084F8AC
:10424000818033E0002ED7D100224B464FF48051BD
:104250002046009700F02EF828B1D4F8840040F0F2
:104260002000C4F884002068016841F48061016086
:1042700000224B464FF400612046009700F01AF8E8
:1042800028B1D4F8840040F02000C4F8840020460F
:10429000FFF706FF2068826942F40062826184F8B9
:1042A000805084F88180D4F8840008B1012071E73F
:1042B00001986FE72DE9F041984616460D460746EE
:1042C000069C09E0FCF794FEA0EB0800A04202D394
:1042D000601C01D00BE054B13868406935EA000039
:1042E00007D00020B042EDD00020BDE8F0810320CF
:1042F000FBE70120F6E700002DE9F041984615465E
:104300000E4607462A2000F09DF80F4CA07B38444B
:1043100080B200F0ABF8A07B284480B200F0A6F891
:104320002B2000F08FF8E07B304480B200F09EF844
:10433000E17B01EB080080B200F098F8BDE8F041A5
:104340002C2000F07FB80000940A00204FF4784140
:104350004FF4FC6301EA1021C0F3C40203EA5010D9
:10436000014302481143416070470000940A002055
:104370004FF478414FF4FC6301EA1021C0F3C4020A
:1043800003EA5010014302481143016070470000E6
:10439000940A00202DE9F041194C002514264FF015
:1043A000F0084FF48C77607298B1022816D001287B
:1043B00019D003280BD1362000F044F85FF0C0007C
:1043C00000F06CF8A573E673A4F80A80A781BDE835
:1043D000F081362000F036F8702008E0362000F03A
:1043E00031F80020ECE7362000F02CF8A02000F097
:1043F00055F8A673E5736781A4F80C80E7E7000021
:10440000940A002070B501220C4605460B48D102E3
:10441000FCF7E2FD0A4E0F20F0603046FFF7E8F9A6
:104420004FF47A73224629463046FFF705FB0720F2
:10443000F0603046BDE87040FFF7DAB9002402585A
:104440000C02002001B5074800224FF40061FCF780
:10445000C3FD054801224FF47A736946FFF7ECFA71
:1044600008BD0000002402580C020020012238B5CB
:10447000D10204460748FCF7AFFD200A8DF8000082
:10448000054802224FF47A7369468DF80140FFF720
:10449000D3FA38BD002402580C020020012201B5D5
:1044A0000548D102FCF798FD044801224FF47A73C5
:1044B0006946FFF7C1FA08BD002402580C0200202B
:1044C00030B587B014216846FBF7AEFF0E4801688F
:1044D00041F00401016000684FF400540B4D0022CC
:1044E00000F00400214605902846FCF775FD0021E8
:1044F00000940120CDE90101284603916946FCF7AB
:104500004DFC07B030BD0000E044025800080258DE
:10451000F0B587B01C216846FBF786FF17480126D7
:10452000154C002502214FF0100E08234FF0400CCF
:1045300004604FF4C074C0E90156C3600B03C0F8B7
:1045400010E08F02C0E905C4C561CE0207620722F0
:104550000424C0E909638DE8160003250392CDE920
:10456000045106916946FEF75DFA04490348343167
:1045700000F053FD07B0F0BD40410052C8010020DB
:10458000002110B5084C4FF480430622C0E90041D9
:10459000C0E90213C0E904120C46FEF79FFE00B109
:1045A0000124204610BD000000700052F0B41248F3
:1045B0004FF4800500210F4CEB010722C0E90321D5
:1045C000C0E90513C1615A000162202341624FF422
:1045D000C0268162C162C0E90D21C0E90F3141648A
:1045E0008164C16401654165816580E87000F0BC4B
:1045F000FFF7FEB8005001400C020020FEE7FEE786
:104600002DE9F047454D044689464FF0000A2868D9
:10461000C04380070AD0414E283E306820F08060B9
:104620003060FCF7E5FC0746B04608E00120BDE835
:10463000F08700BFFCF7DCFCC01B022867D8D8F865
:1046400000000001F6D4206829684FF4FE0721F429
:104650007C313E0241EA00302860207AA389B4F818
:1046600004C040022D4D2D495B1E227CACF1010C93
:104670001035091DA0F5007080B2521ECCF3080C55
:1046800007EA034340EA0C00184306EA02621043BB
:1046900028600868626920F0C000104308600A685A
:1046A000A06922F0200202430A60281D0A6822F055
:1046B00010020A6002684FF6F873E4699A4342EA0E
:1046C000C40202600868B9F1000F40F010020A60ED
:1046D00011D00868B9F1010F11D040F40010086042
:1046E000D8F80000444640F08060C8F80000FCF7AD
:1046F0007FFC05460DE0086840F40020EFE740F439
:104700008010ECE7FCF774FC401B022801D9032061
:104710008DE720680001F5D5504688E72844025807
:104720002DE9F047454D044689464FF0000A2868B8
:10473000C04380070AD0414E283E306820F08050A8
:104740003060FCF755FC0746B04608E00120BDE8A4
:10475000F08700BFFCF74CFCC01B022867D8D8F8D4
:1047600000008000F6D4208829684FF4FE0721F06D
:104770007C713E0241EA00502860207AA389B4F897
:1047800004C040022D4D2D495B1E227CACF1010C72
:104790001835091DA0F5007080B2521ECCF3080C2C
:1047A00007EA034340EA0C00184306EA026210439A
:1047B00028600868626920F44060104308600A6855
:1047C000A06922F4007202430A60281D0A6822F4DC
:1047D00080720A6002684FF6F873E4699A4342EA0D
:1047E000C40202600868B9F1000F40F480720A60E8
:1047F00011D00868B9F1010F11D040F08070086045
:10480000D8F80000444640F08050C8F80000FCF79B
:10481000EFFB05460DE0086840F48000EFE740F448
:104820000000ECE7FCF7E4FB401B022801D9032061
:104830008DE720688000F5D5504688E72844025867
:104840000020FEF72BBC30B585B0044637204FF46E
:1048500080720DF1080CCDE90010002369461501A6
:1048600020468CE82C0000F0BFFB372141F2883253
:10487000204600F045FA05B030BD30B585B004469D
:1048800029204FF480720DF1080CCDE900100023AF
:104890006946150120468CE82C0000F0A5FB204657
:1048A00000F0EAFA05B030BD30B50446102085B0FE
:1048B0000DF1080C02010502CDE900100023694644
:1048C0008CE82C00204600F08FFB102141F288324A
:1048D000204600F015FA05B030BD30B585B004466D
:1048E00006204FF480720DF1080CCDE90010002372
:1048F0006946150120468CE82C0000F075FB062166
:1049000041F28832204600F0FBF905B030BD30B5E9
:1049100085B0044626204FF480720DF1080CCDE9D5
:10492000001000236946150120468CE82C0000F099
:104930005BFB26214FF21862204600F0E1F905B03A
:1049400030BD000030B585B00546002469464FF4FF
:104950008050009401940294CDE90340284600F071
:1049600043FB0B4A4FF4FA5041F288311268B2FB14
:10497000F0F04843401E03D24FF0004005B030BD78
:10498000696B0906F6D503492046A963F6E70000DE
:1049900034000020C500200030B50821044685B051
:1049A0004FF4D5704A0100234D028DE82F0069466F
:1049B000204600F019FB204600F0C8FA05B030BDD3
:1049C00030B585B0044612204FF480720DF1080C0A
:1049D000CDE9001000236946150120468CE82C0023
:1049E00000F002FB122141F28832204600F088F9E3
:1049F00005B030BD30B585B0044611204FF480724B
:104A00000DF1080CCDE90010002369461501204680
:104A10008CE82C0000F0E8FA112141F2883220469F
:104A200000F06EF905B030BD30B585B004462120E8
:104A30004FF480720DF1080CCDE900100023694697
:104A4000150120468CE82C0000F0CEFA212141F21D
:104A50008832204600F054F905B030BD30B5044628
:104A6000202085B00DF1080CC200C501CDE9001071
:104A7000002369468CE82C00204600F0B5FA20217E
:104A800041F28832204600F03BF905B030BD30B528
:104A900085B0044607204FF480720DF1080CCDE973
:104AA000001000236946150120468CE82C0000F018
:104AB0009BFA072141F28832204600F021F905B027
:104AC00030BD10B585B00446002102204FF440727D
:104AD000C3020493CDE90010CDE9022169462046C6
:104AE00000F082FA204600F09DF905B010BD30B507
:104AF00085B0044609200DF1080C0023CDE9001013
:104B00004FF4407269464FF4805520468CE82C00E3
:104B100000F06AFA204600F085F905B030BD10B506
:104B200085B00446002133204FF48072CDE9022184
:104B3000CDE90010130169462046049300F054FAB1
:104B4000332141F28832204600F0DAF805B010BD7A
:104B500030B585B004460D204FF480720DF1080C7D
:104B6000CDE9001000236946150120468CE82C0091
:104B700000F03AFA0D2141F28832204600F0C0F8E8
:104B800005B030BD30B585B00C4600210546032088
:104B90004FF48072CDE90221CDE90010130169467E
:104BA0002846049300F020FA03212246284600F00C
:104BB00087F905B030BD10B585B0044600210D2041
:104BC0004FF48072CDE90221CDE90010130169464E
:104BD0002046049300F008FA0D2141F28832204665
:104BE00000F08EF805B010BD10B585B004464FF446
:104BF000807200200C2113018DE80700CDE903032A
:104C0000E06840F08000E060E06820F04000E06094
:104C10006946204600F0E8F9074A0C21204600F0DA
:104C20006FF8E168B0F1007F21F08001E16000D110
:104C3000002005B010BD000000E1F50530B585B0DD
:104C4000044606204FF480720DF1080CCDE90010E7
:104C500000236946150120468CE82C0000F0C4F9B9
:104C6000062141F28832204600F04AF805B030BDF6
:104C700030B585B0044619204FF480720DF1080C50
:104C8000CDE9001000236946150120468CE82C0070
:104C900000F0AAF9192141F28832204600F030F8DC
:104CA00005B030BD30B585B0044618204FF4807291
:104CB0000DF1080CCDE900100023694615012046CE
:104CC0008CE82C0000F090F9182141F2883220463F
:104CD00000F016F805B030BD70B50A6842624A6847
:104CE0008262C46AD1E90225D1E9043624F0FF01C9
:104CF0002A4333431A431143C162002070BD0000B0
:104D000030B5464D4FF4FA53434C2D68B5FBF3F3E1
:104D100053435B1E02D24FF0004030BD426B224233
:104D2000F7D09204F5D4426B520703D50421816376
:104D3000084630BD426BD20702D00121816306E0F4
:104D4000354A803282630269D2B28A4201D00120A0
:104D500030BD002100F02AF93149084201D100207C
:104D600030BD002802DA4FF0007030BD410001D59F
:104D7000402030BD810001D5802030BDC10002D56A
:104D80004FF4807030BD010102D54FF4007030BD8A
:104D9000410102D54FF4806030BDC10102D54FF40E
:104DA000006030BD010202D54FF4805030BD410299
:104DB00002D54FF4005030BD810202D54FF480403F
:104DC00030BDC10202D54FF4004030BD410302D5D1
:104DD0004FF4003030BD810302D54FF4802030BD48
:104DE000C10302D54FF4002030BD010402D54FF4B9
:104DF000801030BD410402D54FF4001030BD810455
:104E000002D54FF4800030BD000702D54FF40000FA
:104E100030BD4FF4803030BD45002000340000200C
:104E200008E0FFFD124B4FF4FA5141F288321B6843
:104E3000B3FBF1F15143491E02D24FF000407047DD
:104E4000426B12F0450FF6D09204F4D4416B49073F
:104E500003D50421816308467047416BC90703D01D
:104E60000121816308467047024981630020704731
:104E700034000020C50020000F4B4FF4FA5141F2DE
:104E800088321B68B3FBF1F15143491E02D24FF047
:104E900000407047426B12F0450FF6D09204F4D4F4
:104EA000416B490703D504218163084670470349D4
:104EB000816300207047000034000020C5002000FE
:104EC00030B5204D4FF4FA5341F288342D68B5FBCC
:104ED000F3F363435B1E02D24FF0004030BD446BDE
:104EE00014F0450FF6D0A404F4D4436B5B0703D54C
:104EF00004218163084630BD436BDB0702D00121EA
:104F0000816303E00369DBB28B4201D0012030BD35
:104F10000D498163002100F049F810F4604F04D07E
:104F2000410406D54FF4005030BD000C1080002025
:104F300030BD000402D54FF4805030BD4FF48030B6
:104F400030BD000034000020C5002000144B4FF499
:104F5000FA5141F288321B68B3FBF1F15143491E0B
:104F600002D24FF000407047426B12F0450FF6D06E
:104F70009204F4D4416B490703D5042181630846A8
:104F80007047416BC90703D0012181630846704710
:104F9000416B490601D54021816300207047000024
:104FA00034000020006800F00300704708444069A6
:104FB0007047000030B511434268DDE903542B43CC
:104FC000034D194321432A400A434260002030BD6B
:104FD000002CC0FF016841F0030101600020704710
:104FE000D0F880007047000070B5084D0A688260F4
:104FF000C368D1E90126D1E903412B4032430C4378
:1050000022431343C360002070BD0000C0E0FEFFD8
:105010000968C0F88010002070472DE9F843102778
:105020000C460025814601260095C4E900674FF42F
:105030008058C4E902654246FDF736FD0120FBF7C2
:1050400013FE02204246C4E90007C4E90265214676
:105050004846FDF729FD032142460820C4E9001710
:10506000C4E9020521464846FDF71EFD40F2312005
:10507000009004214246C4E90017C4E902602146B9
:105080004846FDF711FD484640F29631BDE8F84329
:10509000FDF7F2BC2DE9F04F87B00D460446FBF753
:1050A000A7FF0026069020680821B3463746FFF781
:1050B000FBFB002833D1B4F8441020680904FFF743
:1050C000C2FB00282BD1431E4FF008094FF0020A03
:1050D0004FF0300C4FF00108CDF80CA08DE808120D
:1050E000CDE9046820686946FFF7F6FD2068FFF700
:1050F00016FD002813D140F22A582068416B11EAAE
:10510000080F06D1416B090315D4BBF1000F09D07C
:1051100011E0416B090717D5C0F83890082007B097
:10512000BDE8F08FFFF75CFF06462068FFF758FFE9
:1051300007464FF0010BFBF75BFF0699401A401C36
:10514000DBD14FF00040EAE7416B890703D5C0F897
:1051500038A00220E3E7416B890603D52021816353
:105160000846DCE7034A39BA33BA82630020C5E94E
:105170000013D4E73A0F00182DE9F04F9BB0044616
:10518000002568464021FBF74FF90026FBF730FF6A
:105190008046A06D18B1B0F5807F05D05FE04FF07C
:1051A00080601BB0BDE8F08F20680025C5624021FB
:1051B0002068FFF779FB0028F3D140224FF0020965
:1051C0004FF0010A401E6021CDE91202CDE9141909
:1051D000CDE9165A206812A9FFF77EFD2149206803
:1051E000FFF72CFD0500DCD140F22A5B21684A6BF9
:1051F00012EA0B0F1AD1486B00040BD50027206868
:10520000FFF7EEFE07EBC6027F1C082F4DF82200C9
:10521000F5D3761CFBF7ECFEA0EB0800401CE5D1B3
:105220004FF00040606384F830A0BAE7486B000795
:1052300002D50820886312E0486B800701D54846F4
:1052400003E0486B800602D520208863A9E7064862
:1052500088639DF80D00800701D44FF080552846E3
:105260009FE7000001FFFF803A0F001870B58CB077
:1052700004460020ADF82C00FBF7BAFE0546206876
:10528000FFF790FE002853D0A06B032841D0206880
:10529000FFF717FC002849D120680021FFF786FEA0
:1052A000E06604212068FFF781FE2067082120685E
:1052B000FFF77CFE60670C212068FFF777FEA16B8B
:1052C000A067032925D041F2883600BFBDF82C0025
:1052D00088B3A06B03281CD0BDF82C106164206833
:1052E0000904FFF704FC002820D120680021FFF703
:1052F0005DFEE06504212068FFF758FE2066082166
:105300002068FFF753FE60660C212068FFF74EFE11
:10531000A06604212068FFF749FE000D694620645D
:105320002046FDF761FDA8B14FF080500CB070BD74
:105330004FF08060FAE7FFE720680BA9FFF722FC37
:105340000028F3D1FBF754FE401BB042BED34FF010
:105350000040EBE7B4F8441020680904FFF797FB1E
:10536000E4E70000224910B5884286B03ED12148CA
:10537000016841F480310160006800F480300590DC
:105380001C480C30016841F004010160016801F023
:1053900004010591016841F00801016000680221E3
:1053A000012200F00800059003230C244FF4F8506C
:1053B0008DE81F0010486946FBF7F0FC04200090C0
:1053C0000E486946FBF7EAFC0A485838016841F480
:1053D00080310160016821F48031016000220E21DA
:1053E0003120FBF77DFE3120FBF76CFE06B010BDCF
:1053F0004C010020D444025800080258000C025806
:105400002DE9F84F002604463546B0460096006860
:10541000FFF798FA002829D12068FFF7BDFAB0F10C
:10542000004F4FF001094FF0805B4FF6FF7702D03D
:10543000C4F83C9008E0E6632068FFF783FA002890
:1054400014D1E06B01281ED120680021FFF7FBF981
:1054500058B918E020680021FFF7F5F9002805D1B8
:1054600020685146FFF709FA10B15846BDE8F88F99
:1054700020680021FFF79AFD4FEAD0780546009892
:10548000401C009002E0DFF828A00098B84202D249
:10549000B8F1000FDED00098B84202D34FF0807010
:1054A000E4E76800A66301D5C4F838900020DDE782
:1054B000000010C12DE9F04186B00D460446FBF70F
:1054C00097FD002107462068FFF770FD800104D595
:1054D0004FF4006006B0BDE8F08120684021FFF77E
:1054E000E3F9C0B9B4F8441020680904FFF7ABF938
:1054F00088B940214FF0FF3060224FF0010C0223A9
:1055000000268DE84F1020686946FFF7E5FB20680C
:10551000FFF751FB98B1616B6163DBE7406B0004FF
:1055200007D500262068FFF75BFD761C082E01C515
:10553000F8D3FBF75DFDC01B401C02D127E04FF004
:1055400000482068416B11F4957FE7D0416B090753
:1055500001D50820BEE7416B890701D50220B9E7D4
:10556000406B80060AD52020B4E700BFFFF738FD66
:1055700001C5FBF73DFDC01B401C08D02068416BF6
:10558000C904F3D40146034888630020A2E74046DB
:10559000A0E700003A0F001810B5026840F26F3320
:1055A0005169946944F0080494610268946944F074
:1055B000100494610268146824F001041460026805
:1055C00014699C4314610268936823F44043936018
:1055D00090F88120042A0CD08A060AD5D0F88420BD
:1055E00042F08002C0F884200268936943F02003EF
:1055F000936190F88120032A0CD04A060AD5D0F88E
:10560000842042F00402C0F884200268936943F0C9
:10561000400393618A050AD5D0F8842042F0010244
:10562000C0F884200268936943F400739361C9054C
:105630000AD5D0F8841041F00801C0F88410016840
:105640008A6942F480728A610021A0F86210A0F891
:105650006A1010BD10B5FEF7A9FF0A20FBF704FB86
:105660003620FEF7EFFE0020FEF718FF3A20FEF787
:10567000E9FE0520FEF712FFB220FEF7E3FE0C2044
:10568000FEF70CFF0C20FEF709FF0020FEF706FFD7
:105690003320FEF703FF3320FEF700FFB720FEF7AD
:1056A000D1FE3520FEF7FAFEBB20FEF7CBFE192017
:1056B000FEF7F4FEC020FEF7C5FE2C20FEF7EEFE3E
:1056C000C220FEF7BFFE0120FEF7E8FEC320FEF772
:1056D000B9FE1220FEF7E2FEC420FEF7B3FE202042
:1056E000FEF7DCFEC620FEF7ADFE0F20FEF7D6FE6D
:1056F000D020FEF7A7FEA420FEF7D0FEA120FEF7E3
:10570000CDFEE020FEF79EFED020FEF7C7FE04206F
:10571000FEF7C4FE0D20FEF7C1FE1120FEF7BEFE0F
:105720001320FEF7BBFE2B20FEF7B8FE3F20FEF74E
:10573000B5FE5420FEF7B2FE4C20FEF7AFFE182057
:10574000FEF7ACFE0D20FEF7A9FE0B20FEF7A6FE2D
:105750001F20FEF7A3FE2320FEF7A0FEE120FEF7A8
:1057600071FED020FEF79AFE0420FEF797FE0C2073
:10577000FEF794FE1120FEF791FE1320FEF78EFE39
:105780002C20FEF78BFE3F20FEF788FE4420FEF71C
:1057900085FE5120FEF782FE2F20FEF77FFE1F20A0
:1057A000FEF77CFE1F20FEF779FE2020FEF776FE36
:1057B0002320FEF773FE2120FEF744FE1120FEF7A2
:1057C00041FE7820FBF750FA2920FEF73BFE02202D
:1057D000FEF7E0FD0020FEF7B9FD6FF07F40FEF719
:1057E000C7FDFEF79BFB0749012205480860002022
:1057F000054908724021BDE810400448FBF7ECBBA6
:10580000000000200C000020940A0020001C025818
:105810002DE9F041984616460D460746069C09E0DC
:10582000FBF7E6FBA0EB0800A04202D3601C01D00E
:105830000BE054B13868406935EA000007D0002019
:10584000B042EDD00020BDE8F0810320FBE701204D
:10585000F6E710B5FBF7D2FB02F0BCFE012803D03F
:10586000BDE8104002F0BEBC10BD000070B5CCB069
:105870004C212FA8FAF7D8FD202142A8FAF7D4FD31
:10588000BC216846FAF7D0FD0220FBF75BFC3749E4
:10589000002437480A6822F001020A600A68026898
:1058A00042F440420260026802F440424A920268B6
:1058B0009204FCD52F4A136843F002031360126868
:1058C00002F002024A92026842F440420260026818
:1058D0000A6842F001020A60096801F001014A9178
:1058E00001688904FCD501212F910DF1E40C0220FF
:1058F00038900522C0234FF48036309604218CE87E
:105900000D0008253E90CDE93C01CDE93F542FA87C
:105910004194FCF7EBFD08B172B6FEE740203F2151
:105920000301CDE945500322CDE9470342AB49903D
:1059300042A883E816000421FCF7C8FB08B172B640
:10594000FEE74FF40050189400906846FBF754FFB0
:1059500008B172B6FEE7684600961394FBF74CFF59
:10596000002801D072B6FEE74CB070BD2C04005880
:1059700018480258F44402582C48F0B52C4A0168E3
:1059800041F470010160106800F00F00072804D294
:10599000106820F00F00C01D106026490020254C23
:1059A00010340B68244D43F001030B6020600B683A
:1059B0002B400B60136803F00F03072B04D9136807
:1059C00023F00F03DB1D13601A4C1C4A18341C4BC8
:1059D000261D371D2060174C1A4D28343060261DB7
:1059E0003860371D23603B1D35601C1D3A60251D46
:1059F0002E1D1860331D22602860326018600A680E
:105A00000C4B114C22F4802260330A60186020682D
:105A10006FF30F00B0F1005F03D20C490120C1F811
:105A2000080143F2D2000A490860F0BD88ED00E0A9
:105A300000200052004402587FEDF6EA8002010186
:105A4000000202020000FF010010005C0080005113
:105A50000040005230B5416EB9B101680D4B03F101
:105A600008048A688968C2F34262490F5D5C615C20
:105A70002D01B5FBF1F1A0F86A10995CA25C090157
:105A8000B1FBF2F1A0F8681030BD0121A0F86A1056
:105A9000F8E70000189D000890F82810C90706D004
:105AA0000168C36A4A6822F400321A434A6090F8D7
:105AB0002810890706D50168036B4A6822F48032F2
:105AC0001A434A6090F82810490706D50168436BCD
:105AD0004A6822F480221A434A6090F82810090785
