:0200000490006A
:10000000805F01207103009053630090B95C009001
:1000100051630090B70A0090FD7D00900000000041
:10002000000000000000000000000000AD02009091
:10003000DD0C00900000000009030090377500906F
:100040008B0300908B0300908B0300908B03009038
:100050008B0300908B0300908B0300908B03009028
:100060008B0300908B0300908B030090B90A0090E3
:100070008B0300908B0300908B0300908B03009008
:100080008B0300908B0300908B0300908B030090F8
:100090008B0300908B0300908B0300908B030090E8
:1000A0008B0300908B0300908B0300908B030090D8
:1000B0008B0300908B0300908B0300908B030090C8
:1000C0008B0300908B0300908B0300908B030090B8
:1000D0008B030090997D0090F17D00908B03009040
:1000E0008B0300908B030090000000008B030090B6
:1000F0008B0300908B0300908B0300908B03009088
:100100008B03009095650090417700908B030090E1
:100110008B0300908B0300908B0300908B03009067
:100120008B0300908B0300908B0300908B03009057
:100130008B0300908B0300908B0300908B03009047
:1001400000000000000000000000000000000000AF
:100150008B0300908B0300908B0300908B03009027
:100160008B0300908B0300908B0300908B03009017
:100170008B0300908B0300908B0300908B03009007
:100180008B0300908B0300908B0300908B030090F7
:100190008B030090557200908B0300908B030090AE
:1001A0008B0300908B0300908B0300908B030090D7
:1001B0008B0300908B0300908B0300908B030090C7
:1001C0008B0300908B0300908B0300908B030090B7
:1001D0008B0300908B0300908B0300908B030090A7
:1001E0008B0300908B0300908B0300908B03009097
:1001F0008B0300908B0300908B0300908B03009087
:100200008B0300908B0300908B0300908B03009076
:100210008B0300908B0300908B0300908B03009066
:100220008B0300908B0300908B0300900000000074
:100230008B0300908B030090000000008B03009064
:100240008B0300908B0300908B0300908B03009036
:100250008B0300908B0300908B0300908B03009026
:100260008B0300908B0300908B0300908B03009016
:100270008B0300908B0300908B0300900000000024
:100280008B0300908B0300908B0300900000000014
:10029000000000008B030090DFF80CD000F0F2FAB1
:1002A00000480047B17B0290805F01202D4B196808
:1002B0000868B0E8F04F80F30988BFF36F8F4FF004
:1002C000000080F3118870470000000008480068B3
:1002D000006880F308884FF0000080F3148862B64D
:1002E00061B6BFF34F8FBFF36F8F00DF00BF00BF5A
:1002F00008ED00E0DFF80C00016841F470010160D6
:10030000704700BF88ED00E0EFF30980BFF36F8F07
:10031000144B1A681EF0100F08BF20ED108A20E958
:10032000F04F106009B44FF0500072B680F311889E
:10033000BFF34F8FBFF36F8F62B62DF01FFF4FF0EB
:10034000000080F3118809BC19680868B0E8F04F14
:100350001EF0100F08BFB0EC108A80F30988BFF3BD
:100360006F8F704774000020EFF305807047000026
:100370000648804706480047FEE7FEE7FEE7FEE73F
:10038000FEE7FEE7FEE7FEE7FEE7FEE75D760090AC
:10039000990200902DE9F05F0546002092469B46A9
:1003A00088460646814640241BE02846414647468B
:1003B000224600F09EF853465A46C01A914110D387
:1003C00011461846224600F085F82D1A67EB010801
:1003D0004F4622460120002100F07CF817EB00096F
:1003E0004E41201EA4F10104DFDC484631462A4676
:1003F0004346BDE8F09F40EA01039B0703D009E0B4
:1004000008C9121F08C0042AFAD203E011F8013B00
:1004100000F8013B521EF9D27047D2B201E000F859
:10042000012B491EFBD270470022F6E710B5134698
:100430000A4604461946FFF7F0FF204610BDCAB22F
:10044000401E10F8011F8A4202D00029F9D1002075
:100450007047421C10F8011B0029FBD1801A70471D
:1004600010B5002200E0521C835C8C5CA34201D1D9
:10047000002BF8D1D8B2E1B2401A10BD30B5044615
:100480000020034600E05B1C934203D2E05CCD5C9D
:10049000401BF8D030BD034611F8012B00F8012BAA
:1004A000002AF9D11846704730B50B4601460020A6
:1004B0002022012409E021FA02F59D4205D303FA26
:1004C00002F5491B04FA02F52844151EA2F10102A7
:1004D000F1DC30BD202A04DB203A00FA02F10020D2
:1004E00070479140C2F1200320FA03F31943904072
:1004F0007047202A04DB203A21FA02F000217047DD
:1005000021FA02F3D040C2F120029140084319467B
:1005100070472DE9FE4F804681EA0300C00F0C466C
:10052000009021F0004123F00045B8EB0200A94102
:1005300005D24046214690461C460B46024623F013
:100540000040104347D0270DC7F30A00C3F30A51F8
:100550000290401A019040286BDAC3F3130040F474
:10056000801B0098924620B10023D2EB030A63EB74
:100570000B0B01985946C0F140025046FFF7AAFF05
:1005800006460D4650465946019A00F08DF910EB8B
:1005900008006141002487EA115284EAE7731A4394
:1005A00040D0009A62B3019A012A4FEA075215DC43
:1005B000001B61EB02014FF0004202EA0752CDE955
:1005C0000042001C41F5801132462B4600F08DF9A7
:1005D00003B0BDE8F08F40462146F9E7001B61EB10
:1005E0000201001C41F5801300185B412018A2F5A0
:1005F000001747EB030140EAD570B6196D4111E0D1
:100600006D084FEA360645EAC0754FEA0752001BEF
:1006100061EB0201001C41F5801149084FEA3000EE
:100620000019514132462B4603B0BDE8F04F00F0AF
:100630004DB90098012240000023D0EB020263EB89
:10064000E073009821464FEAE074B8EB000061EBDC
:100650000401E9E783F000435BE781F0004158E7DC
:100660002DE9FE4F81EA030404F0004421F000412B
:1006700000944FF0000B23F0004350EA01045ED0D9
:1006800052EA03045BD0C3F30A54C1F30A552C4465
:10069000A4F2F3340194A0FB0254C1F3130141F41A
:1006A0008011C3F3130343F4801301FB024400FBE6
:1006B000034E840A970A44EA815447EA8357A4FB0D
:1006C000076802958D0A05FB07854FEA932C04FB0A
:1006D0000C542705029D4FEA065847EA1637B5EB3A
:1006E00008056EEB070C870E920E47EA811742EA67
:1006F0008312A7FB0201B6EB0B0164EB00042B0D88
:1007000043EA0C335E1844EB1C50DA465146E7FBD3
:100710000201C5F313044FEA0B3343EA14534FEAC3
:100720000432019C43EA0603A4F10C040294009CE9
:10073000CDE900B400F0D9F803B0BDE8F08F002097
:100740000146F9E72DE9F04D81EA030404F0004B7E
:1007500021F0004514464FF0000A23F0004150EA12
:10076000050220D054EA01021DD0C5F30A57024603
:10077000C5F31303C1F31300C1F30A5640F4801507
:1007800043F48013A7EB0608101BD64608F2FD3889
:1007900073EB050002D308F1010801E092185B41F8
:1007A000B8F1000F03DA00200146BDE8F08D00200B
:1007B0004FF48011064684460EE0171B73EB0507C5
:1007C00005D3121B63EB050306434CEA010C4908F1
:1007D0004FEA300092185B4150EA0107EDD152EA2E
:1007E000030012D082EA040083EA0501084305D021
:1007F000101BAB4106D20122002306E000224FF07D
:10080000004302E06FF0010253101AEB06004CEBBC
:10081000085110EB0A0041EB0B01BDE8F04D00F070
:1008200055B8C1F30A52C1F3130140F2FF3341F44A
:1008300080119A4202DA00200146704740F23343A9
:100840009A42A2F2334202DC5242FFF752BEFFF755
:1008500041BE000030B5041E71F1000404DB4FF00E
:100860000044404264EB0101141E73F1000405DBF7
:100870001C464FF00043524263EB0403994208BF09
:10088000904230BD064C074D06E0E06840F00103A1
:1008900094E8070098471034AC42F6D3FFF700FD08
:1008A000944B0390B44B0390202A06DBCB17203ADD
:1008B00041FA02F043EAE07306E041FA02F3D04065
:1008C000C2F12002914008431946704710B5141E2A
:1008D00073F1000408DA401C41F1000192185B41F9
:1008E0001A4301D120F0010010BD2DE9F04D9246D0
:1008F0009B4611B1B1FA81F202E0B0FA80F22032E7
:100900009046FFF7E7FD04460F4640EA0A0041EA39
:100910000B0153465A46084313D0114653EA0100CF
:1009200019D0C8F140025046FFF7E3FD05460E46D8
:10093000504659464246FFF7CDFD084305D00120F9
:1009400004E020463946BDE8F08D0020054346EA24
:10095000E0762C4337430A986305E40AA0EB0800CD
:100960000022FD0A44EA47540A3002D5002001461D
:10097000E9E7010510196941DDE9084500196941F8
:10098000BDE8F04DA2E770B58C1810F8015B15F0CA
:10099000070301D110F8013B2A1106D110F8012BF1
:1009A00003E010F8016B01F8016B5B1EF9D12B0716
:1009B00005D40023521E0DD401F8013BFAE710F8CC
:1009C000013BCB1A921C03E013F8015B01F8015BB9
:1009D000521EF9D5A142D8D3002070BD0649C0EB04
:1009E000401010B501EB800003F02CFD042801D06D
:1009F000012010BD002010BD7403002070B54FF021
:100A0000000508B1AD1E1CE000F020F8012802D05E
:100A10006FF0060515E00C4C204606F001FB204661
:100A200005F0E8FB6FF0030628B94FF4804120463B
:100A300003F064FB08B1354603E00221204603F0D1
:100A400003FB284670BD00007403002010B16FF056
:100A5000010070470120704738B564254FF000044D
:100A6000002803FB05F001D0A41E06E00090044816
:100A700003F026FF08B16FF00304204638BD0000E4
:100A8000740300207047000038B564254FF000045F
:100A9000002803FB05F001D0A41E06E000900448E6
:100AA00004F008F808B16FF00304204638BD0000D8
:100AB000740300207047FEE7014800F021BE0000EB
:100AC00034040020294A016891423AD0274A18325A
:100AD000914236D0254A3032914232D0234A4832B0
:100AE00091422ED0214A603291422AD01F4A783258
:100AF000914226D01D4A9032914222D01B4AA83200
:100B000091421ED01A4A91421BD0194A1832914282
:100B100017D0174A3032914213D0154A48329142C9
:100B20000FD0134A603291420BD0114A7832914271
:100B300007D00F4A9032914203D00D4AA832914219
:100B400011D1CAB21823103AB2FBF3F26FF30901C4
:100B5000032A02F00703074AD25CC26500D9091DC7
:100B600081650846704721F0FF01F9E71000024057
:100B7000100402404004039030B5224A012301686A
:100B80009142CAB21BD01F4C1434A14217D01D4C45
:100B90002834A14213D01B4C3C34A1420FD0194C35
:100BA0005034A1420BD0174C6434A14207D0154CED
:100BB0007834A14203D0134C8C34A1420CD11421BF
:100BC000114C083AB2FBF1F10F4A803201F01F05D7
:100BD00004EB8101AB4010E00C4D1824103A0D4499
:100BE000B2FBF4F1A82D00D80831094A01F01F0426
:100BF00002EB8101064AA3408032603080E80E009B
:100C000030BD00000854025800580258F0FBFDBFE8
:100C10000008024010B50279531E072B2DD8174C3F
:100C20000168A1421BD0154C1434A14217D0134CBB
:100C30002834A14213D0114C3C34A1420FD00F4CA8
:100C40005034A1420BD00D4C6434A14207D00B4C60
:100C50007834A14203D0094C8C34A14203D1084915
:100C6000074C443102E00749064C443104EB820250
:100C7000C0E91B2101219940416710BD0854025869
:100C8000FC580258FC08024010B583694FF0C0744C
:100C9000826A0146002053B1B3F5005F15D072B1EE
:100CA000012A0CD0022A0AD0032A09D104E01AB181
:100CB000012A06D0022A03D1C96AC90100D5012040
:100CC00010BDC96AA142FAD010BD002AF7D0012A8E
:100CD000F2D0022AF3D0032AF3D010BD704772B6C7
:100CE000FEE7F0B5D1E90843CD690A68C2B10268F0
:100CF000254322F4F84213431D430560D1E9012541
:100D0000D1E903364C692A434568334389691A435C
:100D1000EB0B2243DB030A431A4342600020F0BD81
:100D2000D1E9012ED1E9036CD1E9057142EA0E0245
:100D300046EA0C0632433A430A4301682A432243F7
:100D40001A436FF30E010A430260E7E7426943F674
:100D5000FE739A4342EA410141610020704770B539
:100D600091E81C00C9686FF01F0506691A4305EB7E
:100D7000441444EA41210A4306EA45431A43026106
:100D8000002070BD2DE9F04F8B8A6FF00F05264CC7
:100D90004FF07F4BD1F80C9004EB03536FF0FF043E
:100DA0004FEA042A1AB386684FEA09321F4FA2F5A8
:100DB00080521A433E4032438260D1E900278E6858
:100DC000521E05EB07150F8A2A43C56804EB06245B
:100DD0000E7E0AEB074322431A430BEB06610A43DC
:100DE00005F070431A43C2600020BDE8F08F91E81F
:100DF00004110F4E521E0F8A05EB08152A4304EB0F
:100E00000C2C06EB09350E7E42EA0C022A4385685B
:100E10000AEB074422431A430BEB06610A4305F031
:100E200070431A438260DFE70000F0FFFF0F0FFFFF
:100E300000F0FFFF7CB52BF04CFC01202DF058FB9F
:100E4000234C206201202DF053FB04F10801606265
:100E5000012523480023CDE9005180221DA12DF05A
:100E60009BFE204C00231A4980220C31206022482E
:100E7000CDE900511CA12DF08FFE154900236060C3
:100E8000802210312148CDE900511CA12DF084FEB3
:100E90000F4A0921A060ED02143221480023CDE958
:100EA00000121BA12A462DF077FE094A022120617B
:100EB000002318321E48CDE900121AA12A462DF04F
:100EC0006BFEA06114F060FFBDE87C402DF0F4B82B
:100ED000180000206C65645F5461736B00000000B3
:100EE000056C0190440D002073656E645F7573613D
:100EF00072745F5461736B004DAC029072656376DF
:100F00005F75736172745F5461736B002D9602900C
:100F10006465766963655F74657374696E67000004
:100F2000EDC300906C76676C5F5461736B000000DA
:100F3000297B02902DE9F84F044601F0FBFA00905E
:100F40003CB194F83500022806D08021616500206C
:100F5000E4E00120BDE8F88FC74DC74EC6491835FB
:100F600020683036DFF81483DFF814938842DFF806
:100F700014A3DFF814B32ED0A8422CD0B0422AD04C
:100F8000404528D0484526D0504524D0584522D049
:100F9000BD4A183290421ED0BC4A90421BD0BB4A78
:100FA0001832904217D0B94A3032904213D0B74A23
:100FB000483290420FD0B54A603290420BD0B34ACB
:100FC0007832904207D0B14A9032904203D0AF4A73
:100FD000A832904209D1026822F01E020260206805
:100FE000426922F08002426103E0026822F00E02B0
:100FF000026027688F4238464DD0A8424BD0B0429D
:1010000049D0404547D0484545D0504543D0584544
:1010100041D09D4A183290423DD09C4A90423AD0ED
:101020009A4A1832904236D0984A3032904232D0A2
:10103000964A483290422ED0944A603290422AD04A
:10104000924A7832904226D0904A9032904222D0F2
:101050008E4AA83290421ED08D4A90421BD08C4AB4
:101060001432904217D08A4A2832904213D0884ACC
:101070003C3290420FD0864A503290420BD0844A84
:101080006432904207D0824A7832904203D0804A3C
:101090008C32974204D1206E026822F48072026082
:1010A00075492068884228D0A84226D0B04224D072
:1010B000404522D0484520D050451ED058451CD030
:1010C00071491831884218D07049884215D06F494B
:1010D0001831884211D06D49303188420DD06B49AA
:1010E0004831884209D069496031884205D0674952
:1010F0007831884201D065499031016821F00101C1
:1011000001600EE001F016FA0099401A052808D98E
:10111000202262650321002084F8351084F8340011
:1011200017E73868C007EDD1534A01212068904283
:101130002ED0A8422CD0B0422AD0404528D04845D5
:1011400026D0504524D0584522D04F4B18339842D2
:101150001ED04E4B98421BD04C4B1833984217D0A0
:101160004A4B3033984213D0484B483398420FD003
:10117000464B603398420BD0444B7833984207D0AB
:10118000424B9033984203D0404BA833984208D149
:1011900094F85C703F23A06D07F01F07BB4083608D
:1011A00007E094F85C30A06D03F01F0301FA03F32D
:1011B0004360206890424DD0A8424BD0B04249D005
:1011C000404547D0484545D0504543D0584541D08B
:1011D0002D4A183290423DD02C4A90423AD02B4AA8
:1011E0001832904236D0294A3032904232D0274AC3
:1011F000483290422ED0254A603290422AD0234A6B
:101200007832904226D0214A9032904222D01F4A12
:10121000A83290421ED01E4A90421BD01C4A143263
:10122000904217D01A4A2832904213D0184A3C32C2
:1012300090420FD0164A503290420BD0144A64327A
:10124000904207D0124A7832904203D0104A8C3232
:1012500090420BD1D4E919024260E06E30B10268CD
:1012600022F480720260D4E91C024260002084F8FB
:10127000351084F834006DE610000240580002403A
:101280007000024088000240A000024010040240AA
:10129000085402582DE9F05F28B190F83510022962
:1012A00004D0802141650120BDE8F09F904C904B17
:1012B0000168183C18338E4ADFF83C92A1428D4CED
:1012C000DFF838E28E4FDFF83CB2DFF83CA28F4DFA
:1012D0008F4E31D091422FD099422DD0A1422BD0A8
:1012E000494529D0714527D0B94225D0DFF810C231
:1012F0000CF1180C61451FD0DFF808C2ACF1600C8E
:10130000614519D0DFF8FCC1ACF1480C614513D040
:10131000DFF8F0C1ACF1300C61450DD0DFF8E4C16D
:10132000ACF1180C614507D0594505D0514503D0A3
:10133000A94201D0B1422CD1DFF8B4C14FF004086A
:1013400080F83580ACF1180C61451DD091421BD05E
:10135000994219D0A14217D0494515D0714513D0F3
:10136000B94211D06648183081420DD065486038C6
:10137000814209D063484838814205D061483038FD
:10138000814201D05F481838086820F001000860E9
:10139000ABE0D1F800C02CF00E08DFF854C1C1F862
:1013A0000080ACF1180C0168614527D0914225D02E
:1013B000994223D0A14221D049451FD071451DD06B
:1013C000B9421BD0DFF838C10CF1180C614515D0BB
:1013D000DFF830C1ACF1600C61450FD0DFF824C1FB
:1013E000ACF1480C614509D0DFF818C1ACF1300C04
:1013F000614503D0DFF80CC1ACF1180CD1F800C086
:101400002CF0010CC1F800C0DFF8E4804FF0010CB3
:101410000168A8F11808414546D0914244D099424C
:1014200042D0A14240D049453ED071453CD0B9425E
:101430003AD0334A1832914236D0324A603A914219
:1014400032D0304A483A91422ED02E4A303A914218
:101450002AD02C4A183A914226D0594524D05145D9
:1014600022D0A94220D0B1421ED02A4A91421BD09C
:10147000284A1432914217D0264A2832914213D07A
:10148000244A3C3291420FD0224A503291420BD032
:10149000204A6432914207D01E4A7832914203D0EA
:1014A0001C4A8C32914218D1016E0A6822F4807273
:1014B0000A6090F85C20816D02F01F020CFA02F2C3
:1014C0004A60D0E919124A60C16E31B10A6822F44B
:1014D00080720A60D0E91C124A600022016D80F817
:1014E00035C080F8342001B188470020DCE60000D8
:1014F000280002405800024070000240880002406C
:10150000A00002407004024088040240A00402408F
:10151000B8040240085402582DE9F05F04007DD061
:101520006D4A6D4B6C491832206830336B4E6C4FEE
:101530008842DFF8B0C1DFF8B081DFF8B091DFF8A2
:10154000B0A1DFF8B0B1DFF8B0E121D090421FD0F8
:1015500098421DD0B0421BD0B84219D0604517D078
:10156000404515D0484513D0504511D058450FD0AF
:1015700070450DD0604D1835A84209D05E4D30350C
:10158000A84205D05C4D4835A84201D05A4D60357F
:10159000056825F00105056020680025884227D0F0
:1015A000904225D0984223D0B04221D0B8421FD0DB
:1015B00060451DD040451BD0484519D0504517D037
:1015C000584515D0704513D04B49183188420FD07B
:1015D0004949303188420BD047494831884207D0C9
:1015E00045496031884203D043497831884218D157
:1015F0002121056020684560206885602068C560FD
:1016000020680561206841612046FFF75BFA94F885
:101610005C203F2102F01F02914000E059E0816010
:1016200031E0364988421BD034491431884217D002
:1016300032492831884213D030493C3188420FD09A
:101640002E49503188420BD02C496431884207D052
:101650002A497831884203D028498C31884238D1D0
:10166000056020684560206885602068C560206846
:1016700005612046FFF726FA94F85C20012102F06C
:101680001F02914041602046FFF776FA206E18B1A4
:101690000560D4E9190141606068401E072807D839
:1016A0002046FFF7B7FAE06E0560D4E91C014160FF
:1016B000E56625676567E56325646564A564E5649B
:1016C0002565656584F83550002084F83450BDE800
:1016D000F09F0120FBE7000010000240580002408C
:1016E0007000024088000240A0000240B8000240A2
:1016F00010040240280402404004024008540258EA
:101700002DE9FC5F0446F74E0020DFF8D8830090F7
:101710004FF41652F44808F11808A56DDFF8C49389
:10172000DFF8C0A3016809F1300920680AF1480A0E
:10173000B1FBF2F1B04201912F68D5F800C0DFF89B
:10174000ACB335D04146884232D0484530D05045C0
:101750002ED058452CD0E5491831884228D0E3498D
:101760003031884224D0E1494831884220D0E049D4
:1017700088421DD0DE491831884219D0DC49303109
:10178000884215D0DA494831884211D0DFF860E349
:101790000EF1600E70450BD0D54A7832904207D0DA
:1017A000D34B9033984203D0D149A83188427DD1A0
:1017B00094F85C20082102F01F0201FA02F23A427A
:1017C0004AD0B04232D0404530D048452ED0504566
:1017D0002CD058452AD0C54A1832904226D0C34A48
:1017E0003032904222D0C14A483290421ED0C04A84
:1017F00090421BD0BE4A1832904217D0BC4A3032B9
:10180000904213D0BA4A483290420FD0B84A603260
:1018100090420BD0B64A7832904207D0B44A903208
:10182000904203D0B24AA832904203D1026802F03B
:10183000040202E0026802F008026AB1026822F0C3
:101840000402026094F85C0000F01F008140A9606F
:10185000606D40F00100606594F85C00012100F0CB
:101860001F008140394240D02068B04234D040450A
:1018700032D0484530D050452ED058452CD09B4AC8
:101880001832904228D0994A3032904224D0974A58
:101890004832904220D0964A90421DD0944A183245
:1018A000904219D0924A3032904200E0AFE113D01A
:1018B0008F4A483290420FD08D4A603290420BD00E
:1018C0008B4A7832904207D0894A9032904203D0B6
:1018D000874AA83290427DD1406910F0800F04D031
:1018E000A960606D40F00200606594F85C0004211E
:1018F00000F01F00814039423ED02068B04232D013
:10190000404530D048452ED050452CD058452AD09F
:10191000764A1832904226D0744A3032904222D011
:10192000724A483290421ED0714A90421BD0704A8F
:101930001832904217D06E4A3032904213D06C4A1F
:10194000483290420FD06A4A603290420BD0684AC7
:101950007832904207D0664A9032904203D0644A6F
:10196000A83290424ED1006810F0020F04D0A96056
:10197000606D40F00400606594F85C00102100F098
:101980001F008140394258D02068B04234D04045D1
:1019900032D0484530D050452ED058452CD0534AEF
:1019A0001832904228D0514A3032904224D04F4AC7
:1019B0004832904220D04E4A90421DD04C4A1832B4
:1019C000904219D04A4A3032904215D0484A4832A3
:1019D000904200E014E00FD0454A603290420BD0B4
:1019E000434A7832904207D0414A9032904203D025
:1019F0003F4AA832904207D1006800F0080006E094
:101A0000006872E70068B7E7006800F00400A0B162
:101A1000A96020680168490304D50068000308D55F
:101A2000A16C07E00168C90503D4016821F0080131
:101A30000160216C09B12046884794F85C002021A0
:101A400000F01F008140394279D02068B04232D086
:101A5000404530D048452ED050452CD058452AD04E
:101A6000224A1832904226D0204A3032904222D068
:101A70001E4A483290421ED01D4A90421BD01C4A3A
:101A80001832904217D01A4A3032904213D0184A76
:101A9000483290420FD0164A603290420BD0144A1E
:101AA0007832904207D0124A9032904203D0104AC6
:101AB000A832904203D1006800F0100002E00068F4
:101AC00000F00200B0B3A96094F835000428206843
:101AD00001680FD049037ED5006800032BD4616CE8
:101AE0002AE0000010000240580000207000024070
:101AF0001004024021F0160101602068416921F0C4
:101B000080014161206C08B9A06C20B12068016897
:101B100021F00801016094F85C303F21012003F0BE
:101B20001F0300229940A96084F8350084F834200E
:101B3000216D65E003E0E16B09B120468847606DE7
:101B400000287DD0606DC00759D02068042184F83A
:101B50003510B0422BD0404529D0484527D05045BC
:101B600025D0584523D09D49884220D09B49183123
:101B700088421CD099493031884218D0984988420F
:101B800015D097491831884211D095493031884293
:101B90000DD093494831884209D09149603188423B
:101BA00005D08F497831884201D08D499031016844
:101BB00021F00101016020680099019A491C0091FF
:101BC000914202D80168C907F6D10068C00710D059
:101BD00003200FE0FFE70168C905ACD403680121C9
:101BE000002223F01003036084F8351084F83420B9
:101BF000A1E7012084F83500002084F83400E16C6E
:101C000000291DD002B02046BDE8F05F08477549A5
:101C100088421DD073491431884219D07149283146
:101C2000884215D06F493C31884211D06D495031FE
:101C300088420DD06B496431884209D0694900E07F
:101C400084E07831884203D066498C3188427DD166
:101C500094F85C800427016808F01F0807FA08F769
:101C600017EA0C0F009746D04F0744D500980F0491
:101C7000686003D5C8033CD4A16CC1E7880638D49A
:101C80002068B0422DD055496039884229D0484556
:101C900027D0504525D0584523D05049884220D0E0
:101CA0004E49183188421CD04C493031884218D0F6
:101CB0004B49884215D04A491831884211D04849C9
:101CC000303188420DD046494831884209D07045AC
:101CD00007D0904205D0984203D04149A8318842AC
:101CE00003D1016821F0080102E0016821F004013C
:101CF0000160216C84E7022707FA08F717EA0C0F46
:101D000000974ED08F074CD500980F04686003D51C
:101D1000C80344D4616C73E7880640D42068B0429D
:101D20002FD02E49603988422BD0484529D05045C4
:101D300027D0584525D02949884222D02749183133
:101D400088421ED025493031884200E044E018D056
:101D50002349884215D022491831884211D02049A0
:101D6000303188420DD01E494831884209D0704533
:101D700007D0904205D0984203D01949A831884233
:101D800003D1016821F0140102E0016821F00A0189
:101D90000160012184F83510002084F83400E16BE3
:101DA0002EE7082202FA08F212EA0C0F14D00907F3
:101DB00012D5016821F00E01016094F85C10012039
:101DC000002201F01F0100FA01F16960606584F8EA
:101DD000350084F8342012E7BDE8FC9F88000240FB
:101DE00010040240085402582DE9F05F044600F048
:101DF000A1FB002C07467DD0E34E022120684FF066
:101E00000308DFF888934FF00005DFF884A3B042A1
:101E1000DFF880B334D0DC4A1832904230D04845E5
:101E20002ED050452CD058452AD0DA4A183290424C
:101E300026D0D84A3032904222D0D64A48329042F8
:101E40001ED0D54A90421BD0D34A1832904217D0A8
:101E5000D14A3032904213D0CF4A483290420FD00C
:101E6000CD4A603290420BD0CB4A7832904207D0B4
:101E7000C94A9032904203D0C74AA83290427DD1DD
:101E800084F83510B04284F834502ED0BE49183151
:101E900088422AD0484528D0504526D0584524D0DD
:101EA000BC491831884220D0BA49303188421CD010
:101EB000B8494831884218D0B749884215D0B64948
:101EC0001831884211D0B449303188420DD0B2491E
:101ED0004831884209D0B0496031884205D0AE49C6
:101EE0007831884201D0AC499031016821F001017C
:101EF000016008E027E100BF00F01CFBC01B0528C3
:101F000001D920211CE120680068C007F4D104F148
:101F100008002168D4E9053C8E4685C8096810434D
:101F2000D4E907281F43636A38439C4F40EA0C00FA
:101F30001043394040EA0800042B40EA010003D175
:101F4000D4E90B1211430843954909686FF30F0157
:101F5000B1F1005F0FD36168A1F12902052A08D908
:101F6000163A032A05D9083A012A02D94F3903291A
:101F700001D840F48010CEF8000000E023E0206893
:101F8000676A4069042F20F0070047EA00070DD177
:101F9000D4E90A01074349B12046FEF775FE28B18E
:101FA00040206065012184F83510CCE0206847614D
:101FB0002046FEF787FD94F85C203F2102F01F02C7
:101FC0009140816054E0774A90421BD0754B1433A6
:101FD000984217D0734B2833984213D0714B3C333F
:101FE00098420FD06F4B503398420BD06D4B6433F7
:101FF000984207D06B4B7833984203D0694B8C33AF
:1020000098427DD184F8351084F83450664B0168CD
:10201000A26801EA030E402A73D0802A72D00022FF
:10202000D4E90378D4E9053142EAD70242EAD80874
:102030005C4AD4E9077C48EAD30848EAD10141EA7E
:10204000D701524241EA1C11142341EA0E010160FA
:1020500020681044B0FBF3F08000E0652046FEF7F6
:1020600031FD94F85C20012102F01F029140416093
:102070002068B04257D044491831884253D048456F
:1020800051D050454FD058454DD042491831884223
:1020900049D040493031884245D03E494831884294
:1020A00041D03D4988423ED03B49183188423AD020
:1020B00039493031884236D037494831884232D0A8
:1020C0003549603188422ED03349783188422AD050
:1020D00031499031884226D02F49A831884222D0F8
:1020E000304988421FD02F49143188421BD02D49D6
:1020F0002831884217D02B493C31884213D002E066
:102100001DE017E018E02749503188420BD02549DF
:102110006431884207D023497831884203D021496D
:102120008C31884229D12046FEF726FDA068802800
:102130000CD00CE0102273E74FF4804270E740218E
:10214000616584F835800120BDE8F09F6560216EEF
:1021500020790860D4E9190141606068401E0728B1
:1021600008D82046FEF756FDE06E0560D4E91C0154
:10217000416002E0E566256765670120656584F8D2
:1021800035000020E0E7000010000240400002405F
:102190005800024070000240100402403F8010FED0
:1021A0000010005C085402580F00FEFF70B5044692
:1021B00000F0C0F90546601C02D0044800780444D1
:1021C00000F0B8F9401BA042FAD370BD4C000020CB
:1021D000F0B587B014216846FEF726F93948016842
:1021E00041F480510160006800F48050059035484A
:1021F0000C30016841F004010160016801F0040144
:102200000591016841F008010160016801F00801D1
:102210000591016841F010010160016801F01001B1
:102220000591016841F020010160016801F0200181
:102230000591016841F040010160016801F0400131
:102240000591016841F080010160006802250026C7
:10225000694600F08000059003274FF63F000C24EC
:1022600004948DE8E100184800F03AF88DE8F00099
:1022700016486946049400F033F848F23710049485
:102280008DE8E1001248694600F02AF84FF68370A5
:1022900004948DE8E1000F48694600F021F84CF203
:1022A000037004948DE8E1000B48694600F018F8CB
:1022B000012004948DE8E1000848694600F010F818
:1022C00007B0F0BDD444025800140258001C025854
:1022D0000018025800100258000C0258000802585A
:1022E0002DE9F84F03247D4D00234FF001094FF0F5
:1022F000B04B4FF00F0AE9E009FA03F73A4076D005
:102300000E7906F00306012E01D0022E18D1D0F866
:1023100008C04FEA430ECE6804FA0EF82CEA080C07
:1023200006FA0EF646EA0C068660D0F804C00E796E
:102330002CEA070CC6F300169E4046EA0C064660DF
:102340000E79F643B6070BD0C6684FEA43088F688C
:1023500004FA08FC26EA0C0607FA08F73743C760B8
:102360000E7906F00306022E12D1DE080F694FEA3D
:10237000437C00EB8606B646366A4FEADC6C0AFA06
:102380000CF807FA0CF726EA08063743CEF8207057
:102390000F7906684FEA430807F0030704FA08FCC0
:1023A00007FA08F726EA0C06374307604E6816F46A
:1023B000403F1CD04A4E376847F002073760366806
:1023C0009F0706F00206009623F0030606F1B046CA
:1023D000B6463F0FD6F80864DFF808810AFA07FC12
:1023E000404526EA0C0603D14FF0000C41E06CE0BA
:1023F000DFF8F4C0604502D14FF0010C39E0DFF89E
:10240000ECC0604502D14FF0020C32E0DFF8E0C0D2
:10241000604502D14FF0030C2BE0DFF8D8C06045D7
:1024200002D14FF0040C24E0DFF8CCC0604502D1AB
:102430004FF0050C1DE0DFF8C4C0604502D14FF03D
:10244000060C16E0DFF8B8C0604502D14FF0070C6B
:102450000FE0DFF8B0C0604502D14FF0080C08E093
:10246000DFF8A4C0604502D14FF0090C01E04FF045
:102470000A0C0CFA07FC4CEA060CCEF808C44F68AC
:10248000DBF80060FF0226EA020600D516435F462D
:10249000CBF80060D1F804C0DBF804605FEA8C2C54
:1024A00026EA020600D516437E606E684F6826EA6B
:1024B0000206BF0300D516436E602E684F6826EAF9
:1024C0000206FF0300D516432E605B1C0A6832FA31
:1024D00003F67FF411AFBDE8F88F000080000058CC
:1024E000F444025800000258000402580008025840
:1024F000000C02580010025800140258001802582C
:10250000001C02580020025800240258426921EAA7
:1025100002030A4043EA0241816170470AB18161C6
:1025200070470904FBE7000001480068000C704791
:102530000010005C01488068704700004C000020DB
:102540000248816802781144816070474C00002085
:10255000032010B500F096F801F0DEF90F4A10499B
:1025600014681368C4F3032203F00F038A5CC95C88
:1025700002F01F0201F01F01D0400A4A20FA01F1C7
:102580001160094908600F2000F010F808B101201F
:1025900010BD00F02BF8002010BD000018440258B8
:1025A000700403905C0000205800002070B50D4DB1
:1025B00004462878A0B14FF47A71B1FBF0F00A49D3
:1025C0000968B1FBF0F002F0DAFE48B9102C07D22E
:1025D00000222146501E00F035F800206C6070BDCE
:1025E000012070BD4C00002058000020054808B5AF
:1025F000016841F002010160006800F002000090F3
:1026000008BD0000F444025800280DDB410900F029
:102610001F028900012001F1E0219040C1F88001F2
:10262000BFF34F8FBFF36F8F7047002809DB41095D
:1026300000F01F028900012001F1E0219040C1F863
:10264000000170470E4BF0B41B680D46C3F3022324
:10265000C3F10706042E00D90426191D072901D24B
:10266000002300E0DB1E012404FA06F19C40491E11
:102670002940641E994014402143F0BC05F0D0BBB2
:102680000CED00E0064900F0070210B54FF6FF041C
:102690000868044B204040EA02201843086010BD3F
:1026A0000CED00E00000FA05134970B50A68D2434A
:1026B000520705D5096801F00701814213D118E0DE
:1026C0000A6822F0070202430A60FFF733FF0A4D4F
:1026D0004FF47A760446083D07E000BFFFF72AFF73
:1026E000001BB04201D9012070BD2868C04380049E
:1026F000F4D4002070BD00000C48025810B501F061
:10270000C5F805490968054AC1F30211515C01F099
:102710001F01C84010BD00002044025870040390FF
:102720004A4930B5494C0B1D0A680C3409681D68CC
:10273000246802F0030305F00102C1F30511C4F39C
:10274000CC04002914FB02F200EE102AF8EE400A35
:1027500076D0414A9FED3E1ADFED3E1AB7EE000AF1
:1027600023B1012B5AD0022B18D15CE0374C283C06
:1027700023689B0612D5394B246801EE901A116824
:10278000C4F3C104F8EE612AE34001EE903AC1F3CC
:102790000801F8EE611A81EEA22A07E002EE101A93
:1027A0001168F8EE422A81EEA22A45E001EE901A65
:1027B0001168F8EE611A40EE811A71EE800A62EE3D
:1027C000200AC1F3462101EE101AB8EE411A31EE8B
:1027D000001AC0EE811ABCEEE11A80ED001A1168F1
:1027E000C1F3064101EE101AB8EE411A31EE001A9B
:1027F000C0EE811ABCEEE11A80ED011A1168C1F336
:10280000066101EE101AB8EE411A31EE000A80EEB0
:10281000801ABCEEC10A80ED020A30BD01EE901AAA
:10282000DFED0F2A03E001EE901ADFED0E2A1168AA
:10283000F8EE611A82EEA12AC1F30801B6E7FFE7BC
:10284000002101604160816030BD000028440258D1
:10285000000000390024744C304402580090D0032A
:102860000024744A20BCBE4B494930B5484C0B1D6E
:102870000A68143409681D68246802F00303C5F36C
:102880000012C1F30531C4F3CC04002914FB02F299
:1028900000EE102AF8EE400A75D03F4A9FED3D1A2F
:1028A000B7EE000A6BB1DFED3D1A012B01D0022B10
:1028B00064D002EE101A1168F8EE422A81EEA22AC4
:1028C00021E0334C283C23689B0612D5344B246806
:1028D00001EE901A1168C4F3C104F8EE612AE340D6
:1028E00001EE903AC1F30801F8EE611A81EEA22AD6
:1028F0000BE001EE901ADFED2B2A00BFF8EE611A13
:10290000116882EEA12AC1F3080101EE901A116844
:10291000F8EE611A40EE811A71EE800A62EE200A2A
:10292000C1F3462101EE101AB8EE411A31EE001A39
:10293000C0EE811ABCEEE11A80ED001A1168C1F3F5
:10294000064101EE101AB8EE411A31EE001AC0EE3F
:10295000811ABCEEE11A80ED011A1168C1F306611B
:1029600001EE101AB8EE411A31EE000A80EE801A1C
:10297000BCEEC10A80ED020A30BD04E001EE901AFF
:10298000DFED092ABAE70021016041608160F3E7C9
:102990002844025800000039384402580024744A80
:1029A0000090D0030024744C20BCBE4B494930B584
:1029B000484C0B1D0A681C3409681D68246802F025
:1029C0000303C5F30022C1F30551C4F3CC0400296D
:1029D00014FB02F200EE102AF8EE400A75D03F4ACE
:1029E0009FED3D1AB7EE000A6BB1DFED3D1A012BEA
:1029F00001D0022B64D002EE101A1168F8EE422AC0
:102A000081EEA22A21E0334C283C23689B0612D594
:102A1000344B246801EE901A1168C4F3C104F8EE37
:102A2000612AE34001EE903AC1F30801F8EE611A21
:102A300081EEA22A0BE001EE901ADFED2B2A00BFF7
:102A4000F8EE611A116882EEA12AC1F3080101EEC5
:102A5000901A1168F8EE611A40EE811A71EE800A40
:102A600062EE200AC1F3462101EE101AB8EE411AB7
:102A700031EE001AC0EE811ABCEEE11A80ED001AA8
:102A80001168C1F3064101EE101AB8EE411A31EE99
:102A9000001AC0EE811ABCEEE11A80ED011A11682D
:102AA000C1F3066101EE101AB8EE411A31EE000AC8
:102AB00080EE801ABCEEC10A80ED020A30BD04E04F
:102AC00001EE901ADFED092ABAE7002101604160AA
:102AD0008160F3E72844025800000039404402585E
:102AE0000024744A0090D0030024744C20BCBE4BD8
:102AF0002DE9F04F944A4FF48079DFF84882484539
:102B0000924B89B0924EA8F1040592494FF080573C
:102B10004FEA22144FF0005C2ED1D8F8000000F0EC
:102B20000700052824D2DFE800F09BB58425AA0021
:102B300003A8FFF7F5FD049809B0BDE8F08F6846DB
:102B4000FFF792FE0098F7E706A8FFF72FFF069819
:102B5000F2E70868C0F3C10022FA00F0ECE70A6867
:102B6000D2057CD5B8427AD12046E5E71846E3E79E
:102B70000020E1E73046DFE7B0F5007F1AD0DFF84C
:102B8000D891B0F5806F26D0B0F5006F37D04FF4F4
:102B9000805A50454FF4804B4FD1D8F8000000F4D4
:102BA000E040B0F5005F44D03DDC002858D05045EF
:102BB000DED16FE0D8F8000000F4E070802838D053
:102BC00004DC00284CD04028D2D163E0C028D1D00A
:102BD0004845CDD153E0D9F8000000F46000B0F5CD
:102BE000800F26D004DCD8B3B0F5001FC0D151E06F
:102BF000B0F5C00FBED0B0F5000FB9D13FE0D9F8A5
:102C0000000000F0E060B0F1007F12D004DC38B3C7
:102C1000B0F1807FACD13DE0B0F1407FAAD0B0F1FF
:102C2000806FA5D12BE0B0F5405FA3D058459FD170
:102C300025E0086880009BD586E7B0F5002F4FF4AB
:102C4000803612D0B04237D1286810F4803075D069
:102C5000B0428DD1086800018AD5684601E025E0C0
:102C60006CE0FFF701FE029866E7D9F8000010F467
:102C700040300FD0B04211D0B0F5003F98D1286855
:102C80000D6800F040506D077FF569AF00287FF4B4
:102C900066AF5EE708680001CDD550E708688000A0
:102CA000C9D506A8FFF782FE089845E70968890399
:102CB000C1D5604588D159E758452BD1D9F80000D6
:102CC00000F0E040B0F1405F1CD00CDC90B1B842A5
:102CD0002CD060458AD108688000ACD506A8FFF7E3
:102CE00065FE079828E7B0F1804F0FD0B0F1A04FF4
:102CF00090D11FE0FFF702FD1EE76846FFF7B4FD25
:102D0000019819E70868400795D522E70868C005CB
:102D100091D529E7B0F5004F89D1D8F8000010F01F
:102D2000405007D0B84209D0604592D108680001F0
:102D3000E3D41DE708688003FBD517E70868800126
:102D4000F7D5F5E6504402580090D00340787D0155
:102D50000080BB0000440258584402582DE9FC5F33
:102D6000044650F8241B002500902E460801FE4F13
:102D7000DFF8F8831DD5606E50B1B0F5801F0CD020
:102D8000B0F5001F0ED0B0F5401F1DD001250FE09B
:102D9000386840F40030386016E00221201D03F04E
:102DA000D9FA03E00098022103F064FB05000BD080
:102DB0002E462088C00523D5606D05281ED2DFE889
:102DC00000F00C11161B1B00626ED8F8001021F4E5
:102DD00040111143C8F80010EBE7386840F40030A8
:102DE000386009E00021201D03F0B4FA03E00098E8
:102DF000002103F03FFB05466DB100E001252E46A2
:102E00002088800528D5A06D80281ED00CDC90B1CC
:102E100040280ED114E0626DD8F8001021F00701AF
:102E20001143C8F80010EBE7C02813D0B0F5807F3D
:102E300010D001250FE0386840F40030386009E018
:102E40000021201D03F086FA03E00098002103F022
:102E500011FB054695B12E462088DFF810934005FA
:102E600009F108092CD5D4F8A400B0F5800F20D0C2
:102E70000DDCA0B1B0F5001F0FD115E0A26DD8F8A0
:102E8000001021F4E0711143C8F80010E4E7B0F538
:102E9000C00F13D0B0F5000F10D001250FE0386837
:102EA00040F40030386009E00021201D03F052FAA0
:102EB00003E00098002103F0DDFA054675B12E46C7
:102EC000208800052DD5D4F8A800B0F1007F21D0CE
:102ED0000EDCA8B1B0F1807F10D116E0D4F8A420A8
:102EE000D9F8001021F460011143C9F80010E7E798
:102EF000B0F1407F13D0B0F1806F10D001250FE00A
:102F0000386840F40030386009E00021201D03F0EB
:102F100021FA03E00098002103F0ACFA05466DB1F8
:102F20002E46206880011FD5A06CD8B110280FD084
:102F3000202812D0302815D0012514E0D4F8A8207C
:102F4000D9F8001021F0E0611143C9F80010E8E75A
:102F5000386840F40030386004E00221201D03F09E
:102F6000F9F905466DB12E462088C0042BD5E06DD9
:102F7000B0F5005F20D00DDCA0B1B0F5805F0FD1BF
:102F800015E07A48A26C001F016821F0300111435E
:102F90000160E9E7B0F5405F13D0B0F5804F10D085
:102FA00001250FE0386840F40030386009E0002166
:102FB000201D03F0CFF903E00098002103F05AFA36
:102FC000054685B12E462088800429D5206EB0F5AF
:102FD000403F23D010DC08B3B0F5803F14D0B0F5EB
:102FE000003F0FD115E0E26DD8F8001021F4E04168
:102FF0001143C8F80010E6E7B0F5802F0ED0B0F509
:10300000A02F0BD001250AE00121201D03F0A2F919
:1030100003E00098012103F02DFA05468DB12E46FC
:10302000208840042AD5D4F8AC00B0F1405F23D00A
:1030300010DC08B3B0F1805F14D0B0F1005F0FD1A5
:1030400015E0226ED8F8001021F4E0211143C8F8F1
:103050000010E5E7B0F1804F0ED0B0F1A04F0BD0DB
:1030600001250AE00121201D03F074F903E0009816
:10307000012103F0FFF905466DB12E4620880004BA
:103080001FD5E06ED8B1B0F1805F0ED0B0F1005F17
:1030900010D0012514E0D4F8AC20D9F8001021F0AC
:1030A000E0411143C9F80010E8E7386840F4003007
:1030B000386004E00121201D03F04CF905466DB194
:1030C0002E462068C0011ED5606CD0B101280ED0FC
:1030D000022811D0032814D0012513E0E26ED8F89D
:1030E000001021F040511143C8F80010E9E738689A
:1030F00040F40030386004E00221201D03F02AF97A
:10310000054685B12E462068DFF85CB04002ABF181
:103110001C0B57D51648016841F480710160FFF718
:1031200009FA82460EE01148626C001F016821F026
:10313000030111430160E6E7FFF7FCF9A0EB0A0089
:1031400064283DD80A480068C005F5D57DBBDFF886
:103150001CA0B4F8B0200AF1200ADAF8001002F43A
:10316000407001F4407105E02C440258504402586C
:1031700000480258814211D0DAF80010DAF8002035
:1031800021F4407142F48032CAF80020DAF80020BD
:1031900022F48032CAF80020CAF80010D4F8B00037
:1031A000B0F5807F21D1FFF7C5F9019019E008E063
:1031B000FFF7C0F90199411A41F28830814210D9D4
:1031C00003252E462078DFF844A4C0073DD0A06F29
:1031D000182838D026DC80B3082829D0102825D11B
:1031E0002CE0DAF800008007E2D5D4F8B010C1F383
:1031F0000120032858460DD0016821F47C5101605C
:10320000B4F8B020DAF80010C2F30B021143CAF888
:103210000010D7E7FE4A036802EA111223F47C513A
:103220001143ECE720280ED028280CD001250BE014
:103230000121201D03F08EF804E004E00098012134
:1032400003F018F905465DB12E46207880071ED59B
:10325000606F062819D2DFE800F0160C111616165A
:10326000A26FDAF8001021F038011143CAF80010FB
:10327000EBE70121201D03F06DF803E00098012128
:1032800003F0F8F8054675B100E001252E462078D8
:1032900040071FD5D4F89000062819D2DFE800F0C7
:1032A000160C11161616626FDAF8001021F00701DD
:1032B0001143CAF80010EAE70121201D03F04AF883
:1032C00003E00098012103F0D5F805469DB100E028
:1032D00001252E46207880062BD5D4F88C00B0F13D
:1032E000405F24D011DC10B3B0F1805F15D0B0F195
:1032F000005F10D116E0D4F89020D9F8001021F02A
:1033000007011143C9F80010E4E7B0F1804F0ED077
:10331000B0F1A04F0BD001250AE00021201D03F0E1
:1033200019F803E00098022103F0A4F805468DB1D6
:103330002E46207840062BD5D4F89800B0F5406F83
:1033400024D011DC10B3B0F5806F15D0B0F5006F4C
:1033500010D116E0D4F88C20DAF8001021F0E0410A
:103360001143CAF80010E4E7B0F5805F0ED0B0F565
:10337000A05F0BD001250AE00021201D02F0EAFF2A
:1033800003E00098022103F075F805468DB12E4642
:10339000207800062BD5D4F89C00B0F5C04F24D07F
:1033A00011DC10B3B0F5005F15D0B0F5804F10D12F
:1033B00016E0D4F89820D9F8001021F4E051114318
:1033C000C9F80010E4E7B0F5004F0ED0B0F5204F7B
:1033D0000BD001250AE00021201D02F0BBFF03E015
:1033E0000098022103F046F805464DB12E4620789C
:1033F00000071ED5D4F88000B0F5805F0AD00FE03A
:10340000D4F89C20D9F8001021F460411143C9F888
:103410000010ECE70098022103F02CF800B101261F
:10342000D4F88020DAF8001021F440511143CAF892
:1034300000102078C00613D5D4F89400B0F5807F32
:1034400005D10098022103F015F800B10126D4F847
:103450009420D9F8001021F440711143C9F80010EC
:103460002068000316D5D4F8A00038B1B0F5803F2D
:1034700009D0B0F5003F0BD001250AE00021201D46
:1034800002F068FF03E00098022102F0F3FF054616
:1034900085B12E462068400322D5D4F88400B0F5CB
:1034A000801F11D0B0F5001F13D0B0F5401F15D00C
:1034B000012514E0D4F8A020D9F8001021F44031FF
:1034C0001143C9F80010E5E7386840F4003038606F
:1034D00004E00098012102F0CDFF054655B12E46CB
:1034E0002068C0031CD5E06C70B1B0F5803F10D0EF
:1034F000012514E0D4F88420DAF8001021F44011FA
:103500001143CAF80010EBE7386840F40030386027
:1035100004E00221201D02F01DFF0546CDB12E461C
:103520002068800005D50098022102F0A3FF00B1B9
:103530000126206880031BD5E06FB8B1B0F5807F0D
:1035400010D0B0F5007F11D0B0F5407F0ED001252E
:103550000DE02E48E26C0838016821F480311143F7
:103560000160DDE7386840F400303860F5B32E467E
:103570002068C00207D5226FD8F8001021F0004162
:103580001143C8F800102068C00008D5D4F8B42052
:10359000DBF8001021F480411143CBF800102068C3
:1035A000800207D5A26ED8F8001021F08071114377
:1035B000C8F80010206840000CD5DBF8001021F49A
:1035C0000041CBF80010DBF80010D4F8B82011430C
:1035D000CBF800102068002807DA0C48226D083864
:1035E000016821F040511143016000E014E02068BF
:1035F000000208D5D4F88820DAF8001021F4400140
:103600001143CAF8001086B1012003E05444025867
:10361000CFFFFF00BDE8FC9FE26FDAF8001021F455
:1036200040711143CAF80010A2E70020EDE7000046
:103630002DE9F05F04000F467ED0DFF83882D8F81D
:10364000000000F00F00B8420CD2D8F8001021F0B2
:103650000F013943C8F80010D8F8000000F00F003F
:10366000B84269D12078844D40070AD5206929687D
:1036700001F07001884204D9296821F070010143EA
:10368000296020787C4E361D00070AD560693168B4
:1036900001F07001884204D9316821F070010143C2
:1036A00031602078C0060AD5A069316801F4E06174
:1036B000884204D9316821F4E06101433160207807
:1036C000DFF8B4B180060BF1080B0CD5E169584660
:1036D000DBF8002002F07002914204D9026822F067
:1036E00070020A430260207880070AD5E0682968E2
:1036F00001F00F01884204D9296821F00F0101432C
:1037000029602078C0073ED05B49A2682868183934
:1037100020F47060104328606068022818D00328E5
:1037200019D00968012819D0490700294ADADFF8B9
:1037300048A1AAF1080A00E044E0DAF8002022F0EB
:1037400007020243CAF80020FEF7F4FE814612E0A9
:1037500009688903E9E709688901E6E7C905E4E73B
:10376000FEF7E8FEA0EB090141F28830814202D960
:103770000320BDE8F09F6168DAF8000000F038002F
:10378000B0EBC10FECD1207880070AD5E06829683A
:1037900001F00F01884204D2296821F00F01014392
:1037A0002960D8F80010404601F00F01B9420BD94A
:1037B000016821F00F0139430160006800F00F003B
:1037C000B84201D00120D4E7207840070AD520690B
:1037D000296801F07001884204D2296821F0700143
:1037E00001432960207800070AD56069316801F03B
:1037F0007001884204D2316821F0700101433160C8
:103800002078C0060AD5A069316801F4E0618842D9
:1038100004D2316821F4E0610143316020788006F0
:103820000CD5E1695846DBF8002002F070029142A5
:1038300004D2026822F070020A43026000F06CF8C1
:103840000E492A682B68C2F3032203F00F038A5C37
:10385000C95C02F01F0201F01F01D040084A20FAA3
:1038600001F111600749086007480068BDE8F05F92
:10387000FEF79CBE002000521844025870040390CA
:103880005C000020580000205000002030B500F0FF
:1038900043F80B4A0B490C4B15681468C5F3032217
:1038A00004F00F048A5C095D02F01F0201F01F01A1
:1038B000D040064A20FA01F119601060084630BD78
:1038C00018440258700403905C0000205800002047
:1038D00000B5FFF7DBFF05490968054AC1F302118E
:1038E000515C01F01F01C84000BD00001C4402589B
:1038F0007004039000B5FFF7C9FF05490968054A40
:10390000C1F30221515C01F01F01C84000BD00005D
:103910001C44025870040390454970B54548096835
:10392000434B103B11F0380208D00111082A03D094
:10393000102A0BD0182A0BD0084670BD19688906CA
:10394000FBD51968C1F3C101C84070BD3A4870BDCC
:103950003749374D18310C1D24350A680968266827
:103960002D6802F0030406F00102C1F30511C5F34E
:10397000CC0515FB02F200EE102AB8EE400AE9B3BE
:103980002F4ADFED2E0AB7EE001A6CB1DFED2D1ACB
:10399000012C01D0022C43D002EE101A1068F8EE70
:1039A000422A81EEA22A1EE01C68A40611D51B68DB
:1039B00001EE901A1168C3F3C103F8EE612AD840F2
:1039C00001EE900AC1F30800F8EE611A81EEA22A16
:1039D0000BE001EE901ADFED1C2A00BFF8EE611A31
:1039E000106882EEA12AC0F3080001EE900AF8EEFA
:1039F000611A40EE201A31EE810A00E015E022EE55
:103A0000000A1068C0F34620401C00EE900AF8EE51
:103A1000600A80EE201ABCEEC10A10EE100A70BDDA
:103A200001EE901ADFED092AD8E7002070BD0000F2
:103A3000104402580090D00340787D010000003906
:103A4000304402580024744A0024744C20BCBE4BFD
:103A50002DE9F05F04007DD0FF4F2078FE4D183730
:103A6000DFF8F493103DC00748D0D9F8000039685A
:103A700000F03800102815D0182803D101F00300F9
:103A800002280FD06068B0F5803F12D010B1B0F5B9
:103A9000A02F18D0286820F480302860286820F4EF
:103AA000802009E02868800328D560680028D2D0EB
:103AB00024E0286840F480302860606888B1FEF710
:103AC00039FD064609E0286840F480202860F0E7C8
:103AD000FEF730FD801B64286FD828688003F7D577
:103AE0000CE0FEF727FD064605E000BFFEF722FDCD
:103AF000801B6428F0D828688003F7D4207841F22E
:103B00000308D54E0C3E800769D5D9F80000396806
:103B100010F038000ED0182801D188070AD0E068CC
:103B200090B3296821F0190101432960FEF702FDD5
:103B3000824631E02868400702D5E06800288AD034
:103B4000E168286820F0190008432860FEF7F2FCBD
:103B5000824607E0DFE000BFFEF7ECFCA0EB0A00C6
:103B60000228B9D828684007F6D500BFFEF7DCFC6C
:103B700040451BD82069402812D0316821F47C319F
:103B800041EA003030602AE018E000BFFEF7D2FCC6
:103B9000A0EB0A0002289FD828684007F6D5E5E781
:103BA000306820F47C3040F40030EBE7207C316852
:103BB00021F0FE4141EA0060E4E70DE1286820F0D1
:103BC00001002860FEF7B6FC824605E0FEF7B2FC75
:103BD000A0EB0A0002288DD828684007F6D4207888
:103BE000C0065DD5D9F80000DFF86CB2396800F086
:103BF0003800ABF1040B082810D0182803D101F0CD
:103C0000030001280AD0E0690028286838D040F075
:103C100080002860FEF78EFC824623E02868C005FD
:103C200023D5E069802876D11FE0206A202821D0A2
:103C3000316821F0F84141EA8060306030E000BF37
:103C400094F82010DBF8002022F07C5242EA016157
:103C5000CBF8001024E000BFFEF76CFCA0EB0A00DC
:103C6000022898D82868C005F6D5FEF75DFC4045C7
:103C7000E6D8DAE7306820F0F84040F08040DCE732
:103C800020F080002860FEF755FC064605E000BFE6
:103C9000FEF750FC801B02289DD82868C005F7D489
:103CA0002078000729D56C48616964300029804676
:103CB000016811D041F001010160FEF73BFC0646AE
:103CC00005E000BFFEF736FC801B0228C9D8D8F8F3
:103CD00000008007F6D510E021F001010160FEF739
:103CE00029FC064605E000BFFEF724FC801B0228E5
:103CF00072D8D8F800008007F6D42078800623D543
:103D0000A0690028286810D040F480502860FEF791
:103D100011FC064605E02CE1FEF70CFC801B022896
:103D20005AD828688004F7D50EE020F48050286027
:103D3000FEF700FC064604E0FEF7FCFB801B0228B1
:103D40004AD828688004F7D4207840074FD5DFF898
:103D50000C81D8F8001041F48071C8F80010FEF70B
:103D6000E9FB064605E000BFFEF7E4FB801B642884
:103D700032D8D8F80000C005F6D5374EA0686036B6
:103D800001280AD008B1052813D0306820F00100BE
:103D90003060306820F0040002E0306840F001003C
:103DA0003060A06841F2883A90B1FEF7C3FB8046CC
:103DB0000AE0306840F004003060EEE7FEF7BAFB3E
:103DC000A0EB0801514507D830688007F6D50EE012
:103DD000FEF7B0FB804607E084E000BFFEF7AAFBD9
:103DE000A0EB080151457DD830688007F6D4606AA1
:103DF000B0B3DFF86480D9F8001008F12008C1F3EF
:103E0000C20103296FD00228286820F08070286042
:103E100003D0FEF78FFB044680E0FEF78BFB0646DF
:103E200005E000BFFEF786FB801B022873D82868D8
:103E30008001F7D4E26A40F2F331386854F8283F41
:103E4000884340EA021018433860217B4FF4FE0C8F
:103E500022894FF0FE4704E01044025800480258FF
:103E600089E0208A4902521E267DA1F5007189B29F
:103E7000401EC2F308021143761E0CEA00400143C3
:103E80003E4807EA066211433C4AC8F8001008326F
:103E9000016821F00101016011684FF6F876236A8C
:103EA000B14341EAC30111600168A26921F00C012C
:103EB000114301600168E26921F0020111430160D0
:103EC000016841F480310160016841F40031016012
:103ED000016841F480210160016841F00101016045
:103EE000286801E017E01DE040F080702860FEF7D0
:103EF00021FB044605E000BFFEF71CFB001B022867
:103F000009D828688001F7D535E000BFFEF712FB1D
:103F1000001B022802D90320BDE8F09F2868800119
:103F2000F4D428E039680128D8F8000021D0A26A2A
:103F300001F0030393421CD1E26AC1F305118A42E6
:103F400017D1216BC0F30802491E8A4211D1616B5F
:103F5000C0F34622491E91420BD1A16BC0F3064229
:103F6000491E914205D1E16BC0F30660491E8142B2
:103F700001D00120D0E70020CEE700002C440258F9
:103F8000704770477047704770B504000D4603D006
:103F900094F82C0010B107E0012070BD002084F8D7
:103FA0002D00204600F018F8022084F82C0020682C
:103FB000211DFCF796FED4E900022946FCF7E2FE3B
:103FC00004480121026842F00042026084F82C108B
:103FD000002070BD00400052FEF7FAB810B504464C
:103FE00090F82C00022804D094F82C00012801D06D
:103FF000012010BD022084F82C002068FCF7A6FEEA
:10400000012084F82C00002010BD000070B504468B
:1040100090F82C000D46022804D0012803D0052872
:1040200001D0012070BD022084F82C002068FCF72C
:1040300096FE2868022805D05FF0010084F82C0065
:10404000002070BD0520F9E72DE9F041044603206A
:1040500084F830004FF480724FF400784FF0000580
:1040600041B1012920D002290DD0606B012540F01B
:10407000006018E0A06D40450DD090420BD0A06BC1
:10408000012808D010E0A06D404504D0904202D035
:10409000A06B012803D1204602F0CCFE20B1606B5A
:1040A000012540F080506063FEF744FA0126074680
:1040B00005E000BFFEF73EFAC01B401C15D02046AD
:1040C00000F0C0F90428F5D12068414602F096FAC4
:1040D00030B12268012508499163616B0143616336
:1040E00084F830602846BDE8F0814FF000406063FE
:1040F00084F830600320F6E7FF0FE01F2DE9FC5F36
:104100000446806B0E46032184F8301000270328F4
:104110005CD0B6F5004F59D0B6F5804F4FF0000592
:104120004FF400684FF0806904D006B3606B40F034
:1041300000603FE0009500210195206802F094FDA9
:1041400080011CD46946204602F002FE70BB019833
:1041500040032DD5B4F844102068090402F01DFA7C
:1041600020BB206802211DE0606B284322E00095FF
:1041700000210195206802F077FD800101D54546B8
:10418000F2E76946204602F0E3FD78B90198C003E2
:104190000ED5B4F844102068090402F0FEF928B9DD
:1041A0002068002102F043FA0028DDD00546DBE755
:1041B0004D46D9E76063606B4FF4007BDFF8B8A031
:1041C00040B121680127C1F838A042E0606B40F09F
:1041D0008050EFE74FF48030FEF78AFC010033D0C7
:1041E000264D3346D4E904C0B1FBF5F8D4E9019279
:1041F000804511D9A66D5E450ED0B6F5807F12D0F0
:104200004FEA6506E8B14FEA4008B1FBF8F8B0455F
:1042100002D900BFB1FBF5F04946CDE900C02068E6
:1042200002F026FD15E0164E30B14FEA4008B1FB12
:10423000F8F8A84502D8EFE7A942EDD9B1FBF6F0AE
:10424000EAE7B142E6D8E7E7606B012740F000609B
:1042500060632068594602F0D1F930B12268012725
:10426000C2F838A0616B01436163012084F830001B
:104270003846BDE8FC9F0000FF0FE01F80F0FA0207
:1042800000E1F50570470000F0B5C26D920F0A70AD
:10429000C26DC2F383624A70C26DC2F301628A705A
:1042A000C26D120CCA70B0F85C20120A0A7190F844
:1042B0005C204A71026E120DCA80026EC2F3034284
:1042C0000A72B0F86020C2F3C0324A72B0F86020BF
:1042D000C2F380328A72B0F86020C2F34032CA72F0
:1042E000B0F860200026C2F300320A734E73012238
:1042F000836B4FF4007463B1012B3AD003685049CB
:104300009963416B41F08051416380F83020012076
:10431000F0BDB0F86030456E9B051B0D43EA957308
:104320000B61436EC3F3C2630B75436EC3F3026349
:104330004B75436EC3F342538B75436EC3F3824395
:10434000CB75436EC3F3C2330B760D696D1C856468
:104350000B7E03F007039B1C9D4085640B7A44652C
:1043600003F00F0302FA03F35F0A7D43C0E913353C
:104370000EE090F86050436EAD06AD0A45EA134377
:104380000B610B695B1C9B028364C0E913434465AA
:10439000B0F86430C3F380334B76B0F86430C3F3C5
:1043A000C6138B7690F8643003F07F03CB76836E70
:1043B000DB0F0B77836EC3F341734B77836EC3F3CD
:1043C00082638B77836EC3F38353CB77836EC3F3A0
:1043D000405381F8203081F82160836EC3F300439D
:1043E00081F82230B0F86830C3F3C03381F823304D
:1043F000B0F86830C3F3803381F82430B0F8683007
:10440000C3F3403381F82530B0F86830C3F300338C
:1044100081F82630B0F86830C3F3812381F8273063
:10442000B0F86830C3F3012381F8283090F86800B1
:10443000C0F3460081F8290081F82A200020F0BD51
:10444000FF0FE01F70B5B0F8441000250446006867
:10445000090402F0DAF918B1616B0143616304E009
:104460002068002102F000FC0546C5F3432070BD22
:104470002DE9F041054690F8300090B00C4600263A
:10448000032810D06946284602F072FE2A4F4FF0EA
:10449000010860B12A68012697636A6B02436A6368
:1044A00085F830803AE0012010B0BDE8F081009935
:1044B0004FF47F40C1F3811121700099C1F3401185
:1044C000617000990A4600EA112141EA1261618097
:1044D000019909BA6160029921720299090A61720F
:1044E0000299C1F30351A172DDE9022100EA1240F1
:1044F000C9B20843A0810398C0F38520A073039834
:10450000C0F30120E0730398C0F3031020740398F4
:1045100000F00F0060740498000EA07428684FF437
:10452000007102F06BF828B12A680126976368636E
:1045300085F830803046B7E7FF0FE01F2DE9F843DC
:1045400004460068E56A416B09041BD5290719D5A3
:10455000D4E90950202813D30026206802F09EFBDE
:10456000020A2870010C6A70030EA970761CEB70A9
:10457000082E05F10405F0D3A06A2038C4E90950DB
:10458000BDE8F883416B0127DFF8EC810026C905FF
:1045900051D539024CF23A12816329072068C16B68
:1045A00021EA0201C1632068C16B21F08051C1631F
:1045B0002068C16821F04001C16018D515F0220FB4
:1045C00009D0206802F06EF928B1616B0143616384
:1045D0002046FFF757FE2168AA07C1F8388084F803
:1045E0003070E66223D1204600F058FAC8E728066A
:1045F000C6D5206815F0220F86622068C662206842
:10460000066509D0206802F04DF928B1616B0143BD
:1046100061632046FFF736FE15F0300F84F83070E6
:10462000E66202D0204600F039FAA807A8D020465A
:1046300000F028FAA4E7416B490421D529071FD5CA
:10464000D4E9075020289BD3002628780090697869
:1046500040EA01200090A97840EA01400090E97802
:104660002D1D40EA016000902068694602F02EFB93
:10467000761C082EE9D3206A2038C4E907507FE76A
:10468000416B11F03A0F416B58D0890703D5616B2C
:1046900041F002016163416B090703D5616B41F091
:1046A00008016163416B890603D5616B41F020010C
:1046B0006163416BC90603D5616B41F01001616311
:1046C000C0F838802068C16B21F49D71C1632068F7
:1046D000C16821F04001C1602068C16A41F4005105
:1046E000C1622068C16841F08001C160206802F0A9
:1046F000D9F8626B2B074FF4006140EA0200606357
:104700002068C26822F08002C2602068816303D5FD
:1047100084F83070E6620DE028068BD5606B0028C7
:1047200088D02068C16B21F08051C1632068066584
:1047300084F830702046FFF7A5FD21E7C9009ED51B
:104740004FF0805181632068006D40074FEA85601B
:1047500008D40028204602DAFFF715FC10E7FFF71F
:1047600010FC0DE70028204602DAFFF70BFC07E7F4
:10477000FFF706FC04E700003A0F0018F0B504004C
:1047800085B020D094F83000002518B92046257651
:1047900000F094F8042084F83000204600F03CF843
:1047A00088B969462046FFF763FE60B99DF810108E
:1047B000A26B9DF81100012A08D0A5652046E1688A
:1047C000FFF79CFC58B1012005B0F0BD014302D0B9
:1047D0004FF4007001E04FF48070A065EEE7FDF744
:1047E000A9FE0127064604E0FDF7A4FE801B401C3D
:1047F0000AD02046FFF726FE0428F5D16563E5625E
:1048000084F830700020DFE74FF00040606384F8E8
:1048100030700320D8E700002DE9FC4104464FF03A
:1048200000084FF48030FEF763F905004FF00106F1
:1048300020D01F48434642464146B5FBF0F7CDE93C
:104840000087206802F014FA206802F021FA78004C
:104850001849B5FBF0F0B1FBF0F0401CFDF7A6FCE9
:10486000204602F02BFC58B184F83060616B0143A4
:10487000616319E04FF0006084F83060606313E01A
:10488000204602F051FB0028EED120684FF4007161
:1048900001F0B4FE002808D0226807499163616BDB
:1048A0000143616384F830600120BDE8FC810000B1
:1048B00000350C0010210100FF0FE01F70470000C1
:1048C0002DE9F04F87B0994617460D460446FDF78F
:1048D00031FE06903DB194F83000012807D0606B9E
:1048E00040F000500DE0606B40F0006009E0226D88
:1048F000002007EB09016063914204D9606B40F02E
:1049000000706063A8E0032184F830102168C86259
:10491000A16B012900D07F024FF0020ACDE903A06C
:1049200090264FF0FF324FEA492305908DE84C0066
:1049300080462068694602F02DF82068B9F1010F21
:104940004FF00106C16841F04001C16006D9C4F8CA
:104950002CA03946206801F0C3FE04E0E662394627
:10496000206801F0D7FEDFF814A150B12368C3F826
:1049700038A0616B0143616384F83060C4F82C8017
:104980006AE0DDF804B01FE0406B000414D5BBF111
:10499000200F11D30027206802F080F9020A287046
:1049A000010C6A70030EA9707F1CEB70082F05F1D3
:1049B0000405F0D3ABF1200BFDF7BCFD0699411ABD
:1049C0001098814221D200B32068416B11F4957F89
:1049D000DAD0C16821F04001C1602068416BC9058F
:1049E00022D5B9F1010F1FD9A16B03291CD001F009
:1049F00059FFC8B12368C3F838A0626B02436263F1
:104A000084F83060C4F82C8026E02268C2F838A010
:104A1000606B40F00040606384F83060C4F82C8024
:104A2000032007B0BDE8F08F2068416B090706D569
:104A3000C0F838A0616B404641F0080108E0416BC6
:104A400089070BD5C0F838A0616B404641F00201E0
:104A5000616384F83060E0620120E2E7416B89061F
:104A600006D5C0F838A0616B404641F02001EFE761
:104A70000349816384F830600020D2E7FF0FE01F14
:104A80003A0F0018044910B5884201D0012000E017
:104A90000020FBF7F7FF10BD74030020044910B598
:104AA000884201D0012000E00020FCF703F810BD8F
:104AB000740300202DE9F04F89B09A4616460D4642
:104AC0000446FDF737FD06903DB194F8300001280B
:104AD00007D0606B40F000500DE0606B40F000606C
:104AE00009E0226D002006EB0A016063914204D9BF
:104AF000606B40F000706063B2E0032184F8301016
:104B00002168C862A16B012900D076024FF0FF3105
:104B10004FEA4A22059090230490CDE90230CDE976
:104B2000001280462068694601F034FF2068C168A1
:104B3000BAF1010F41F04002C26006D92020E062C4
:104B40002068314601F0F2FE05E01020E0622068A6
:104B5000314601F005FFDFF830B106004FF00109E2
:104B60000AD02368C3F838B0606B3043606384F8C0
:104B70003090C4F82C8073E00198089027E0406BD7
:104B800040041CD50898202819D3002728780790BE
:104B9000697840EA01200790A97840EA014007902F
:104BA000E9782D1D40EA01600790206807A902F00E
:104BB0008DF87F1C082FE9D3089820380890FDF75E
:104BC000B9FC0699411A1298814221D200B320689B
:104BD000416B11F48D7FD2D0C16821F04001C160DA
:104BE0002068416BC90521D5BAF1010F1ED9A16B0F
:104BF00003291BD001F056FEC0B12568C5F838B0B6
:104C0000616B0143616384F83090C4F82C8027E025
:104C10002368C3F838B0626B3243626384F8309023
:104C2000C4F82C80032009B0BDE8F08F2068416BE8
:104C3000090707D54946C0F838B0626B404642F0D4
:104C4000080209E0416B89070CD54946C0F838B025
:104C5000626B404642F00202626384F83010E06208
:104C60000120E0E7416BC90607D54946C0F838B0D6
:104C7000626B404642F01002EEE7044A826384F819
:104C800030900020CFE70000FF0FE01F3A0F001820
:104C9000D0F8841041F48061C0F88410012070477E
:104CA000704700002DE9F05F016804460020D1F84C
:104CB00010804F69D1F8089094F8816008EA0705E0
:104CC00015F0600F01F1300B08D1690706D5616F4F
:104CD00020468847216F20468847012005F0410182
:104CE000012905D1690703D4216F20468847012097
:104CF00005F02201022906D1690704D4616F20461C
:104D0000BDE8F05F084700284CD128074FF0010AA2
:104D10005CD52068816941F0080181612068816962
:104D200041F0100181612068816941F40061816175
:104D30002068016921F0080101612068806810F491
:104D4000404F20D023E0E0680F2806D92068616E2C
:104D5000006B0860606E001D0FE0072806D9BBF8E5
:104D60000000616E0880606E801C06E02068616E45
:104D700090F830000870606E401C6066B4F86A00FD
:104D8000401EA4F86A00B4F86A000028DBD120466F
:104D900002F066FA84F881A0D4F8840020B120469D
:104DA000FFF77EFFBDE8F09F052E07D0042E09D047
:104DB000032EF7D1204600F0D7FAF3E7204600F0A3
:104DC000DDFAEFE7204600F0B1F9EBE7380508D54A
:104DD0005FEA087005D52068816941F4006181614E
:104DE000E0E715F4587FDDD068060AD5D4F88400D2
:104DF00040F00400C4F884002068816941F040015B
:104E00008161A8050AD5D4F8840040F00100C4F8F7
:104E100084002068816941F400718161E8050AD548
:104E2000D4F8840040F00800C4F884002068816948
:104E300041F480718161A8060AD5D4F8840040F05D
:104E40008000C4F884002068816941F020018161FC
:104E5000D4F884000028A5D0206840F26B32C9F352
:104E600081310368032923F0010101602068016991
:104E700021EA0201016102D084F881A08FE7206855
:104E8000104D816821F440418160E06F50B10565AB
:104E9000E06FFCF7FFF928B1D4F8840040F040003F
:104EA000C4F88400A06F002887D00565A06FFCF7C8
:104EB000F1F9002885D0D4F8840040F04000C4F80F
:104EC00084006FE71D7300902DE9F047040029D09E
:104ED000504A4FF0000920684F4B504D9042C4F8A3
:104EE000289006D0984204D0A84202D0E1680F2949
:104EF00018D8E1684FF0010AE76B0831C9080AEBDE
:104F000057167143904205D0984203D0A84201D071
:104F1000082907D8904203D0984201D0A84204D172
:104F2000102902D90120BDE8F08794F8810020B94A
:104F3000204684F8809000F073F8022084F8810005
:104F40002068016821F0010101602168A0698A6878
:104F5000B0F1806F02F4F81010D16268B2F5800FE2
:104F600001D01AB10AE0A26B22B107E0A26BB2F144
:104F7000805F03D10A6842F480520A60A66AE16940
:104F8000E26B25683143E368024311431943A9608A
:104F9000D4E90D02D4E90571636A25691843D4F890
:104FA00020C00A43266810432843A56D3843D4E93E
:104FB0000182D4E9123140EA0C0040EA08000843BB
:104FC000104318432843F060606868B9206881681E
:104FD00021F4C05141F4006181602068816821F4AE
:104FE000C06141F4806181602068016D21F00101A0
:104FF00001656068400206D52068626DC16821F0D5
:1050000000411143C160C4F8849084F881A000205D
:1050100089E700000030014000380040003C0040BB
:10502000F0B587B0044614216846FBF7FDF939490D
:10503000206888426CD13848016821F00101016084
:105040000B20FDF7E1FA3548FCF766FA32481830D4
:10505000016841F480110160006800F4801005903F
:105060002D480830016841F480610160016801F455
:1050700080610591016841F400710160016801F4EB
:1050800000710591016841F080010160016801F043
:1050900080010591016841F080010160016801F023
:1050A00080010591016841F40071016000680522EA
:1050B000002400F4007005900125009503210220D2
:1050C000CDE90312CDE9010415486946FDF708F959
:1050D000144EA802694600903046FDF701F9124FC0
:1050E0002020694600903846FDF7FAF840200090ED
:1050F000CDE90154694638460394FDF7F1F8E8021A
:105100000090CDE90154694630460394FDF7E8F874
:1051100007B0F0BD00500140D844025834040020CC
:105120000028025800240258001C025870472DE93C
:10513000FC5F0446006817468A4600211D4694F825
:10514000802000F1200B0191012A0DD04FF00108C1
:1051500084F88080FDF7EEF9814694F881000026FE
:10516000012804D002201EE00220BDE8FC9FBAF115
:10517000000F17D0B7B1A1680320C4F85CA0A4F851
:10518000607084F88100C4F88460A4F86270666678
:10519000A4F86860A4F86A60B1F5C02F6667266756
:1051A00004D008E0012084F88060DEE72068016810
:1051B00041F400610160206841686FF30F013943D9
:1051C00041602068016841F0010101606068B0F54C
:1051D000800F04D12068016841F400710160E0682B
:1051E0000F281BD81FE02068416989070BD5E16DA6
:1051F00009680162E06D001DE065B4F86200401EC0
:10520000A4F862000AE0FDF795F9A0EB0900A842B6
:1052100002D3681C02D095E0002D30D0B4F86200B3
:105220000028E0D174E007282BD86DE020684169A0
:1052300089071CD5B4F8621001290BD9E16B49B17B
:10524000E16D09680162E06D001DE065B4F862007F
:10525000801E09E0E06D0188ABF80010E06D801C55
:10526000E065B4F86200401EA4F8620009E0FDF7B2
:1052700061F9A0EB0900A84202D3681C01D061E0EB
:10528000BDB3B4F862000028D0D141E02068416984
:1052900089072FD5B4F8621003290CD9E16B402996
:1052A00009D9E16D09680162E06D001DE065B4F89F
:1052B0006200001F1AE0B4F8621001290CD9E16BFA
:1052C00051B1E06D0188ABF80010E06D801CE06525
:1052D000B4F86200801E09E0E16D097880F82010C2
:1052E000E06D401CE065B4F86200401EA4F8620066
:1052F0000AE027E0FDF71EF9A0EB0900A84202D35F
:10530000681C01D01EE0EDB1B4F862000028BDD1E8
:1053100000224B4608212046009502F0EBF828B108
:10532000D4F8840040F02000C4F88400204601F046
:1053300097FF84F88180D4F8840084F8806080B17D
:10534000012012E7204601F08BFFD4F8841084F886
:10535000806041F48071C4F8841084F88180032057
:1053600003E7019801E70000034A0168914201D177
:10537000FFF78EBC70470000005001407047401E90
:10538000B0F1807F10B501D3012010BD4FF0E024B3
:1053900060610F21601702F043FD0020A06107212A
:1053A000216110BD704770477047704770B5044663
:1053B000006800250169C943890715D4C168C9433C
:1053C000890711D4EA1E02610121217720688069D2
:1053D0008007204602D0FFF7E8FF04E000F0A7F8BE
:1053E000204600F0A5F8257720680169C9434907E0
:1053F00017D4C168C943490713D402216FF00402CE
:10540000026121772068806910F4407F204602D035
:10541000FFF7CBFF04E000F08AF8204600F088F8A0
:10542000257720680169C943090716D4C168C943B3
:10543000090712D404216FF0080202612177206865
:10544000C0698007204602D0FFF7AFFF04E000F0FC
:105450006EF8204600F06CF8257720680169C94392
:10546000C90617D4C168C943C90613D408216FF00F
:105470001002026121772068C06910F4407F204645
:1054800002D0FFF792FF04E000F051F8204600F050
:105490004FF8257720680169C943C90708D1C16859
:1054A000C943C90704D1891E0161204600F041F8B3
:1054B00020680169C943090609D4C168C9430906BE
:1054C00005D46FF0800101612046FFF76CFF206872
:1054D0000169C943C90509D4C168C943090605D48E
:1054E0006FF4807101612046FFF75CFF206801695D
:1054F000C943490609D4C168C943490605D46FF0B8
:1055000040010161204600F015F820680169C94397
:1055100089060BD4C168C943890607D46FF02001FE
:1055200001612046BDE87040FFF73EBF70BD704787
:1055300070477047704730B590F88010012918D037
:10554000012280F880202421C0F884100022202429
:1055500050F8641B0B680D6823F0005325F001051B
:105560000D60026050F8641C0B6004620277104604
:1055700030BD022030BD7047704770B5044690F8CA
:10558000800001281DD0012284F880202420C4F846
:10559000840020680568026822F001020260206829
:1055A000826822F060620A438260204602F0CEF8F0
:1055B0002268202100201560C4F8841084F880003F
:1055C00070BD022070BD70B5044690F880000128BF
:1055D0001DD0012284F880202420C4F88400206893
:1055E0000568026822F0010202602068826822F0E9
:1055F00060420A438260204602F0A8F82268202117
:1056000000201560C4F8841084F8800070BD02206A
:1056100070BD7047704770472DE9F041036804463C
:10562000002540F60F06D86919689A68304209D1FA
:1056300086067DD501F0200602F080573E4377D0E4
:10564000216F62E1C64EC74F16400F4037436FD0FF
:10565000C70709D0CF0507D501271F62D4F88C30C2
:1056600043F00103C4F88C3083070AD5D30708D070
:10567000276802233B62D4F88C3043F00403C4F85B
:105680008C3043070AD5D30708D0276804233B6230
:10569000D4F88C3043F00203C4F88C3003070CD5E7
:1056A00001F02003334308D0266808233362D4F87E
:1056B0008C3043F00803C4F88C3003050BD54B0144
:1056C00009D526684FF400633362D4F88C3043F078
:1056D0002003C4F88C30D4F88C30002B3AD08006EC
:1056E00009D501F0200002F08051084303D0216F5A
:1056F00009B1204688472168D4F88C00896849069A
:1057000002D410F0280F27D0204602F0DFF82068DE
:10571000806840061BD52068083050E8001F21F043
:10572000400140E80012002AF5D1E06F78B100E0B6
:1057300018E08D490165E06FFBF7ACFD002809D04A
:10574000E06F016D00E02046BDE8F04108472046CB
:10575000FFF761FFBDE8F0812046FFF75CFFC4F86A
:105760008C50F7E7E76E2026012F7CD1C7067AD54B
:10577000CF0678D5102018622068806840067DD555
:10578000E16F7A4A0868904234D0784A18329042E1
:1057900030D0764A303290422CD0744A483290420F
:1057A00028D0724A6032904224D0704A78329042B7
:1057B00020D06E4A903290421CD06C4AA83290425F
:1057C00018D06B4A904215D0694A1832904211D0D5
:1057D000674A303290420DD0654A4832904209D033
:1057E000634A6032904205D0614A7832904201D0DB
:1057F0005F4A903240680004000CABD0B4F85C20E3
:105800008242A7D9A4F85E00C869B0F5807F2ED087
:10581000216851E8000F20F4807041E80002002A5E
:10582000F6D12068083050E8001F21F0010140E85F
:105830000012002AF5D12068083050E8001F21F03E
:10584000400140E80012002AF5D1C4F88860E566FE
:10585000216851E8000F20F0100041E80002002A02
:10586000F6D1E06F01E03BE008E0FBF763FBB4F842
:105870005C00B4F85E10401A81B22DE0B4F85C0010
:10588000B4F85E10B4F85E20401A81B2002AB4D099
:105890000029B2D0226852E8000F20F4907042E84C
:1058A0000003002BF6D1334B226802F1080252E8C4
:1058B000000F00EA030042E80007002FF4D1C4F80B
:1058C0008860E5662567226852E8000F20F0100026
:1058D00042E80003002BF6D12046FFF74CFE39E7E3
:1058E000C70209D5570207D54FF480101862204629
:1058F000BDE8F041FFF78EBE03060AD501F0800334
:1059000002F40002134304D0616F00297FF41BAF3F
:1059100020E7420611D54A060FD52046026852E814
:10592000001F21F0400142E80013002BF6D1C0F81F
:105930008460456700F076F90CE7020206D54A005C
:1059400004D52046BDE8F041FFF763BEC001C6D5CF
:105950000029C4DA2046BDE8F041FFF70DBE000083
:105960000100001020010004B978009010000240EE
:1059700010040240FEFFFFEF10B5040003D0D4F87E
:10598000840010B107E0012010BD002084F88000E1
:10599000204600F027F82420C4F88400206801681D
:1059A00021F001010160204601F0BAFF0128EBD08F
:1059B000A06A10B1204601F0EBFE2068416821F496
:1059C000904141602068816821F02A01816020684F
:1059D000016841F0010101602046BDE8104001F07E
:1059E0003BBF000010B586B0044614216846FAF7A4
:1059F0001BFD1A49206888422ED11948016841F0E0
:105A000010010160006800F0100005901448103883
:105A1000016841F001010160016801F00101059197
:105A2000016841F00101016000680221012200F0DB
:105A300001000590032307244FF400708DE81F0038
:105A4000084C69462046FCF74BFC4FF480606946E1
:105A500000902046FCF744FC06B010BD0010014049
:105A6000F0440258000002582DE9F84F0446D0F8DF
:105A700088009A4616460D46202872D10DB306B30B
:105A800094F8800001286CD0012284F88020222123
:105A90004FF00008C4F88C80C4F88810C4F86C80FB
:105AA0002034FCF747FD814654F8180CA6874FF4C4
:105AB0008053E687FF21203C984208D122691AB121
:105AC0001EE00120BDE8F88F40F2FF1118E04FF012
:105AD0007F0298B1B0F1805F15D0A4F8608000BF5C
