:020000040800F2
:1000000020920120710300082B510008E7490008E5
:10001000295100081B0A0008256C00080000000098
:10002000000000000000000000000000AD02000819
:100030001D0A000800000000090300087F63000893
:100040008B0300088B0300088B0300088B03000858
:100050008B0300088B0300088B0300088B03000848
:100060008B0300088B0300088B0300088B03000838
:100070008B0300088B0300088B0300088B03000828
:100080008B0300088B0300088B0300088B03000818
:100090008B0300088B0300088B0300088B03000808
:1000A0008B0300088B0300088B0300088B030008F8
:1000B0008B0300088B0300088B0300088B030008E8
:1000C0008B0300088B0300088B0300088B030008D8
:1000D0008B030008CD6B00088B0300088B0300081E
:1000E0008B0300088B030008000000008B0300084E
:1000F0008B0300088B0300088B0300088B030008A8
:100100008B0300086D5300088B0300088B03000865
:100110008B0300088B0300088B0300088B03000887
:100120008B0300088B0300088B0300088B03000877
:100130008B0300088B0300088B0300088B03000867
:1001400000000000000000000000000000000000AF
:100150008B0300088B0300088B0300088B03000847
:100160008B0300088B0300088B0300088B03000837
:100170008B0300088B0300088B0300088B03000827
:100180008B0300088B0300088B0300088B03000817
:100190008B0300088B0300088B0300088B03000807
:1001A0008B0300088B0300088B0300088B030008F7
:1001B0008B0300088B0300088B0300088B030008E7
:1001C0008B0300088B0300088B0300088B030008D7
:1001D0008B0300088B0300088B0300088B030008C7
:1001E0008B0300088B0300088B0300088B030008B7
:1001F0008B0300088B0300088B0300088B030008A7
:100200008B0300088B0300088B0300088B03000896
:100210008B0300088B0300088B0300088B03000886
:100220008B0300088B0300088B030008000000000C
:100230008B0300088B030008000000008B030008FC
:100240008B0300088B0300088B0300088B03000856
:100250008B0300088B0300088B0300088B03000846
:100260008B0300088B0300088B0300088B03000836
:100270008B0300088B0300088B03000800000000BC
:100280008B0300088B0300088B03000800000000AC
:10029000000000008B030008DFF80CD000F0BCFA6F
:1002A0000048004705760008209201202D4B196870
:1002B0000868B0E8F04F80F30988BFF36F8F4FF004
:1002C000000080F3118870470000000008480068B3
:1002D000006880F308884FF0000080F3148862B64D
:1002E00061B6BFF34F8FBFF36F8F00DF00BF00BF5A
:1002F00008ED00E0DFF80C00016841F470010160D6
:10030000704700BF88ED00E0EFF30980BFF36F8F07
:10031000144B1A681EF0100F08BF20ED108A20E958
:10032000F04F106009B44FF0500072B680F311889E
:10033000BFF34F8FBFF36F8F62B608F03BFD4FF0F6
:10034000000080F3118809BC19680868B0E8F04F14
:100350001EF0100F08BFB0EC108A80F30988BFF3BD
:100360006F8F704758000020EFF305807047000042
:100370000648804706480047FEE7FEE7FEE7FEE73F
:10038000FEE7FEE7FEE7FEE7FEE7FEE7A5640008FE
:10039000990200082DE9F05F0546002092469B4631
:1003A00088460646814640241BE02846414647468B
:1003B000224600F069F853465A46C01A914110D3BC
:1003C00011461846224600F050F82D1A67EB010836
:1003D0004F4622460120002100F047F817EB0009A4
:1003E0004E41201EA4F10104DFDC484631462A4676
:1003F0004346BDE8F09F40EA01039B0703D009E0B4
:1004000008C9121F08C0042AFAD203E011F8013B00
:1004100000F8013B521EF9D27047D2B201E000F859
:10042000012B491EFBD270470022F6E710B5134698
:100430000A4604461946FFF7F0FF204610BD30B5C6
:100440000B46014600202022012409E021FA02F592
:100450009D4205D303FA02F5491B04FA02F528442C
:10046000151EA2F10102F1DC30BD202A04DB203A86
:1004700000FA02F1002070479140C2F1200320FAF7
:1004800003F3194390407047202A04DB203A21FAF5
:1004900002F00021704721FA02F3D040C2F120029D
:1004A00091400843194670472DE9FE4F804681EA86
:1004B0000300C00F0C46009021F0004123F00045DE
:1004C000B8EB0200A94105D24046214690461C46A1
:1004D0000B46024623F00040104347D0270DC7F3D8
:1004E0000A00C3F30A510290401A019040286BDAC7
:1004F000C3F3130040F4801B0098924620B1002300
:10050000D2EB030A63EB0B0B01985946C0F1400292
:100510005046FFF7AAFF06460D4650465946019A37
:1005200000F08CF910EB08006141002487EA1152B9
:1005300084EAE7731A4340D0009A62B3019A012A11
:100540004FEA075215DC001B61EB02014FF000423D
:1005500002EA0752CDE90042001C41F58011324603
:100560002B4600F08CF903B0BDE8F08F40462146E1
:10057000F9E7001B61EB0201001C41F58013001834
:100580005B412018A2F5001747EB030140EAD57044
:10059000B6196D4111E06D084FEA360645EAC0759F
:1005A0004FEA0752001B61EB0201001C41F580116C
:1005B00049084FEA30000019514132462B4603B03A
:1005C000BDE8F04F00F04CB9009801224000002334
:1005D000D0EB020263EBE073009821464FEAE0742F
:1005E000B8EB000061EB0401E9E783F000435BE74F
:1005F00081F0004158E72DE9FE4F81EA030404F041
:10060000004421F0004100944FF0000B23F0004320
:1006100050EA01045ED052EA03045BD0C3F30A54EB
:10062000C1F30A552C44A4F2F3340194A0FB025404
:10063000C1F3130141F48011C3F3130343F4801396
:1006400001FB024400FB034E840A970A44EA8154EA
:1006500047EA8357A4FB076802958D0A05FB0785C7
:100660004FEA932C04FB0C542705029D4FEA0658D1
:1006700047EA1637B5EB08056EEB070C870E920EAE
:1006800047EA811742EA8312A7FB0201B6EB0B018E
:1006900064EB00042B0D43EA0C335E1844EB1C5052
:1006A000DA465146E7FB0201C5F313044FEA0B3368
:1006B00043EA14534FEA0432019C43EA0603A4F1CF
:1006C0000C040294009CCDE900B400F0D8F803B00B
:1006D000BDE8F08F00200146F9E72DE9F04D81EAF1
:1006E000030404F0004B21F0004514464FF0000ACB
:1006F00023F0004150EA050220D054EA01021DD047
:10070000C5F30A570246C5F31303C1F31300C1F33F
:100710000A5640F4801543F48013A7EB0608101B1B
:10072000D64608F2FD3873EB050002D308F1010844
:1007300001E092185B41B8F1000F03DA0020014696
:10074000BDE8F08D00204FF48011064684460EE08F
:10075000171B73EB050705D3121B63EB0503064359
:100760004CEA010C49084FEA300092185B4150EA0C
:100770000107EDD152EA030012D082EA040083EAB5
:100780000501084305D0101BAB4106D2012200230E
:1007900006E000224FF0004302E06FF00102531028
:1007A0001AEB06004CEB085110EB0A0041EB0B0171
:1007B000BDE8F04D00F054B8C1F30A52C1F3130183
:1007C00040F2FF3341F480119A4202DA00200146E0
:1007D000704740F233439A42A2F2334202DC524263
:1007E000FFF752BEFFF741BE30B5041E71F10004A1
:1007F00004DB4FF00044404264EB0101141E73F12E
:10080000000405DB1C464FF00043524263EB040337
:10081000994208BF904230BD064C074D06E0E068A3
:1008200040F0010394E8070098471034AC42F6D337
:10083000FFF736FDE0AE000800AF0008202A06DB17
:10084000CB17203A41FA02F043EAE07306E041FA9E
:1008500002F3D040C2F1200291400843194670478C
:1008600010B5141E73F1000408DA401C41F10001B8
:1008700092185B411A4301D120F0010010BD2DE90F
:10088000F04D92469B4611B1B1FA81F202E0B0FA06
:1008900080F220329046FFF7E8FD04460F4640EA1A
:1008A0000A0041EA0B0153465A46084313D0114649
:1008B00053EA010019D0C8F140025046FFF7E4FDA9
:1008C00005460E46504659464246FFF7CEFD0843C0
:1008D00005D0012004E020463946BDE8F08D002017
:1008E000054346EAE0762C4337430A986305E40A59
:1008F000A0EB08000022FD0A44EA47540A3002D562
:1009000000200146E9E7010510196941DDE90845C4
:1009100000196941BDE8F04DA2E7000010B54FF0A5
:10092000000408B1A41E06E004480A4402F028FDB1
:1009300008B16FF00304204610BD000054010020F0
:100940000649C0EB401010B501EB800002F05AFEE2
:10095000042801D0012010BD002010BD540100204A
:1009600070B54FF0000508B1AD1E1CE000F020F896
:10097000012802D06FF0060515E00C4C204605F06A
:1009800087FA204604F092FB6FF0030628B94FF473
:100990008041204602F030FC08B1354603E00221D8
:1009A000204602F0CFFB284670BD00005401002015
:1009B00010B16FF0010070470120704738B5642511
:1009C0004FF00004002803FB05F001D0A41E06E050
:1009D0000090044803F054F808B16FF00304204677
:1009E00038BD0000540100207047000038B5642570
:1009F0004FF00004002803FB05F001D0A41E06E020
:100A00000090044803F036F908B16FF00304204663
:100A100038BD0000540100207047FEE77047F0B574
:100A2000D1E90843CD690A68C2B10268254322F4BE
:100A3000F84213431D430560D1E90125D1E903368E
:100A40004C692A434568334389691A43EB0B2243B7
:100A5000DB030A431A4342600020F0BDD1E9012EB6
:100A6000D1E9036CD1E9057142EA0E0246EA0C06AF
:100A700032433A430A4301682A4322431A436FF33D
:100A80000E010A430260E7E7426943F6FE739A43A8
:100A900042EA410141610020704770B591E81C00B5
:100AA000C9686FF01F0506691A4305EB441444EA50
:100AB00041210A4306EA45431A430261002070BD02
:100AC0002DE9F04F8B8A6FF00F05264C4FF07F4BCE
:100AD000D1F80C9004EB03536FF0FF044FEA042AA3
:100AE0001AB386684FEA09321F4FA2F580521A43A3
:100AF0003E4032438260D1E900278E68521E05EBEA
:100B000007150F8A2A43C56804EB06240E7E0AEBFC
:100B1000074322431A430BEB06610A4305F0704377
:100B20001A43C2600020BDE8F08F91E804110F4E17
:100B3000521E0F8A05EB08152A4304EB0C2C06EB1A
:100B400009350E7E42EA0C022A4385680AEB074407
:100B500022431A430BEB06610A4305F070431A4324
:100B60008260DFE70000F0FFFF0F0FFF00F0FFFFE4
:100B700008B5016900918388028881899BB2008948
:100B800092B289B280B200F093F808BD7CB507F04C
:100B900097FD012008F0F0F9264B1F22191F8861EC
:100BA00025A1CDE9002327480023402208F038FD85
:100BB000254C02261F4D002380222D1D206023A1DD
:100BC0002548CDE9006508F02BFD2A1D6060032152
:100BD00025480023CDE90012F20120A108F020FDF4
:100BE00005F10802A060042124480023CDE9001289
:100BF0004A021EA108F014FDE06000232448802270
:100C0000CDE900651EA108F00BFD206121A006F0D2
:100C10000BF8002523A054F8251006F005F86D1CEC
:100C2000052DF7DB21A005F0FFFFBDE87C4008F0B3
:100C30005FB80000180000206C65645F5461736B3E
:100C400000000000E9750008C00A00207573617299
:100C5000745F5461736B0000298700086C63645FE4
:100C60005461736B00000000B1750008646576691B
:100C700063655F74657374696E6700006D75000865
:100C8000726563765F75736172745F5461736B0034
:100C900071810008746872656164207374617465A1
:100CA0003A090000256C6409000000000D0A0000EC
:100CB0002DE9F0411C4615460E460746069804F0FD
:100CC000E7F83019791983B238468AB2314604F010
:100CD000A3F823462A4631463846BDE8F04103F0E2
:100CE00045BF00002DE9F84F044600F0B1FC00902C
:100CF0003CB194F83500022806D0802161650020BF
:100D0000E4E00120BDE8F88FC74DC74EC64918354D
:100D100020683036DFF81483DFF814938842DFF858
:100D200014A3DFF814B32ED0A8422CD0B0422AD09E
:100D3000404528D0484526D0504524D0584522D09B
:100D4000BD4A183290421ED0BC4A90421BD0BB4ACA
:100D50001832904217D0B94A3032904213D0B74A75
:100D6000483290420FD0B54A603290420BD0B34A1D
:100D70007832904207D0B14A9032904203D0AF4AC5
:100D8000A832904209D1026822F01E020260206857
:100D9000426922F08002426103E0026822F00E0202
:100DA000026027688F4238464DD0A8424BD0B042EF
:100DB00049D0404547D0484545D0504543D0584597
:100DC00041D09D4A183290423DD09C4A90423AD040
:100DD0009A4A1832904236D0984A3032904232D0F5
:100DE000964A483290422ED0944A603290422AD09D
:100DF000924A7832904226D0904A9032904222D045
:100E00008E4AA83290421ED08D4A90421BD08C4A06
:100E10001432904217D08A4A2832904213D0884A1E
:100E20003C3290420FD0864A503290420BD0844AD6
:100E30006432904207D0824A7832904203D0804A8E
:100E40008C32974204D1206E026822F480720260D4
:100E500075492068884228D0A84226D0B04224D0C4
:100E6000404522D0484520D050451ED058451CD082
:100E700071491831884218D07049884215D06F499D
:100E80001831884211D06D49303188420DD06B49FC
:100E90004831884209D069496031884205D06749A4
:100EA0007831884201D065499031016821F0010113
:100EB00001600EE000F0CCFB0099401A052808D92B
:100EC000202262650321002084F8351084F8340064
:100ED00017E73868C007EDD1534A012120689042D6
:100EE0002ED0A8422CD0B0422AD0404528D0484528
:100EF00026D0504524D0584522D04F4B1833984225
:100F00001ED04E4B98421BD04C4B1833984217D0F2
:100F10004A4B3033984213D0484B483398420FD055
:100F2000464B603398420BD0444B7833984207D0FD
:100F3000424B9033984203D0404BA833984208D19B
:100F400094F85C703F23A06D07F01F07BB408360DF
:100F500007E094F85C30A06D03F01F0301FA03F37F
:100F60004360206890424DD0A8424BD0B04249D057
:100F7000404547D0484545D0504543D0584541D0DD
:100F80002D4A183290423DD02C4A90423AD02B4AFA
:100F90001832904236D0294A3032904232D0274A15
:100FA000483290422ED0254A603290422AD0234ABD
:100FB0007832904226D0214A9032904222D01F4A65
:100FC000A83290421ED01E4A90421BD01C4A1432B6
:100FD000904217D01A4A2832904213D0184A3C3215
:100FE00090420FD0164A503290420BD0144A6432CD
:100FF000904207D0124A7832904203D0104A8C3285
:1010000090420BD1D4E919024260E06E30B102681F
:1010100022F480720260D4E91C024260002084F84D
:10102000351084F834006DE610000240580002408C
:101030007000024088000240A000024010040240FC
:10104000085402582DE9F05F28B190F835100229B4
:1010500004D0802141650120BDE8F09F904C904B69
:101060000168183C18338E4ADFF83C92A1428D4C3F
:10107000DFF838E28E4FDFF83CB2DFF83CA28F4D4C
:101080008F4E31D091422FD099422DD0A1422BD0FA
:10109000494529D0714527D0B94225D0DFF810C283
:1010A0000CF1180C61451FD0DFF808C2ACF1600CE0
:1010B000614519D0DFF8FCC1ACF1480C614513D093
:1010C000DFF8F0C1ACF1300C61450DD0DFF8E4C1C0
:1010D000ACF1180C614507D0594505D0514503D0F6
:1010E000A94201D0B1422CD1DFF8B4C14FF00408BD
:1010F00080F83580ACF1180C61451DD091421BD0B1
:10110000994219D0A14217D0494515D0714513D045
:10111000B94211D06648183081420DD06548603818
:10112000814209D063484838814205D0614830384F
:10113000814201D05F481838086820F0010008603B
:10114000ABE0D1F800C02CF00E08DFF854C1C1F8B4
:101150000080ACF1180C0168614527D0914225D080
:10116000994223D0A14221D049451FD071451DD0BD
:10117000B9421BD0DFF838C10CF1180C614515D00D
:10118000DFF830C1ACF1600C61450FD0DFF824C14D
:10119000ACF1480C614509D0DFF818C1ACF1300C56
:1011A000614503D0DFF80CC1ACF1180CD1F800C0D8
:1011B0002CF0010CC1F800C0DFF8E4804FF0010C06
:1011C0000168A8F11808414546D0914244D099429F
:1011D00042D0A14240D049453ED071453CD0B942B1
:1011E0003AD0334A1832914236D0324A603A91426C
:1011F00032D0304A483A91422ED02E4A303A91426B
:101200002AD02C4A183A914226D0594524D051452B
:1012100022D0A94220D0B1421ED02A4A91421BD0EE
:10122000284A1432914217D0264A2832914213D0CC
:10123000244A3C3291420FD0224A503291420BD084
:10124000204A6432914207D01E4A7832914203D03C
:101250001C4A8C32914218D1016E0A6822F48072C5
:101260000A6090F85C20816D02F01F020CFA02F215
:101270004A60D0E919124A60C16E31B10A6822F49D
:1012800080720A60D0E91C124A600022016D80F869
:1012900035C080F8342001B188470020DCE600002A
:1012A00028000240580002407000024088000240BE
:1012B000A00002407004024088040240A0040240E2
:1012C000B80402400854025870B5044600F0C0F952
:1012D0000546601C02D004480078044400F0B8F9C8
:1012E000401BA042FAD370BD30000020F0B587B09B
:1012F00014216846FFF798F83948016841F4805195
:101300000160006800F48050059035480C30016899
:1013100041F004010160016801F0040105910168D8
:1013200041F008010160016801F0080105910168C0
:1013300041F010010160016801F0100105910168A0
:1013400041F020010160016801F020010591016870
:1013500041F040010160016801F040010591016820
:1013600041F080010160006802250026694600F016
:101370008000059003274FF63F000C2404948DE86D
:10138000E100184800F03AF88DE8F0001648694688
:10139000049400F033F848F2371004948DE8E1002B
:1013A0001248694600F02AF84FF6837004948DE8DD
:1013B000E1000F48694600F021F84CF203700494F4
:1013C0008DE8E1000B48694600F018F8012004940C
:1013D0008DE8E1000848694600F010F807B0F0BD5C
:1013E000D444025800140258001C02580018025835
:1013F00000100258000C0258000802582DE9F84F5E
:1014000003247D4D00234FF001094FF0B04B4FF006
:101410000F0AE9E009FA03F73A4076D00E7906F0B0
:101420000306012E01D0022E18D1D0F808C04FEAD1
:10143000430ECE6804FA0EF82CEA080C06FA0EF6F3
:1014400046EA0C068660D0F804C00E792CEA070C38
:10145000C6F300169E4046EA0C0646600E79F64337
:10146000B6070BD0C6684FEA43088F6804FA08FC39
:1014700026EA0C0607FA08F73743C7600E7906F02C
:101480000306022E12D1DE080F694FEA437C00EBFF
:101490008606B646366A4FEADC6C0AFA0CF807FA9A
:1014A0000CF726EA08063743CEF820700F79066855
:1014B0004FEA430807F0030704FA08FC07FA08F7A5
:1014C00026EA0C06374307604E6816F4403F1CD0EE
:1014D0004A4E376847F00207376036689F0706F0C4
:1014E0000206009623F0030606F1B046B6463F0F0B
:1014F000D6F80864DFF808810AFA07FC404526EAB6
:101500000C0603D14FF0000C41E06CE0DFF8F4C0B2
:10151000604502D14FF0010C39E0DFF8ECC06045C6
:1015200002D14FF0020C32E0DFF8E0C0604502D19A
:101530004FF0030C2BE0DFF8D8C0604502D14FF02C
:10154000040C24E0DFF8CCC0604502D14FF0050C5C
:101550001DE0DFF8C4C0604502D14FF0060C16E074
:10156000DFF8B8C0604502D14FF0070C0FE0DFF89C
:10157000B0C0604502D14FF0080C08E0DFF8A4C00D
:10158000604502D14FF0090C01E04FF00A0C0CFA53
:1015900007FC4CEA060CCEF808C44F68DBF8006084
:1015A000FF0226EA020600D516435F46CBF800602C
:1015B000D1F804C0DBF804605FEA8C2C26EA02064E
:1015C00000D516437E606E684F6826EA0206BF03A8
:1015D00000D516436E602E684F6826EA0206FF03A8
:1015E00000D516432E605B1C0A6832FA03F67FF4BE
:1015F00011AFBDE8F88F000080000058F444025895
:10160000000002580004025800080258000C02585A
:10161000001002580014025800180258001C02580A
:101620000020025800240258426921EA02030A40BD
:1016300043EA0241816170470AB181617047090440
:10164000FBE7000001480068000C70470010005CD8
:10165000014880687047000030000020024881681F
:10166000027811448160704730000020032010B5DB
:1016700000F086F801F0CEF90F4A1049146813689B
:10168000C4F3032203F00F038A5CC95C02F01F025B
:1016900001F01F01D0400A4A20FA01F11160094906
:1016A00008600F2000F010F808B1012010BD00F014
:1016B0002BF8002010BD00001844025888AE000826
:1016C000400000203C00002070B50D4D04462878F5
:1016D000A0B14FF47A71B1FBF0F00A490968B1FB8F
:1016E000F0F002F0F5FD48B9102C07D20022214697
:1016F000501E00F025F800206C6070BD012070BD08
:10170000300000203C000020054808B5016841F089
:1017100002010160006800F00200009008BD0000B6
:10172000F4440258002809DB410900F01F02890037
:10173000012001F1E0219040C1F800017047000054
:101740000E4BF0B41B680D46C3F30223C3F107062A
:10175000042E00D90426191D072901D2002300E018
:10176000DB1E012404FA06F19C40491E2940641E38
:10177000994014402143F0BC05F07ABA0CED00E02A
:10178000064900F0070210B54FF6FF040868044B45
:10179000204040EA02201843086010BD0CED00E034
:1017A0000000FA05134970B50A68D243520705D5FF
:1017B000096801F00701814213D118E00A6822F09C
:1017C000070202430A60FFF743FF0A4D4FF47A769F
:1017D0000446083D07E000BFFFF73AFF001BB04298
:1017E00001D9012070BD2868C0438004F4D40020D2
:1017F00070BD00000C48025810B501F0C5F805494D
:101800000968054AC1F30211515C01F01F01C8408B
:1018100010BD00002044025888AE00084A4930B587
:10182000494C0B1D0A680C3409681D68246802F0D5
:10183000030305F00102C1F30511C4F3CC04002930
:1018400014FB02F200EE102AF8EE400A76D0414A6C
:101850009FED3E1ADFED3E1AB7EE000A23B1012BD1
:101860005AD0022B18D15CE0374C283C23689B06E9
:1018700012D5394B246801EE901A1168C4F3C104E3
:10188000F8EE612AE34001EE903AC1F30801F8EE68
:10189000611A81EEA22A07E002EE101A1168F8EE32
:1018A000422A81EEA22A45E001EE901A1168F8EE74
:1018B000611A40EE811A71EE800A62EE200AC1F3CD
:1018C000462101EE101AB8EE411A31EE001AC0EEB0
:1018D000811ABCEEE11A80ED001A1168C1F30641CD
:1018E00001EE101AB8EE411A31EE001AC0EE811A5C
:1018F000BCEEE11A80ED011A1168C1F3066101EE38
:10190000101AB8EE411A31EE000A80EE801ABCEED1
:10191000C10A80ED020A30BD01EE901ADFED0F2AF8
:1019200003E001EE901ADFED0E2A1168F8EE611A5D
:1019300082EEA12AC1F30801B6E7FFE700210160AA
:101940004160816030BD0000284402580000003929
:101950000024744C304402580090D0030024744A90
:1019600020BCBE4B494930B5484C0B1D0A681434A5
:1019700009681D68246802F00303C5F30012C1F36F
:101980000531C4F3CC04002914FB02F200EE102A46
:10199000F8EE400A75D03F4A9FED3D1AB7EE000AB7
:1019A0006BB1DFED3D1A012B01D0022B64D002EEAA
:1019B000101A1168F8EE422A81EEA22A21E0334C77
:1019C000283C23689B0612D5344B246801EE901AFC
:1019D0001168C4F3C104F8EE612AE34001EE903AC5
:1019E000C1F30801F8EE611A81EEA22A0BE001EEC4
:1019F000901ADFED2B2A00BFF8EE611A116882EE13
:101A0000A12AC1F3080101EE901A1168F8EE611ADB
:101A100040EE811A71EE800A62EE200AC1F346217F
:101A200001EE101AB8EE411A31EE001AC0EE811A1A
:101A3000BCEEE11A80ED001A1168C1F3064101EE17
:101A4000101AB8EE411A31EE001AC0EE811ABCEE3F
:101A5000E11A80ED011A1168C1F3066101EE101A56
:101A6000B8EE411A31EE000A80EE801ABCEEC10ACF
:101A700080ED020A30BD04E001EE901ADFED092A84
:101A8000BAE70021016041608160F3E72844025811
:101A900000000039384402580024744A0090D003F2
:101AA0000024744C20BCBE4B494930B5484C0B1D3A
:101AB0000A681C3409681D68246802F00303C5F332
:101AC0000022C1F30551C4F3CC04002914FB02F237
:101AD00000EE102AF8EE400A75D03F4A9FED3D1AFD
:101AE000B7EE000A6BB1DFED3D1A012B01D0022BDE
:101AF00064D002EE101A1168F8EE422A81EEA22A92
:101B000021E0334C283C23689B0612D5344B2468D3
:101B100001EE901A1168C4F3C104F8EE612AE340A3
:101B200001EE903AC1F30801F8EE611A81EEA22AA3
:101B30000BE001EE901ADFED2B2A00BFF8EE611AE0
:101B4000116882EEA12AC1F3080101EE901A116812
:101B5000F8EE611A40EE811A71EE800A62EE200AF8
:101B6000C1F3462101EE101AB8EE411A31EE001A07
:101B7000C0EE811ABCEEE11A80ED001A1168C1F3C3
:101B8000064101EE101AB8EE411A31EE001AC0EE0D
:101B9000811ABCEEE11A80ED011A1168C1F30661E9
:101BA00001EE101AB8EE411A31EE000A80EE801AEA
:101BB000BCEEC10A80ED020A30BD04E001EE901ACD
:101BC000DFED092ABAE70021016041608160F3E797
:101BD0002844025800000039404402580024744A46
:101BE0000090D0030024744C20BCBE4B2DE9F04F74
:101BF000944A4FF48079DFF848824845924B89B087
:101C0000924EA8F1040592494FF080574FEA2214F2
:101C10004FF0005C2ED1D8F8000000F00700052836
:101C200024D2DFE800F09BB58425AA0003A8FFF7C3
:101C3000F5FD049809B0BDE8F08F6846FFF792FE05
:101C40000098F7E706A8FFF72FFF0698F2E7086865
:101C5000C0F3C10022FA00F0ECE70A68D2057CD597
:101C6000B8427AD12046E5E71846E3E70020E1E7ED
:101C70003046DFE7B0F5007F1AD0DFF8D891B0F535
:101C8000806F26D0B0F5006F37D04FF4805A5045A2
:101C90004FF4804B4FD1D8F8000000F4E040B0F58D
:101CA000005F44D03DDC002858D05045DED16FE0C5
:101CB000D8F8000000F4E070802838D004DC002858
:101CC0004CD04028D2D163E0C028D1D04845CDD1F6
:101CD00053E0D9F8000000F46000B0F5800F26D082
:101CE00004DCD8B3B0F5001FC0D151E0B0F5C00F8F
:101CF000BED0B0F5000FB9D13FE0D9F8000000F038
:101D0000E060B0F1007F12D004DC38B3B0F1807F26
:101D1000ACD13DE0B0F1407FAAD0B0F1806FA5D149
:101D20002BE0B0F5405FA3D058459FD125E008686F
:101D300080009BD586E7B0F5002F4FF4803612D097
:101D4000B04237D1286810F4803075D0B0428DD1C0
:101D5000086800018AD5684601E025E06CE0FFF7DD
:101D600001FE029866E7D9F8000010F440300FD069
:101D7000B04211D0B0F5003F98D128680D6800F04E
:101D800040506D077FF569AF00287FF466AF5EE7CE
:101D900008680001CDD550E708688000C9D506A8BD
:101DA000FFF782FE089845E709688903C1D56045B9
:101DB00088D159E758452BD1D9F8000000F0E04010
:101DC000B0F1405F1CD00CDC90B1B8422CD0604523
:101DD0008AD108688000ACD506A8FFF765FE079891
:101DE00028E7B0F1804F0FD0B0F1A04F90D11FE0A5
:101DF000FFF702FD1EE76846FFF7B4FD019819E7FB
:101E00000868400795D522E70868C00591D529E7FD
:101E1000B0F5004F89D1D8F8000010F0405007D03D
:101E2000B84209D0604592D108680001E3D41DE7AB
:101E300008688003FBD517E708688001F7D5F5E649
:101E4000504402580090D00340787D010080BB00D0
:101E500000440258584402582DE9FC5F044650F8EB
:101E6000241B002500902E460801FE4FDFF8F88362
:101E70001DD5606E50B1B0F5801F0CD0B0F5001FBD
:101E80000ED0B0F5401F1DD001250FE0386840F49A
:101E90000030386016E00221201D03F047F903E00E
:101EA0000098022103F0D2F905000BD02E462088BD
:101EB000C00523D5606D05281ED2DFE800F00C11A7
:101EC000161B1B00626ED8F8001021F4401111435C
:101ED000C8F80010EBE7386840F40030386009E0DB
:101EE0000021201D03F022F903E00098002103F0F7
:101EF000ADF905466DB100E001252E46208880052C
:101F000028D5A06D80281ED00CDC90B140280ED1C1
:101F100014E0626DD8F8001021F007011143C8F8F1
:101F20000010EBE7C02813D0B0F5807F10D001255A
:101F30000FE0386840F40030386009E00021201DCF
:101F400003F0F4F803E00098002103F07FF9054660
:101F500095B12E462088DFF81093400509F1080955
:101F60002CD5D4F8A400B0F5800F20D00DDCA0B1A2
:101F7000B0F5001F0FD115E0A26DD8F8001021F4C4
:101F8000E0711143C8F80010E4E7B0F5C00F13D0BA
:101F9000B0F5000F10D001250FE0386840F4003094
:101FA000386009E00021201D03F0C0F803E000982C
:101FB000002103F04BF9054675B12E462088000537
:101FC0002DD5D4F8A800B0F1007F21D00EDCA8B147
:101FD000B0F1807F10D116E0D4F8A420D9F8001019
:101FE00021F460011143C9F80010E7E7B0F1407F28
:101FF00013D0B0F1806F10D001250FE0386840F4A5
:102000000030386009E00021201D03F08FF803E064
:102010000098002103F01AF905466DB12E4620689C
:1020200080011FD5A06CD8B110280FD0202812D065
:10203000302815D0012514E0D4F8A820D9F80010D4
:1020400021F0E0611143C9F80010E8E7386840F476
:102050000030386004E00221201D03F067F80546D7
:102060006DB12E462088C0042BD5E06DB0F5005F21
:1020700020D00DDCA0B1B0F5805F0FD115E07A481B
:10208000A26C001F016821F0300111430160E9E7F3
:10209000B0F5405F13D0B0F5804F10D001250FE0B0
:1020A000386840F40030386009E00021201D03F05A
:1020B0003DF803E00098002103F0C8F8054685B11B
:1020C0002E462088800429D5206EB0F5403F23D0CD
:1020D00010DC08B3B0F5803F14D0B0F5003F0FD14D
:1020E00015E0E26DD8F8001021F4E0411143C8F882
:1020F0000010E6E7B0F5802F0ED0B0F5A02F0BD082
:1021000001250AE00121201D03F010F803E00098EA
:10211000012103F09BF805468DB12E46208840042E
:102120002AD5D4F8AC00B0F1405F23D010DC08B35E
:10213000B0F1805F14D0B0F1005F0FD115E0226ED6
:10214000D8F8001021F4E0211143C8F80010E5E7A9
:10215000B0F1804F0ED0B0F1A04F0BD001250AE0B6
:102160000121201D02F0E2FF03E00098012103F0AD
:102170006DF805466DB12E46208800041FD5E06E2F
:10218000D8B1B0F1805F0ED0B0F1005F10D0012562
:1021900014E0D4F8AC20D9F8001021F0E04111434C
:1021A000C9F80010E8E7386840F40030386004E00F
:1021B0000121201D02F0BAFF05466DB12E462068B0
:1021C000C0011ED5606CD0B101280ED0022811D0FC
:1021D000032814D0012513E0E26ED8F8001021F096
:1021E00040511143C8F80010E9E7386840F4003066
:1021F000386004E00221201D02F098FF054685B1F9
:102200002E462068DFF85CB04002ABF11C0B57D5BE
:102210001648016841F480710160FFF719FA82469F
:102220000EE01148626C001F016821F003011143A8
:102230000160E6E7FFF70CFAA0EB0A0064283DD83E
:102240000A480068C005F5D57DBBDFF81CA0B4F8CE
:10225000B0200AF1200ADAF8001002F4407001F40C
:10226000407105E02C44025850440258004802587E
:10227000814211D0DAF80010DAF8002021F4407120
:1022800042F48032CAF80020DAF8002022F48032CA
:10229000CAF80020CAF80010D4F8B000B0F5807F6A
:1022A00021D1FFF7D5F9019019E008E0FFF7D0F947
:1022B0000199411A41F28830814210D903252E46F6
:1022C0002078DFF844A4C0073DD0A06F182838D08C
:1022D00026DC80B3082829D0102825D12CE0DAF894
:1022E00000008007E2D5D4F8B010C1F30120032824
:1022F00058460DD0016821F47C510160B4F8B0203B
:10230000DAF80010C2F30B021143CAF80010D7E745
:10231000FE4A036802EA111223F47C511143ECE7F0
:1023200020280ED028280CD001250BE00121201DEB
:1023300002F0FCFE04E004E00098012102F086FFB8
:1023400005465DB12E46207880071ED5606F0628B1
:1023500019D2DFE800F0160C11161616A26FDAF883
:10236000001021F038011143CAF80010EBE70121F9
:10237000201D02F0DBFE03E00098012102F066FF61
:10238000054675B100E001252E46207840071FD58F
:10239000D4F89000062819D2DFE800F0160C1116C8
:1023A0001616626FDAF8001021F007011143CAF81F
:1023B0000010EAE70121201D02F0B8FE03E00098BA
:1023C000012102F043FF05469DB100E001252E46A4
:1023D000207880062BD5D4F88C00B0F1405F24D053
:1023E00011DC10B3B0F1805F15D0B0F1005F10D1F7
:1023F00016E0D4F89020D9F8001021F0070111431D
:10240000C9F80010E4E7B0F1804F0ED0B0F1A04F52
:102410000BD001250AE00021201D02F087FE03E019
:102420000098022102F012FF05468DB12E46207859
:1024300040062BD5D4F89800B0F5406F24D011DCBD
:1024400010B3B0F5806F15D0B0F5006F10D116E065
:10245000D4F88C20DAF8001021F0E0411143CAF8DA
:102460000010E4E7B0F5805F0ED0B0F5A05F0BD0B0
:1024700001250AE00021201D02F058FE03E000982B
:10248000022102F0E3FE05468DB12E4620780006BB
:102490002BD5D4F89C00B0F5C04F24D011DC10B37C
:1024A000B0F5005F15D0B0F5804F10D116E0D4F82C
:1024B0009820D9F8001021F4E0511143C9F8001018
:1024C000E4E7B0F5004F0ED0B0F5204F0BD001255A
:1024D0000AE00021201D02F029FE03E000980221FD
:1024E00002F0B4FE05464DB12E46207800071ED5F9
:1024F000D4F88000B0F5805F0AD00FE0D4F89C20BB
:10250000D9F8001021F460411143C9F80010ECE73C
:102510000098022102F09AFE00B10126D4F8802032
:10252000DAF8001021F440511143CAF80010207865
:10253000C00613D5D4F89400B0F5807F05D100987B
:10254000022102F083FE00B10126D4F89420D9F8CC
:10255000001021F440711143C9F8001020680003F5
:1025600016D5D4F8A00038B1B0F5803F09D0B0F549
:10257000003F0BD001250AE00021201D02F0D6FD0E
:1025800003E00098022102F061FE054685B12E4667
:102590002068400322D5D4F88400B0F5801F11D004
:1025A000B0F5001F13D0B0F5401F15D0012514E081
:1025B000D4F8A020D9F8001021F440311143C9F813
:1025C0000010E5E7386840F40030386004E0009817
:1025D000012102F03BFE054655B12E462068C0039E
:1025E0001CD5E06C70B1B0F5803F10D0012514E02F
:1025F000D4F88420DAF8001021F440111143CAF80D
:102600000010EBE7386840F40030386004E0022145
:10261000201D02F08BFD0546CDB12E4620688000BE
:1026200005D50098022102F011FE00B101262068B4
:1026300080031BD5E06FB8B1B0F5807F10D0B0F546
:10264000007F11D0B0F5407F0ED001250DE02E485F
:10265000E26C0838016821F4803111430160DDE744
:10266000386840F400303860F5B32E462068C00268
:1026700007D5226FD8F8001021F000411143C8F8A7
:1026800000102068C00008D5D4F8B420DBF8001092
:1026900021F480411143CBF800102068800207D557
:1026A000A26ED8F8001021F080711143C8F8001014
:1026B000206840000CD5DBF8001021F40041CBF875
:1026C0000010DBF80010D4F8B8201143CBF800104C
:1026D0002068002807DA0C48226D0838016821F0CC
:1026E00040511143016000E014E02068000208D569
:1026F000D4F88820DAF8001021F440011143CAF818
:10270000001086B1012003E054440258CFFFFF00BF
:10271000BDE8FC9FE26FDAF8001021F4407111432C
:10272000CAF80010A2E70020EDE700002DE9F05FF5
:1027300004000F467ED0DFF83882D8F8000000F0A1
:102740000F00B8420CD2D8F8001021F00F01394325
:10275000C8F80010D8F8000000F00F00B84269D1A6
:102760002078844D40070AD52069296801F070015E
:10277000884204D9296821F070010143296020783A
:102780007C4E361D00070AD56069316801F0700182
:10279000884204D9316821F070010143316020780A
:1027A000C0060AD5A069316801F4E061884204D905
:1027B000316821F4E061014331602078DFF8B4B181
:1027C00080060BF1080B0CD5E1695846DBF80020B8
:1027D00002F07002914204D9026822F070020A43AA
:1027E0000260207880070AD5E068296801F00F01AF
:1027F000884204D9296821F00F010143296020781B
:10280000C0073ED05B49A2682868183920F4706080
:10281000104328606068022818D0032819D009687E
:10282000012819D0490700294ADADFF848A1AAF19E
:10283000080A00E044E0DAF8002022F00702024330
:10284000CAF80020FEF704FF814612E009688903F8
:10285000E9E709688901E6E7C905E4E7FEF7F8FE5C
:10286000A0EB090141F28830814202D90320BDE882
:10287000F09F6168DAF8000000F03800B0EBC10F9B
:10288000ECD1207880070AD5E068296801F00F01B3
:10289000884204D2296821F00F0101432960D8F849
:1028A0000010404601F00F01B9420BD9016821F038
:1028B0000F0139430160006800F00F00B84201D0F9
:1028C0000120D4E7207840070AD52069296801F063
:1028D0007001884204D2296821F070010143296007
:1028E000207800070AD56069316801F070018842DC
:1028F00004D2316821F07001014331602078C006B4
:102900000AD5A069316801F4E061884204D23168D7
:1029100021F4E06101433160207880060CD5E16943
:102920005846DBF8002002F07002914204D202689F
:1029300022F070020A43026000F06CF80E492A6827
:102940002B68C2F3032203F00F038A5CC95C02F018
:102950001F0201F01F01D040084A20FA01F1116066
:102960000749086007480068BDE8F05FFEF7ACBEA5
:10297000002000521844025888AE00084000002091
:102980003C0000203400002030B500F043F80B4A32
:102990000B490C4B15681468C5F3032204F00F04AF
:1029A0008A5C095D02F01F0201F01F01D040064A57
:1029B00020FA01F119601060084630BD1844025831
:1029C00088AE0008400000203C00002000B5FFF762
:1029D000DBFF05490968054AC1F30211515C01F0AA
:1029E0001F01C84000BD00001C44025888AE00080A
:1029F00000B5FFF7C9FF05490968054AC1F302217F
:102A0000515C01F01F01C84000BD00001C44025889
:102A100088AE0008454970B545480968434B103BEE
:102A200011F0380208D00111082A03D0102A0BD067
:102A3000182A0BD0084670BD19688906FBD519689D
:102A4000C1F3C101C84070BD3A4870BD3749374D28
:102A500018310C1D24350A68096826682D6802F0B3
:102A6000030406F00102C1F30511C5F3CC0515FB03
:102A700002F200EE102AB8EE400AE9B32F4ADFED69
:102A80002E0AB7EE001A6CB1DFED2D1A012C01D021
:102A9000022C43D002EE101A1068F8EE422A81EEA2
:102AA000A22A1EE01C68A40611D51B6801EE901A2C
:102AB0001168C3F3C103F8EE612AD84001EE900A11
:102AC000C1F30800F8EE611A81EEA22A0BE001EED4
:102AD000901ADFED1C2A00BFF8EE611A106882EE32
:102AE000A12AC0F3080001EE900AF8EE611A40EE48
:102AF000201A31EE810A00E015E022EE000A10688B
:102B0000C0F34620401C00EE900AF8EE600A80EE0A
:102B1000201ABCEEC10A10EE100A70BD01EE901A28
:102B2000DFED092AD8E7002070BD000010440258EC
:102B30000090D00340787D010000003930440258F5
:102B40000024744A0024744C20BCBE4B2DE9F05F75
:102B500004007DD0FF4F2078FE4D1837DFF8F49346
:102B6000103DC00748D0D9F80000396800F038009F
:102B7000102815D0182803D101F0030002280FD027
:102B80006068B0F5803F12D010B1B0F5A02F18D01A
:102B9000286820F480302860286820F4802009E02C
:102BA0002868800328D560680028D2D024E02868EF
:102BB00040F480302860606888B1FEF749FD064621
:102BC00009E0286840F480202860F0E7FEF740FD27
:102BD000801B64286FD828688003F7D50CE0FEF7C7
:102BE00037FD064605E000BFFEF732FD801B642876
:102BF000F0D828688003F7D4207841F20308D54E36
:102C00000C3E800769D5D9F80000396810F038000B
:102C10000ED0182801D188070AD0E06890B329683F
:102C200021F0190101432960FEF712FD824631E0CF
:102C30002868400702D5E06800288AD0E168286843
:102C400020F0190008432860FEF702FD824607E0E5
:102C5000DFE000BFFEF7FCFCA0EB0A000228B9D8B9
:102C600028684007F6D500BFFEF7ECFC40451BD8AE
:102C70002069402812D0316821F47C3141EA0030CB
:102C800030602AE018E000BFFEF7E2FCA0EB0A008B
:102C900002289FD828684007F6D5E5E7306820F479
:102CA0007C3040F40030EBE7207C316821F0FE41BD
:102CB00041EA0060E4E70DE1286820F001002860A7
:102CC000FEF7C6FC824605E0FEF7C2FCA0EB0A0058
:102CD00002288DD828684007F6D42078C0065DD534
:102CE000D9F80000DFF86CB2396800F03800ABF1B9
:102CF000040B082810D0182803D101F00300012884
:102D00000AD0E0690028286838D040F080002860A8
:102D1000FEF79EFC824623E02868C00523D5E069C3
:102D2000802876D11FE0206A202821D0316821F048
:102D3000F84141EA8060306030E000BF94F8201034
:102D4000DBF8002022F07C5242EA0161CBF800104F
:102D500024E000BFFEF77CFCA0EB0A00022898D814
:102D60002868C005F6D5FEF76DFC4045E6D8DAE7E1
:102D7000306820F0F84040F08040DCE720F0800030
:102D80002860FEF765FC064605E000BFFEF760FC24
:102D9000801B02289DD82868C005F7D4207800073A
:102DA00029D56C486169643000298046016811D0DA
:102DB00041F001010160FEF74BFC064605E000BF53
:102DC000FEF746FC801B0228C9D8D8F8000080070F
:102DD000F6D510E021F001010160FEF739FC06464E
:102DE00005E000BFFEF734FC801B022872D8D8F83B
:102DF00000008007F6D42078800623D5A06900283B
:102E0000286810D040F480502860FEF721FC064668
:102E100005E02CE1FEF71CFC801B02285AD828682C
:102E20008004F7D50EE020F480502860FEF710FCF7
:102E3000064604E0FEF70CFC801B02284AD82868EE
:102E40008004F7D4207840074FD5DFF80C81D8F8FC
:102E5000001041F48071C8F80010FEF7F9FB064637
:102E600005E000BFFEF7F4FB801B642832D8D8F8D9
:102E70000000C005F6D5374EA068603601280AD09C
:102E800008B1052813D0306820F0010030603068A8
:102E900020F0040002E0306840F001003060A068DB
:102EA00041F2883A90B1FEF7D3FB80460AE03068E1
:102EB00040F004003060EEE7FEF7CAFBA0EB08012B
:102EC000514507D830688007F6D50EE0FEF7C0FB05
:102ED000804607E084E000BFFEF7BAFBA0EB0801E4
:102EE00051457DD830688007F6D4606AB0B3DFF80A
:102EF0006480D9F8001008F12008C1F3C201032949
:102F00006FD00228286820F08070286003D0FEF778
:102F10009FFB044680E0FEF79BFB064605E000BFF2
:102F2000FEF796FB801B022873D828688001F7D42F
:102F3000E26A40F2F331386854F8283F884340EAA7
:102F4000021018433860217B4FF4FE0C22894FF0A9
:102F5000FE4704E0104402580048025889E0208AE5
:102F60004902521E267DA1F5007189B2401EC2F3AE
:102F700008021143761E0CEA004001433E4807EA6E
:102F8000066211433C4AC8F800100832016821F07B
:102F90000101016011684FF6F876236AB14341EAF6
:102FA000C30111600168A26921F00C0111430160A5
:102FB0000168E26921F0020111430160016841F4F6
:102FC00080310160016841F400310160016841F421
:102FD00080210160016841F001010160286801E081
:102FE00017E01DE040F080702860FEF731FB0446DA
:102FF00005E000BFFEF72CFB001B022809D828685B
:103000008001F7D535E000BFFEF722FB001B022848
:1030100002D90320BDE8F09F28688001F4D428E09D
:1030200039680128D8F8000021D0A26A01F0030312
:1030300093421CD1E26AC1F305118A4217D1216B78
:10304000C0F30802491E8A4211D1616BC0F34622C7
:10305000491E91420BD1A16BC0F30642491E914219
:1030600005D1E16BC0F30660491E814201D0012009
:10307000D0E70020CEE700002C440258704770478C
:103080007047704770B504000D4603D094F82C00CB
:1030900010B107E0012070BD002084F82D0020460B
:1030A00000F018F8022084F82C002068211DFDF79C
:1030B000B6FCD4E900022946FDF702FD04480121CF
:1030C000026842F00042026084F82C10002070BDBB
:1030D00000400052FEF70AB910B5044690F82C00E3
:1030E000022804D094F82C00012801D0012010BD42
:1030F000022084F82C002068FDF7C6FC012084F82B
:103100002C00002010BD000070B5044690F82C0083
:103110000D46022804D0012803D0052801D0012043
:1031200070BD022084F82C002068FDF7B6FC2868EA
:10313000022805D05FF0010084F82C00002070BD4B
:103140000520F9E72DE9F0410446032084F830001A
:103150004FF480724FF400784FF0000541B101291F
:1031600020D002290DD0606B012540F0006018E0EE
:10317000A06D40450DD090420BD0A06B012808D027
:1031800010E0A06D404504D0904202D0A06B012811
:1031900003D1204602F086FD20B1606B012540F08E
:1031A00080506063FEF754FA0126074605E000BF31
:1031B000FEF74EFAC01B401C15D0204600F022FA44
:1031C0000428F5D12068414602F004F930B12268A4
:1031D000012508499163616B0143616384F83060A4
:1031E0002846BDE8F0814FF00040606384F830600D
:1031F0000320F6E7FF0FE01F2DE9FC5F0446806B1C
:103200000E46032184F83010002703285CD0B6F561
:10321000004F59D0B6F5804F4FF000054FF40068CD
:103220004FF0806904D006B3606B40F000603FE06F
:10323000009500210195206802F04EFC80011CD40D
:103240006946204602F0BCFC70BB019840032DD5B6
:10325000B4F844102068090402F08BF820BB206801
:1032600002211DE0606B284322E0009500210195BA
:10327000206802F031FC800101D54546F2E769463D
:10328000204602F09DFC78B90198C0030ED5B4F831
:1032900044102068090402F06CF828B92068002165
:1032A00002F0B1F80028DDD00546DBE74D46D9E74E
:1032B0006063606B4FF4007BDFF8B8A040B1216819
:1032C0000127C1F838A042E0606B40F08050EFE782
:1032D0004FF48030FEF78AFC010033D0264D334690
:1032E000D4E904C0B1FBF5F8D4E90192804511D9C5
:1032F000A66D5E450ED0B6F5807F12D04FEA65060A
:10330000E8B14FEA4008B1FBF8F8B04502D900BF78
:10331000B1FBF5F04946CDE900C0206802F0E0FBC2
:1033200015E0164E30B14FEA4008B1FBF8F8A84559
:1033300002D8EFE7A942EDD9B1FBF6F0EAE7B142D6
:10334000E6D8E7E7606B012740F000606063206823
:10335000594602F03FF830B122680127C2F838A080
:10336000616B01436163012084F830003846BDE899
:10337000FC9F0000FF0FE01F80F0FA0200E1F5055E
:103380002DE9F041044690F830000E46154601281C
:1033900002D00220BDE8F08100206063B54203D274
:1033A000606B40F0006005E0206DA84204D2606BC5
:1033B00040F0007060633CE094F840100320012767
:1033C00084F83000DFF87880880606D42168C1F8D8
:1033D0003880606B40F080600BE02068002102F0D4
:1033E0007BFB800107D52168C1F83880606B40F411
:1033F000006060631BE0A06B012803D076026D02C1
:10340000032809D02068314602F0BEF848B9206888
:10341000294602F09FF820B92068002102F00DF83B
:1034200048B12268C2F83880616B0143616384F857
:1034300030700120AEE784F830700020AAE7000069
:10344000FF0FE01F70470000F0B5C26D920F0A70C9
:10345000C26DC2F383624A70C26DC2F301628A70A8
:10346000C26D120CCA70B0F85C20120A0A7190F892
:103470005C204A71026E120DCA80026EC2F30342D2
:103480000A72B0F86020C2F3C0324A72B0F860200D
:10349000C2F380328A72B0F86020C2F34032CA723E
:1034A000B0F860200026C2F300320A734E73012286
:1034B000836B4FF4007463B1012B3AD00368504919
:1034C0009963416B41F08051416380F830200120C5
:1034D000F0BDB0F86030456E9B051B0D43EA957357
:1034E0000B61436EC3F3C2630B75436EC3F3026398
:1034F0004B75436EC3F342538B75436EC3F38243E4
:10350000CB75436EC3F3C2330B760D696D1C8564B6
:103510000B7E03F007039B1C9D4085640B7A44657A
:1035200003F00F0302FA03F35F0A7D43C0E913358A
:103530000EE090F86050436EAD06AD0A45EA1343C5
:103540000B610B695B1C9B028364C0E913434465F8
:10355000B0F86430C3F380334B76B0F86430C3F313
:10356000C6138B7690F8643003F07F03CB76836EBE
:10357000DB0F0B77836EC3F341734B77836EC3F31B
:1035800082638B77836EC3F38353CB77836EC3F3EE
:10359000405381F8203081F82160836EC3F30043EB
:1035A00081F82230B0F86830C3F3C03381F823309B
:1035B000B0F86830C3F3803381F82430B0F8683055
:1035C000C3F3403381F82530B0F86830C3F30033DB
:1035D00081F82630B0F86830C3F3812381F82730B2
:1035E000B0F86830C3F3012381F8283090F8680000
:1035F000C0F3460081F8290081F82A200020F0BDA0
:10360000FF0FE01F70B5B0F84410002504460068B5
:10361000090402F033F818B1616B0143616304E0FF
:103620002068002102F058FA0546C5F3432070BD1A
:103630002DE9F041054690F8300090B00C46002688
:10364000032810D06946284602F0CAFC2A4F4FF0E2
:10365000010860B12A68012697636A6B02436A63B6
:1036600085F830803AE0012010B0BDE8F081009983
:103670004FF47F40C1F3811121700099C1F34011D3
:10368000617000990A4600EA112141EA12616180E5
:10369000019909BA6160029921720299090A61725D
:1036A0000299C1F30351A172DDE9022100EA12403F
:1036B000C9B20843A0810398C0F38520A073039882
:1036C000C0F30120E0730398C0F303102074039843
:1036D00000F00F0060740498000EA07428684FF486
:1036E000007101F077FE28B12A68012697636863AC
:1036F00085F830803046B7E7FF0FE01F2DE9F8432B
:1037000004460068E56A416B09041BD5290719D5F1
:10371000D4E90950202813D30026206802F0F6F9D6
:10372000020A2870010C6A70030EA970761CEB70F7
:10373000082E05F10405F0D3A06A2038C4E9095029
:10374000BDE8F883416B0127DFF8EC810026C9054D
:1037500051D539024CF23A12816329072068C16BB6
:1037600021EA0201C1632068C16B21F08051C1636D
:103770002068C16821F04001C16018D515F0220F02
:1037800009D0206801F0C6FF28B1616B0143616375
:103790002046FFF757FE2168AA07C1F8388084F851
:1037A0003070E66223D1204600F058FAC8E72806B8
:1037B000C6D5206815F0220F86622068C662206890
:1037C000066509D0206801F0A5FF28B1616B0143AF
:1037D00061632046FFF736FE15F0300F84F8307035
:1037E000E66202D0204600F039FAA807A8D02046A9
:1037F00000F028FAA4E7416B490421D529071FD519
:10380000D4E9075020289BD30026287800906978B7
:1038100040EA01200090A97840EA01400090E97850
:103820002D1D40EA016000902068694602F086F98B
:10383000761C082EE9D3206A2038C4E907507FE7B8
:10384000416B11F03A0F416B58D0890703D5616B7A
:1038500041F002016163416B090703D5616B41F0DF
:1038600008016163416B890603D5616B41F020015A
:103870006163416BC90603D5616B41F0100161635F
:10388000C0F838802068C16B21F49D71C163206845
:10389000C16821F04001C1602068C16A41F4005153
:1038A000C1622068C16841F08001C160206801F0F8
:1038B00031FF626B2B074FF4006140EA0200606346
:1038C0002068C26822F08002C2602068816303D54C
:1038D00084F83070E6620DE028068BD5606B002816
:1038E00088D02068C16B21F08051C16320680665D3
:1038F00084F830702046FFF7A5FD21E7C9009ED56A
:103900004FF0805181632068006D40074FEA856069
:1039100008D40028204602DAFFF7B3FB10E7FFF7D0
:10392000AEFB0DE70028204602DAFFF7A9FB07E708
:10393000FFF7A4FB04E700003A0F0018F0B50400FD
:1039400085B020D094F83000002518B9204625769F
:1039500000F094F8042084F83000204600F03CF891
:1039600088B969462046FFF763FE60B99DF81010DC
:10397000A26B9DF81100012A08D0A5652046E168D8
:10398000FFF73AFC58B1012005B0F0BD014302D069
:103990004FF4007001E04FF48070A065EEE7FDF792
:1039A00057FE0127064604E0FDF752FE801B401C2F
:1039B0000AD02046FFF726FE0428F5D16563E562AC
:1039C00084F830700020DFE74FF00040606384F837
:1039D00030700320D8E700002DE9FC4104464FF089
:1039E00000084FF48030FEF701F905004FF00106A2
:1039F00020D01F48434642464146B5FBF0F7CDE98B
:103A00000087206802F06CF8206802F079F87800EE
:103A10001849B5FBF0F0B1FBF0F0401CFDF754FC89
:103A2000204602F083FA58B184F83060616B01439C
:103A3000616319E04FF0006084F83060606313E068
:103A4000204602F0A9F90028EED120684FF4007159
:103A500001F0C0FC002808D0226807499163616B1F
:103A60000143616384F830600120BDE8FC810000FF
:103A700000350C0010210100FF0FE01F704700000F
:103A80002DE9F04F87B0994617460D460446FDF7DD
:103A9000DFFD06903DB194F83000012807D0606B3F
:103AA00040F000500DE0606B40F0006009E0226DD6
:103AB000002007EB09016063914204D9606B40F07C
:103AC00000706063A8E0032184F830102168C862A8
:103AD000A16B012900D07F024FF0020ACDE903A0BB
:103AE00090264FF0FF324FEA492305908DE84C00B5
:103AF00080462068694601F085FE2068B9F1010F13
:103B00004FF00106C16841F04001C16006D9C4F818
:103B10002CA03946206801F0E9FC04E0E662394651
:103B2000206801F0FDFCDFF814A150B12368C3F850
:103B300038A0616B0143616384F83060C4F82C8065
:103B40006AE0DDF804B01FE0406B000414D5BBF15F
:103B5000200F11D30027206801F0D8FF020A287037
:103B6000010C6A70030EA9707F1CEB70082F05F121
:103B70000405F0D3ABF1200BFDF76AFD0699411A5D
:103B80001098814221D200B32068416B11F4957FD7
:103B9000DAD0C16821F04001C1602068416BC905DD
:103BA00022D5B9F1010F1FD9A16B03291CD001F057
:103BB000B1FDC8B12368C3F838A0626B02436263E9
:103BC00084F83060C4F82C8026E02268C2F838A05F
:103BD000606B40F00040606384F83060C4F82C8073
:103BE000032007B0BDE8F08F2068416B090706D5B8
:103BF000C0F838A0616B404641F0080108E0416B15
:103C000089070BD5C0F838A0616B404641F002012E
:103C1000616384F83060E0620120E2E7416B89066D
:103C200006D5C0F838A0616B404641F02001EFE7AF
:103C30000349816384F830600020D2E7FF0FE01F62
:103C40003A0F0018044910B5884201D0012000E065
:103C50000020FCF7C9FE10BD54010020044910B536
:103C6000884201D0012000E00020FCF7D5FE10BD05
:103C7000540100202DE9F04F89B09A4616460D46B2
:103C80000446FDF7E5FC06903DB194F830000128AC
:103C900007D0606B40F000500DE0606B40F00060BA
:103CA00009E0226D002006EB0A016063914204D90D
:103CB000606B40F000706063B2E0032184F8301064
:103CC0002168C862A16B012900D076024FF0FF3154
:103CD0004FEA4A22059090230490CDE90230CDE9C5
:103CE000001280462068694601F08CFD2068C1689A
:103CF000BAF1010F41F04002C26006D92020E06213
:103D00002068314601F04AFD05E01020E06220689D
:103D1000314601F05DFDDFF830B106004FF00109DA
:103D20000AD02368C3F838B0606B3043606384F80E
:103D30003090C4F82C8073E00198089027E0406B25
:103D400040041CD50898202819D30027287807900C
:103D5000697840EA01200790A97840EA014007907D
:103D6000E9782D1D40EA01600790206807A901F05D
:103D7000E5FE7F1C082FE9D3089820380890FDF74E
:103D800067FC0699411A1298814221D200B320683B
:103D9000416B11F48D7FD2D0C16821F04001C16028
:103DA0002068416BC90521D5BAF1010F1ED9A16B5D
:103DB00003291BD001F0AEFCC0B12568C5F838B0AE
:103DC000616B0143616384F83090C4F82C8027E074
:103DD0002368C3F838B0626B3243626384F8309072
:103DE000C4F82C80032009B0BDE8F08F2068416B37
:103DF000090707D54946C0F838B0626B404642F023
:103E0000080209E0416B89070CD54946C0F838B073
:103E1000626B404642F00202626384F83010E06256
:103E20000120E0E7416BC90607D54946C0F838B024
:103E3000626B404642F01002EEE7044A826384F867
:103E400030900020CFE70000FF0FE01F3A0F00186E
:103E50002DE9F047040029D0504A4FF000092068AE
:103E60004F4B504D9042C4F8289006D0984204D051
:103E7000A84202D0E1680F2918D8E1684FF0010A82
:103E8000E76B0831C9080AEB57167143904205D019
:103E9000984203D0A84201D0082907D8904203D005
:103EA000984201D0A84204D1102902D90120BDE8CE
:103EB000F08794F8810020B9204684F8809000F0C3
:103EC00073F8022084F881002068016821F0010164
:103ED00001602168A0698A68B0F1806F02F4F8106F
:103EE00010D16268B2F5800F01D01AB10AE0A26B5E
:103EF00022B107E0A26BB2F1805F03D10A6842F4FD
:103F000080520A60A66AE169E26B25683143E36882
:103F1000024311431943A960D4E90D02D4E90571A4
:103F2000636A25691843D4F820C00A432668104301
:103F30002843A56D3843D4E90182D4E9123140EA1F
:103F40000C0040EA08000843104318432843F0607F
:103F5000606868B92068816821F4C05141F400614B
:103F600081602068816821F4C06141F480618160D2
:103F70002068016D21F0010101656068400206D5ED
:103F80002068626DC16821F000411143C160C4F82E
:103F9000849084F881A0002089E70000003001406F
:103FA00000380040003C0040F0B587B004461421C2
:103FB0006846FCF739FA33492068884260D13248B4
:103FC000016841F480110160006800F480100590E0
:103FD0002D481038016841F480610160016801F4E6
:103FE00080610591016841F400710160016801F48C
:103FF00000710591016841F080010160016801F0E4
:1040000080010591016841F080010160016801F0C3
:1040100080010591016841F400710160006805228A
:10402000002400F400700590012500950321022072
:10403000CDE90312CDE9010414486946FDF7DEF924
:10404000134EA802694600903046FDF7D7F9114F8C
:104050002020694600903846FDF7D0F940200090B6
:10406000CDE90154694638460394FDF7C7F9E802E3
:104070000090CDE90154694630460394FDF7BEF93E
:1040800007B0F0BD00500140F0440258002802582B
:1040900000240258001C02582DE9FC5F0446006809
:1040A00017468A4600211D4694F8802000F1200B17
:1040B0000191012A0DD04FF0010884F88080FDF7AE
:1040C000C7FA814694F881000026012804D0022016
:1040D0001EE00220BDE8FC9FBAF1000F17D0B7B177
:1040E000A1680320C4F85CA0A4F8607084F8810083
:1040F000C4F88460A4F862706666A4F86860A4F8E6
:104100006A60B1F5C02F6667266704D008E0012019
:1041100084F88060DEE72068016841F40061016096
:10412000206841686FF30F013943416020680168DE
:1041300041F0010101606068B0F5800F04D1206892
:10414000016841F400710160E0680F281BD81FE08E
:104150002068416989070BD5E16D09680162E06D4E
:10416000001DE065B4F86200401EA4F862000AE099
:10417000FDF76EFAA0EB0900A84202D3681C02D03A
:1041800095E0002D30D0B4F862000028E0D174E052
:1041900007282BD86DE02068416989071CD5B4F841
:1041A000621001290BD9E16B49B1E16D0968016227
:1041B000E06D001DE065B4F86200801E09E0E06D6E
:1041C0000188ABF80010E06D801CE065B4F8620077
:1041D000401EA4F8620009E0FDF73AFAA0EB0900DE
:1041E000A84202D3681C01D061E0BDB3B4F86200FC
:1041F0000028D0D141E02068416989072FD5B4F863
:10420000621003290CD9E16B402909D9E16D0968D5
:104210000162E06D001DE065B4F86200001F1AE065
:10422000B4F8621001290CD9E16B51B1E06D01883D
:10423000ABF80010E06D801CE065B4F86200801EF1
:1042400009E0E16D097880F82010E06D401CE06520
:10425000B4F86200401EA4F862000AE027E0FDF70F
:10426000F7F9A0EB0900A84202D3681C01D01EE0B8
:10427000EDB1B4F862000028BDD100224B46082100
:104280002046009502F05AF828B1D4F8840040F096
:104290002000C4F88400204601F014FF84F88180D7
:1042A000D4F8840084F8806080B1012012E72046B1
:1042B00001F008FFD4F8841084F8806041F4807124
:1042C000C4F8841084F88180032003E7019801E793
:1042D000401EB0F1807F10B501D3012010BD4FF01A
:1042E000E02460610F21601702F0C2FC0020A06191
:1042F0000721216110BD30B590F88010012918D038
:10430000012280F880202421C0F88410002220247B
:1043100050F8641B0B680D6823F0005325F001056D
:104320000D60026050F8641C0B6004620277104656
:1043300030BD022030BD7047704770B5044690F81C
:10434000800001281DD0012284F880202420C4F898
:10435000840020680568026822F00102026020687B
:10436000826822F060620A438260204602F008F907
:104370002268202100201560C4F8841084F8800091
:1043800070BD022070BD70B5044690F88000012811
:104390001DD0012284F880202420C4F884002068E5
:1043A0000568026822F0010202602068826822F03B
:1043B00060420A438260204602F0E2F8226820212F
:1043C00000201560C4F8841084F8800070BD0220BD
:1043D00070BD7047704770472DE9F041036804468F
:1043E000002540F60F06D86919689A68304209D14D
:1043F00086067DD501F0200602F080573E4377D037
:10440000216F62E1C64EC74F16400F4037436FD051
:10441000C70709D0CF0507D501271F62D4F88C3014
:1044200043F00103C4F88C3083070AD5D30708D0C2
:10443000276802233B62D4F88C3043F00403C4F8AD
:104440008C3043070AD5D30708D0276804233B6282
:10445000D4F88C3043F00203C4F88C3003070CD539
:1044600001F02003334308D0266808233362D4F8D0
:104470008C3043F00803C4F88C3003050BD54B0196
:1044800009D526684FF400633362D4F88C3043F0CA
:104490002003C4F88C30D4F88C30002B3AD080063E
:1044A00009D501F0200002F08051084303D0216FAC
:1044B00009B1204688472168D4F88C0089684906EC
:1044C00002D410F0280F27D0204602F019F92068F6
:1044D000806840061BD52068083050E8001F21F096
:1044E000400140E80012002AF5D1E06F78B100E009
:1044F00018E08D490165E06FFCF7A4FD002809D0A4
:10450000E06F016D00E02046BDE8F041084720461D
:10451000FFF761FFBDE8F0812046FFF75CFFC4F8BC
:104520008C50F7E7E76E2026012F7CD1C7067AD59D
:10453000CF0678D5102018622068806840067DD5A7
:10454000E16F7A4A0868904234D0784A1832904233
:1045500030D0764A303290422CD0744A4832904261
:1045600028D0724A6032904224D0704A7832904209
:1045700020D06E4A903290421CD06C4AA8329042B1
:1045800018D06B4A904215D0694A1832904211D027
:10459000674A303290420DD0654A4832904209D085
:1045A000634A6032904205D0614A7832904201D02D
:1045B0005F4A903240680004000CABD0B4F85C2035
:1045C0008242A7D9A4F85E00C869B0F5807F2ED0DA
:1045D000216851E8000F20F4807041E80002002AB1
:1045E000F6D12068083050E8001F21F0010140E8B2
:1045F0000012002AF5D12068083050E8001F21F091
:10460000400140E80012002AF5D1C4F88860E56650
:10461000216851E8000F20F0100041E80002002A54
:10462000F6D1E06F01E03BE008E0FCF75BFBB4F89B
:104630005C00B4F85E10401A81B22DE0B4F85C0062
:10464000B4F85E10B4F85E20401A81B2002AB4D0EB
:104650000029B2D0226852E8000F20F4907042E89E
:104660000003002BF6D1334B226802F1080252E816
:10467000000F00EA030042E80007002FF4D1C4F85D
:104680008860E5662567226852E8000F20F0100078
:1046900042E80003002BF6D12046FFF74CFE39E735
:1046A000C70209D5570207D54FF48010186220467B
:1046B000BDE8F041FFF78EBE03060AD501F0800386
:1046C00002F40002134304D0616F00297FF41BAF92
:1046D00020E7420611D54A060FD52046026852E867
:1046E000001F21F0400142E80013002BF6D1C0F872
:1046F0008460456700F076F90CE7020206D54A00AF
:1047000004D52046BDE8F041FFF763BEC001C6D521
:104710000029C4DA2046BDE8F041FFF70DBE0000D5
:104720000100001020010004ED66000810000240A6
:1047300010040240FEFFFFEF10B5040003D0D4F8D0
:10474000840010B107E0012010BD002084F8800033
:10475000204600F027F82420C4F88400206801686F
:1047600021F001010160204601F0F4FF0128EBD0A7
:10477000A06A10B1204601F025FF2068416821F4AD
:10478000904141602068816821F02A0181602068A1
:10479000016841F0010101602046BDE8104001F0D0
:1047A00075BF000010B586B0044614216846FBF7BB
:1047B0003BFE1A49206888422ED11948016841F011
:1047C00010010160006800F01000059014481038D6
:1047D000016841F001010160016801F001010591EA
:1047E000016841F00101016000680221012200F02E
:1047F00001000590032307244FF400708DE81F008B
:10480000084C69462046FCF7F9FD4FF48060694684
:1048100000902046FCF7F2FD06B010BD00100140EC
:10482000F0440258000002582DE9F84F0446D0F831
:1048300088009A4616460D46202872D10DB306B35D
:1048400094F8800001286CD0012284F88020222175
:104850004FF00008C4F88C80C4F88810C4F86C804D
:104860002034FCF7F5FE814654F8180CA6874FF467
:104870008053E687FF21203C984208D122691AB173
:104880001EE00120BDE8F88F40F2FF1118E04FF064
:104890007F0298B1B0F1805F15D0A4F8608000BFAE
:1048A000B4F86070984201D1206998B12E46002575
:1048B000404607F0FF0884F8800024E0266936B9F6
:1048C000A4F86010ECE7216909B13F21F8E7A4F8EA
:1048D0006020E5E70026EBE700224B46202120463A
:1048E000CDF800A002F00CF908B10320CAE7206857
:1048F000406A8EB100EA080006F8010BB4F85E00C9
:10490000401EA4F85E00B4F85E000028E4D1202028
:10491000C4F888000020B5E7384025F8020BEDE721
:10492000FFE70220AEE72DE9F8430446D0F8840003
:104930001F4616460D46202852D1DDB1D6B194F857
:10494000800001284CD0012084F8800021224FF003
:104950000008C4F88C80C4F884201834FCF778FE72
:10496000814654F8100CA687E687183CB0F5805FA6
:1049700003D004E00120BDE8F883206920B12E4671
:10498000002584F8808010E00026FAE78021204688
:1049900002F0B6F8B8B9C6B116F8010B2168886202
:1049A000B4F85600401EA4F85600B4F856004B4622
:1049B0004FF0000200970028E8D14FF04001204658
:1049C00002F09EF838B10320D5E735F8020B2168D4
:1049D000C0F30800E3E72020C4F884000020CAE701
:1049E0000220C8E77047FEE770B5134C6189A089C3
:1049F000491E8AB2401E83B20021084600F00CFA1C
:104A000001220E48D102FCF717FEA4F688050F20FC
:104A1000E8602846FFF71CFA6289A089A188424312
:104A200089B2284600F02AF90720E8602846BDE848
:104A30007040FFF70DBA00009C0A002000240258C5
:104A40002DE9F05FDFF8A0E0203A0023274E02F0C6
:104A5000FF0A894683461A46DEF80000194626E01A
:104A6000234DD0F80080B5F800C0AF880AFB04855C
:104A70001FFA8CFCBFB2002413F805505FEAC5781A
:104A800002D026F812C001E026F81270B0F80480B7
:104A9000491C521C89B26D0892B2884501D100218F
:104AA00003E0641CA4B2082CE8D35B1C9BB204890D
:104AB0009C42D5D8C288A9F101018388ABF10100DD
:104AC0001144744618448BB2494682B2584600F0ED
:104AD000A3F920688188C088BDE8F05F414303489E
:104AE00089B200F01FBA00000C0000209C020020D8
:104AF0009C0A00207FB51E46094B05460C46187AD5
:104B00001346324648B107A1684602F09DF86A464E
:104B10002146284600F00CF87FBD03A1F4E7000011
:104B20009C0A0020252A640025302E2A64000000FB
:104B30002DE9F0410B4F15460B4E8846044608E020
:104B400041462046FFF77CFF38686D1C8088204472
:104B500084B27089A04202D92A78002AF0D1BDE837
:104B6000F08100000C0000209C0A002070B51D465A
:104B700014464B1902195B1E521E9BB292B200F0F2
:104B80004BF901220C48D102FCF756FD0B4E0F20C9
:104B9000F0603046FFF75CF906F6880004FB05F28A
:104BA000008881B2304600F069F80720F060304696
:104BB000BDE87040FFF74CB90024025814020020F1
:104BC00010B5026840F26F335169946944F00804EB
:104BD00094610268946944F0100494610268146856
:104BE00024F001041460026814699C431461026893
:104BF000936823F44043936090F88120042A0CD0FA
:104C00008A060AD5D0F8842042F08002C0F88420B9
:104C10000268936943F02003936190F88120032A8E
:104C20000CD04A060AD5D0F8842042F00402C0F81D
:104C300084200268936943F0400393618A050AD592
:104C4000D0F8842042F00102C0F884200268936901
:104C500043F400739361C9050AD5D0F8841041F07C
:104C60000801C0F8841001688A6942F480728A6180
:104C70000021A0F86210A0F86A1010BD2DE9FC5FB9
:104C80008A4690F8801004461646002001900129BB
:104C90004FF47A770DD04FF0010884F88080FCF74C
:104CA000D7FC814694F881000025012804D0022019
:104CB00017E00220BDE8FC9F96B1A16803204AEAF4
:104CC0000A4B84F88100C4F884506566A4F86850E3
:104CD000A4F86A50B1F5C02F6567256704D008E0D5
:104CE000012084F88050E5E72068016841F4006104
:104CF0000160206841686FF30F014160206801681E
:104D000041F0010101606068B0F5800F04D12068B6
:104D1000016841F4007101602068416989070DD57F
:104D2000B4F86210012905D9E16B19B1C0F820B0BF
:104D3000B61E17E0A0F820A0761E13E0FCF788FC52
:104D4000A0EB0900B8420DD32046FFF739FFD4F895
:104D5000841084F8805041F48071C4F8841084F881
:104D6000818033E0002ED7D100224B464FF4805192
:104D70002046009700F02EF828B1D4F8840040F0C7
:104D80002000C4F884002068016841F4806101605B
:104D900000224B464FF400612046009700F01AF8BD
:104DA00028B1D4F8840040F02000C4F884002046E4
:104DB000FFF706FF2068826942F40062826184F88E
:104DC000805084F88180D4F8840008B1012071E714
:104DD00001986FE72DE9F041984616460D460746C3
:104DE000069C09E0FCF734FCA0EB0800A04202D3CB
:104DF000601C01D00BE054B13868406935EA00000E
:104E000007D00020B042EDD00020BDE8F0810320A3
:104E1000FBE70120F6E700002DE9F0419846154632
:104E20000E4607462A2000F09DF80F4CA07B384420
:104E300080B200F0ABF8A07B284480B200F0A6F866
:104E40002B2000F08FF8E07B304480B200F09EF819
:104E5000E17B01EB080080B200F098F8BDE8F0417A
:104E60002C2000F07FB800009C0A00204FF478410D
:104E70004FF4FC6301EA1021C0F3C40203EA5010AE
:104E80000143024811434160704700009C0A002022
:104E90004FF478414FF4FC6301EA1021C0F3C402DF
:104EA00003EA5010014302481143016070470000BB
:104EB0009C0A00202DE9F041194C002514264FF0E2
:104EC000F0084FF48C77607298B1022816D0012850
:104ED00019D003280BD1362000F044F85FF0C00051
:104EE00000F072F8A573E673A4F80A80A781BDE804
:104EF000F081362000F036F8702008E0362000F00F
:104F000031F80020ECE7362000F02CF8A02000F06B
:104F10005BF8A673E5736781A4F80C80E7E70000EF
:104F20009C0A002070B501220C4605460B48D102B0
:104F3000FCF782FB0A4E0F20F0603046FEF788FF38
:104F40004FF47A73224629463046FFF7A5F807202A
:104F5000F0603046BDE87040FEF77ABF002402588A
:104F60001402002001B5074800224FF40061FCF74D
:104F700063FB054801224FF47A736946FFF78CF80A
:104F800008BD00000024025814020020012238B598
:104F9000D10204460A48FCF74FFB200A8DF80000B6
:104FA000084802224FF47A7369468DF80140FFF7F2
:104FB00073F804490720C8600846FEF749FF38BD6A
:104FC0000024025814020020012201B50548D10234
:104FD000FCF732FB044801224FF47A736946FFF76D
:104FE0005BF808BD002402581402002030B587B0D9
:104FF00014216846FBF718FA0E48016841F00401D5
:10500000016000684FF400540B4D002200F00400D2
:10501000214605902846FCF70FFB00210094012053
:10502000CDE90101284603916946FCF7E7F907B08D
:1050300030BD0000E044025800080258F0B587B0C7
:105040001C216846FBF7F0F917480126154C00258E
:1050500002214FF0100E08234FF0400C04604FF473
:10506000C074C0E90156C3600B03C0F810E08F02A2
:10507000C0E905C4C561CE02076207220424C0E965
:1050800009638DE8160003250392CDE904510691CA
:105090006946FDF7F7FF04490348343100F053FD3A
:1050A00007B0F0BD40410052D0010020002110B5F2
:1050B000084C4FF480430622C0E90041C0E90213C6
:1050C000C0E904120C46FEF739FC00B10124204669
:1050D00010BD000000700052F0B412484FF480057B
:1050E00000210F4CEB010722C0E90321C0E90513A1
:1050F000C1615A000162202341624FF4C0268162DF
:10510000C162C0E90D21C0E90F3141648164C1640D
:1051100001654165816580E87000F0BCFEF798BECE
:105120000050014014020020FEE7FEE72DE9F047A1
:10513000454D044689464FF0000A2868C043800761
:105140000AD0414E283E306820F080603060FCF785
:105150007FFA0746B04608E00120BDE8F08700BFAF
:10516000FCF776FAC01B022867D8D8F800000001C7
:10517000F6D4206829684FF4FE0721F47C313E0202
:1051800041EA00302860207AA389B4F804C04002C4
:105190002D4D2D495B1E227CACF1010C1035091DF3
:1051A000A0F5007080B2521ECCF3080C07EA03434E
:1051B00040EA0C00184306EA0262104328600868BF
:1051C000626920F0C000104308600A68A06922F0FC
:1051D000200202430A60281D0A6822F010020A60B9
:1051E00002684FF6F873E4699A4342EAC402026027
:1051F0000868B9F1000F40F010020A6011D0086889
:10520000B9F1010F11D040F400100860D8F8000087
:10521000444640F08060C8F80000FCF719FA0546E3
:105220000DE0086840F40020EFE740F48010ECE760
:10523000FCF70EFA401B022801D903208DE72068F5
:105240000001F5D5504688E7284402582DE9F0477B
:10525000454D044689464FF0000A2868C043800740
:105260000AD0414E283E306820F080503060FCF774
:10527000EFF90746B04608E00120BDE8F08700BF1F
:10528000FCF7E6F9C01B022867D8D8F800008000B8
:10529000F6D4208829684FF4FE0721F07C713E0285
:1052A00041EA00502860207AA389B4F804C0400283
:1052B0002D4D2D495B1E227CACF1010C1835091DCA
:1052C000A0F5007080B2521ECCF3080C07EA03432D
:1052D00040EA0C00184306EA02621043286008689E
:1052E000626920F44060104308600A68A06922F4F3
:1052F000007202430A60281D0A6822F480720A6064
:1053000002684FF6F873E4699A4342EAC402026005
:105310000868B9F1000F40F480720A6011D0086883
:10532000B9F1010F11D040F080700860D8F800008A
:10533000444640F08050C8F80000FCF789F9054663
:105340000DE0086840F48000EFE740F40000ECE76F
:10535000FCF77EF9401B022801D903208DE7206865
:105360008000F5D5504688E7284402580020FEF713
:10537000C5B930B585B0044637204FF480720DF1C1
:10538000080CCDE9001000236946150120468CE881
:105390002C0000F0BFFB372141F28832204600F09C
:1053A00045FA05B030BD30B585B0044629204FF42C
:1053B00080720DF1080CCDE900100023694615013B
:1053C00020468CE82C0000F0A5FB204600F0EAFA0D
:1053D00005B030BD30B50446102085B00DF1080C85
:1053E00002010502CDE90010002369468CE82C007B
:1053F000204600F08FFB102141F28832204600F059
:1054000015FA05B030BD30B585B0044606204FF41E
:1054100080720DF1080CCDE90010002369461501DA
:1054200020468CE82C0000F075FB062141F2883202
:10543000204600F0FBF905B030BD30B585B004461C
:1054400026204FF480720DF1080CCDE900100023E6
:105450006946150120468CE82C0000F05BFB2621F4
:105460004FF21862204600F0E1F905B030BD0000AF
:1054700030B585B00546002469464FF4805000944D
:1054800001940294CDE90340284600F043FB0B4A07
:105490004FF4FA5041F288311268B2FBF0F0484301
:1054A000401E03D24FF0004005B030BD696B0906C5
:1054B000F6D503492046A963F6E700003C0000202A
:1054C000C500200030B50821044685B04FF4D570E2
:1054D0004A0100234D028DE82F006946204600F066
:1054E00019FB204600F0C8FA05B030BD30B585B0D4
:1054F000044612204FF480720DF1080CCDE9001023
:1055000000236946150120468CE82C0000F002FBC0
:10551000122141F28832204600F088F905B030BDF2
:1055200030B585B0044611204FF480720DF1080C9F
:10553000CDE9001000236946150120468CE82C00B7
:1055400000F0E8FA112141F28832204600F06EF9AD
:1055500005B030BD30B585B0044621204FF48072CF
:105560000DF1080CCDE90010002369461501204615
:105570008CE82C0000F0CEFA212141F2883220463E
:1055800000F054F905B030BD30B50446202085B098
:105590000DF1080CC200C501CDE9001000236946D9
:1055A0008CE82C00204600F0B5FA202141F2883228
:1055B000204600F03BF905B030BD30B585B004465B
:1055C00007204FF480720DF1080CCDE90010002384
:1055D0006946150120468CE82C0000F09BFA072153
:1055E00041F28832204600F021F905B030BD10B5F7
:1055F00085B00446002102204FF44072C302049398
:10560000CDE90010CDE902216946204600F082FA7A
:10561000204600F09DF905B010BD30B585B00446B8
:1056200009200DF1080C0023CDE900104FF4407261
:1056300069464FF4805520468CE82C0000F06AFA49
:10564000204600F085F905B030BD10B585B00446A0
:10565000002133204FF48072CDE90221CDE9001002
:10566000130169462046049300F054FA332141F2B5
:105670008832204600F0DAF805B010BD30B585B0AC
:1056800004460D204FF480720DF1080CCDE9001096
:1056900000236946150120468CE82C0000F03AFAF8
:1056A0000D2141F28832204600F0C0F805B030BD2F
:1056B00030B585B00C460021054603204FF48072BA
:1056C000CDE90221CDE90010130169462846049373
:1056D00000F020FA03212246284600F087F905B0A1
:1056E00030BD10B585B0044600210D204FF4807206
:1056F000CDE90221CDE9001013016946204604934B
:1057000000F008FA0D2141F28832204600F08EF8B0
:1057100005B010BD10B585B004464FF4807200206E
:105720000C2113018DE80700CDE90303E06840F088
:105730008000E060E06820F04000E06069462046BC
:1057400000F0E8F9074A0C21204600F06FF8E16804
:10575000B0F1007F21F08001E16000D1002005B0B0
:1057600010BD000000E1F50530B585B00446062007
:105770004FF480720DF1080CCDE90010002369464A
:10578000150120468CE82C0000F0C4F9062141F2F6
:105790008832204600F04AF805B030BD30B585B0FB
:1057A000044619204FF480720DF1080CCDE9001069
:1057B00000236946150120468CE82C0000F0AAF968
:1057C000192141F28832204600F030F805B030BD92
:1057D00030B585B0044618204FF480720DF1080CE6
:1057E000CDE9001000236946150120468CE82C0005
:1057F00000F090F9182141F28832204600F016F8A6
:1058000005B030BD70B50A6842624A688262C46AF7
:10581000D1E90225D1E9043624F0FF012A433343BC
:105820001A431143C162002070BD000030B5464DDF
:105830004FF4FA53434C2D68B5FBF3F353435B1E0F
:1058400002D24FF0004030BD426B2242F7D09204AA
:10585000F5D4426B520703D504218163084630BD5D
:10586000426BD20702D00121816306E0354A8032C3
:1058700082630269D2B28A4201D0012030BD002188
:1058800000F02AF93149084201D1002030BD00283A
:1058900002DA4FF0007030BD410001D5402030BD2C
:1058A000810001D5802030BDC10002D54FF4807049
:1058B00030BD010102D54FF4007030BD410102D569
:1058C0004FF4806030BDC10102D54FF4006030BD9F
:1058D000010202D54FF4805030BD410202D54FF491
:1058E000005030BD810202D54FF4804030BDC1026E
:1058F00002D54FF4004030BD410302D54FF40030D3
:1059000030BD810302D54FF4802030BDC10302D5E4
:105910004FF4002030BD010402D54FF4801030BD9B
:10592000410402D54FF4001030BD810402D54FF47C
:10593000800030BD000702D54FF4000030BD4FF4A9
:10594000803030BD450020003C00002008E0FFFD15
:10595000124B4FF4FA5141F288321B68B3FBF1F15C
:105960005143491E02D24FF000407047426B12F083
:10597000450FF6D09204F4D4416B490703D50421B6
:10598000816308467047416BC90703D001218163D9
:105990000846704702498163002070473C000020A0
:1059A000C50020000F4B4FF4FA5141F288321B68BA
:1059B000B3FBF1F15143491E02D24FF00040704752
:1059C000426B12F0450FF6D09204F4D4416B4907B4
:1059D00003D5042181630846704703498163002091
:1059E000704700003C000020C500200030B5204D6D
:1059F0004FF4FA5341F288342D68B5FBF3F3634357
:105A00005B1E02D24FF0004030BD446B14F0450FD6
:105A1000F6D0A404F4D4436B5B0703D5042181635F
:105A2000084630BD436BDB0702D00121816303E0F0
:105A30000369DBB28B4201D0012030BD0D49816387
:105A4000002100F049F810F4604F04D0410406D55D
:105A50004FF4005030BD000C1080002030BD000419
:105A600002D54FF4805030BD4FF4803030BD00007F
:105A70003C000020C5002000144B4FF4FA5141F2C5
:105A800088321B68B3FBF1F15143491E02D24FF03B
:105A900000407047426B12F0450FF6D09204F4D4E8
:105AA000416B490703D50421816308467047416B68
:105AB000C90703D00121816308467047416B49063D
:105AC00001D5402181630020704700003C00002088
:105AD000006800F003007047084440697047000008
