:020000040800F2
:10000000F8040020B1020008372B0008DD2A0008A0
:10001000352B000805060008713A000800000000B2
:100020000000000000000000000000007132000825
:100030000706000800000000392B00087332000892
:10004000CB020008CB020008CB020008CB0200085C
:10005000CB020008CB020008CB020008CB0200084C
:10006000CB020008CB020008CB020008CB0200083C
:10007000CB020008CB020008CB020008CB0200082C
:10008000CB020008CB020008CB020008CB0200081C
:10009000CB020008CB020008CB020008CB0200080C
:1000A000CB020008CB020008CB020008CB020008FC
:1000B000CB020008CB020008CB020008CB020008EC
:1000C000CB020008CB020008CB020008CB020008DC
:1000D000CB020008CB020008CB020008CB020008CC
:1000E000CB020008CB02000800000000CB02000891
:1000F000CB020008CB020008CB020008CB020008AC
:10010000CB020008CB020008CB020008CB0200089B
:10011000CB020008CB020008CB020008CB0200088B
:10012000CB020008CB020008CB020008CB0200087B
:10013000CB020008CB020008CB020008CB0200086B
:1001400000000000000000000000000000000000AF
:10015000CB020008CB020008CB020008CB0200084B
:10016000CB020008CB020008CB020008CB0200083B
:10017000CB020008CB020008CB020008CB0200082B
:10018000CB020008CB020008CB020008CB0200081B
:10019000CB020008CB020008CB020008CB0200080B
:1001A000CB020008CB020008CB020008CB020008FB
:1001B000CB020008CB020008CB020008CB020008EB
:1001C000CB020008CB020008CB020008CB020008DB
:1001D000CB020008CB020008CB020008CB020008CB
:1001E000CB020008CB020008CB020008CB020008BB
:1001F000CB020008CB020008CB020008CB020008AB
:10020000CB020008CB020008CB020008CB0200089A
:10021000CB020008CB020008CB020008CB0200088A
:10022000CB020008CB020008CB020008000000004F
:10023000CB020008CB02000800000000CB0200083F
:10024000CB020008CB020008CB020008CB0200085A
:10025000CB020008CB020008CB020008CB0200084A
:10026000CB020008CB020008CB020008CB0200083A
:10027000CB020008CB020008CB02000800000000FF
:10028000CB020008CB020008CB02000800000000EF
:1002900000000000CB020008DFF810D000F0A0F949
:1002A000004800478D3D0008AFF30080F8040020AF
:1002B0000648804706480047FEE7FEE7FEE7FEE700
:1002C000FEE7FEE7FEE7FEE7FEE7FEE74533000850
:1002D000990200082DE9F05F0546002092469B46F2
:1002E00088460646814640241BE02846414647464C
:1002F000224600F02EF953465A46C01A914110D3B7
:1003000011461846224600F015F92D1A67EB010830
:100310004F4622460120002100F00CF917EB00099E
:100320004E41201EA4F10104DFDC484631462A4636
:100330004346BDE8F09FD2B201E000F8012B491E10
:10034000FBD270470022F6E710B513460A46044672
:100350001946FFF7F0FF204610BDF0B480EA010215
:10036000D40F4200B2EB410F02D2024608461146BA
:100370004A0042D0C30DDDB2C1F3C752AD1A202DE1
:1003800035DAC1F3160141F4000204B15242C5F15D
:10039000200602FA06F12A411044B3EBD05F23D0C5
:1003A000C4B1012DA0EBC35009DCF0BC4FF00042FA
:1003B00002EAC352DBB200F5000000F0E3B84000EF
:1003C00000F1807000EBC350A0F1807040EAD17062
:1003D000490009E0490841EAC071A0EBC35000F5AB
:1003E0000000400800EBC350F0BC00F0C2B861420E
:1003F000012202EB4101001BF6E7F0BC704781F0DF
:100400000041AAE780F00040A7E780EA010210B5AA
:1004100002F00043400022D04A001FD0010E01EB41
:100420001261C0F35600C2F3560240F4000042F4D9
:100430000002A0FB022000047F39140400D0401CFD
:1004400050EA124001D44000491EC2B20C0604EB2F
:10045000D010401C4008802A02D003E0002010BDCC
:1004600020F00100002900DA0020184310BD30B44C
:1004700080EA010202F0004530F0004221F0004025
:1004800013D090B1C30DD40DC2F31601C0F3160002
:10049000E41A41F4000140F400027D34914201D39A
:1004A000641C00E04900002C02DA30BC00207047D8
:1004B0004FF400000023914201D3891A03434008FE
:1004C0004FEA4101F7D151B1914202D14FF00041C1
:1004D00005E002D24FF0010101E06FF0010103EBF2
:1004E000C450284430BC00F044B8420005D0C0F3EA
:1004F000C7525242914201DC0020704700EBC150CC
:10050000704796230022114600F03CB820F00040CE
:10051000C10DC0F3160040F400007F2901DA00206D
:100520007047962903DCC1F19601C840704796399F
:1005300088407047202A04DB203A00FA02F10020AC
:1005400070479140C2F1200320FA03F31943904011
:100550007047202A04DB203A21FA02F0002170477C
:1005600021FA02F3D040C2F120029140084319461B
:1005700070470029A8BF7047401C490008BF20F001
:100580000100704710B4B0FA80FC00FA0CF050EA99
:10059000010404BF10BC704749B1CCF1200421FA1A
:1005A00004F411FA0CF118BF012121430843A3EB15
:1005B0000C01CB1D4FEA00614FEA102042BF002022
:1005C00010BC704700EBC35010440029A4BF10BCFE
:1005D0007047401C490008BF20F0010010BC704764
:1005E000064C074D06E0E06840F0010394E8070080
:1005F00098471034AC42F6D3FFF752FE4C3F000848
:100600006C3F0008FEE770470B680022DFF824C249
:10061000002B08BF70472DE9F84FDFF81CE20127D7
:1006200003244FF00F0800BF0B6807FA02F63340AF
:1006300000F0F8800D7905F00305012D18BF022D9B
:100640001AD1D0F808904FEA4205D1F80CB004FA5C
:1006500005FA29EA0A090BFA05F545EA0905856054
:10066000456891F8049025EA0605C9F3001909FACE
:1006700002F646EA050545604D6834EA05050BD0EB
:10068000C6685500D1F808A004FA05F926EA09065B
:100690000AFA05F53543C5600D7905F00305022D0D
:1006A00012D1D508D1F810A04FEA427900EB8505A8
:1006B0002E6A4FEAD96908FA09FB0AFA09F926EA0B
:1006C0000B0649EA06062E6291F80490066855006A
:1006D00009F0030904FA05FA09FA05F526EA0A06FB
:1006E000354305604D6815F4403F7DD0DEF800507D
:1006F00045F00205CEF80050DEF8005022F0030667
:1007000006F1B04605F0020500959507D6F8089465
:100710002D0FA0F1B04B08FA05FABBF5003B29EA12
:100720000A0908BF4FF0000A48D0A0F1B04ABAF554
:10073000013A08BF4FF0010A40D0A0F1B04ABAF523
:10074000023A08BF4FF0020A38D0A0F1B04ABAF519
:10075000033A08BF4FF0030A30D0A0F1B04ABAF50F
:10076000043A08BF4FF0040A28D0A0F1B04ABAF505
:10077000053A08BF4FF0050A20D0A0F1B04ABAF5FB
:10078000063A08BF4FF0060A18D0A0F1B04ABAF5F1
:10079000073A08BF4FF0070A10D0A0F1B04ABAF5E7
:1007A000083A08BF4FF0080A08D0A0F1B04ABAF5DD
:1007B000093A0CBF4FF0090A4FF00A0A0AFA05FA83
:1007C0004FF0B0454AEA0909C6F80894D1F80490F8
:1007D0002E6819F4801F26EA030618BF1E432E60F8
:1007E000D1F804906E6800E01CE019F4001F26EABE
:1007F000030618BF1E436E60DCF804504E6825EAFD
:10080000030516F4003F18BF1D43CCF80450DCF874
:1008100000504E6825EA030516F4803F18BF1D43BB
:10082000CCF800500B68521CD3407FF4FDAEBDE8FD
:10083000F88F000080000058F4440258002A08BFD6
:10084000090481617047000001480068000C70478E
:100850000010005C01488068704700000400002020
:1008600002488168027811448160704704000020CA
:10087000032010B500F088F801F092FB0F4A1049F0
:1008800013681268C3F3032302F00F02CB5C895C88
:1008900003F01F0201F01F01D0400A4A20FA01F1C3
:1008A0001160094908600F2000F010F800281CBFF3
:1008B000012010BD00F02AF8002010BD1844025895
:1008C0003C3F0008140000201000002070B50D4DC2
:1008D00004462878A0B14FF47A71B1FBF0F00A49D0
:1008E0000968B1FBF0F001F04FFF48B9102C07D2B6
:1008F00000222146501E00F017F800206C6070BDE9
:10090000012070BD0400002010000020054881B0C7
:10091000016841F002010160006800F002000090EF
:1009200001B07047F4440258164B30B41B68C3F34F
:100930000223C3F1070CBCF1040F88BF4FF0040C75
:100940001C1D072C34BF0023DB1E012404FA0CFC01
:1009500004FA03F5ACF101042140A5F1010C994022
:100960000CEA0202114300284FEA0111B8BF00F05F
:100970000F0000F1E020ACBF80F8001480F8141DD7
:1009800030BC70470CED00E0074900F007004FF65F
:10099000FF030A681A4042EA002040F0FD7040F070
:1009A00080600860704700000CED00E014490A68A0
:1009B00012F0040F07D1096801F00701814214BF4A
:1009C00001200020704770B50A6822F0070210432A
:1009D0000860FFF73FFF0B4D0446286810F4005FE6
:1009E0000CD100BFFFF736FF001BB0F57A7F01D9AD
:1009F000012070BD286810F4005FF3D0002070BDA6
:100A00000C480258044802582DE9F84F1E46154676
:100A100089460446FFF71EFF824694F840000128ED
:100A200004BF0220BDE8F88F01274FF0000884F8CA
:100A3000407094F84100012818BF022004D000BF84
:100A400084F84080BDE8F88F4220C4F8448084F8E0
:100A500041000022202153462046009602F098FAD9
:100A60000028EDD12168286888622168686848629A
:100A70002168A868C86220682969026822F44002D7
:100A800042F4800211430160E8684FF00062494679
:100A9000C9F82800204602F050F8012253460821E8
:100AA0002046009602F074FA0028C9D12268082175
:100AB000D16084F84170C3E72DE9F84F16468A46A5
:100AC0000446FFF7C7FE834694F84000012804BFA0
:100AD0000220BDE8F88F01274FF0000884F840702D
:100AE00094F84100012818BF022504D084F8408002
:100AF0002846BDE8F88F4FF00209C4F8448084F816
:100B00004190002220215B462046009602F040FAE8
:100B10000500EBD100225146204602F00EF8DAF82B
:100B20002400002818BF84F84170DFD101225B4601
:100B300002212046009602F02BFA0500D6D120684B
:100B4000C0F80C9084F84170D0E7002804BF012061
:100B5000704710B504460068016821F0010101608A
:100B6000204600F0A8F80020606484F8410010BD21
:100B70002DE9F8430446FFF76DFE002C054604BF3F
:100B80000120BDE8F88394F8410028B9204600F020
:100B900093F841F28830A06420686FF0FF02A168EA
:100BA000036802EB012123F4706211430160A06C21
:100BB000002220212B460090204602F0E9F900286F
:100BC00018BFBDE8F883D4E9073521682679E268C3
:100BD0000F6845EA06651343DFF848C01D4327F058
:100BE000D0060022012326F07F4635430D602168A0
:100BF000D4E90556278AD1F80480354308EA0C0C5D
:100C00004CEA074C45EA0C0CC1F804C02168D1F845
:100C100000C04CF0010CC1F800C0626484F841309F
:100C2000BDE8F883FEF8E0FF2DE9F8431546884655
:100C30000446FFF70FFE94F84010012904BF02207C
:100C4000BDE8F8830121002784F8401094F8411092
:100C5000012918BF022604D084F840703046BDE850
:100C6000F883A16C8222676484F841200022034645
:100C700020460091202102F08BF90600ECD120687B
:100C80006968026822F00802114301606868082858
:100C90000AD122681020296811632168C860206881
:100CA000016841F4801101604FF0406241462046E6
:100CB00001F043FFD0E77047F0B587B00021009105
:100CC00001910291039104910068A0F1A442B2F550
:100CD000A0421CBF07B0F0BD3A48016841F4804112
:100CE0000160006800F4804005903748016841F4D5
:100CF00080410160016821F480410160334801684E
:100D000041F020010160016801F0200105910168B6
:100D100041F040010160016801F040010591016866
:100D200041F020010160016801F020010591016896
:100D300041F020010160016801F020010591016886
:100D400041F020010160016801F020010591016876
:100D500041F0200101600068022109241C4F00F0CD
:100D6000200005904802CDE9000103226946CDE943
:100D700003243846FFF748FC164840260A256946F2
:100D800000960495FFF740FCB0006946049500907A
:100D90003846FFF739FCF000694604950090384664
:100DA000FFF732FC80206946049400903846FFF734
:100DB0002BFC6946384600960494FFF725FC07B0E3
:100DC000F0BD0000D44402587C440258E04402586C
:100DD00000140258001802582DE9F84F15468A46AB
:100DE0000446FFF737FD81462068816994F840206A
:100DF00000F12006012A04BF0220BDE8F88F012778
:100E00004FF0000884F8407094F84120012A18BF80
:100E1000022003D084F84080BDE8F88FBAF1000FBB
:100E2000C4F8448036D0222284F841200269521C42
:100E3000A2630269521C6263C4F830A0426922F0C6
:100E4000406242F08062426120688161A06B98B18B
:100E500001224B4606212046009502F099F8B0B9D0
:100E60003078216B0870206B401C2063A06B401E03
:100E7000A063A06B0028EBD101224B460221204643
:100E8000009502F085F810B922680221D16084F83B
:100E90004170BFE7616C012041F008016164B9E76E
:100EA00010B500F0FDFF05490968054AC1F30211BC
:100EB000515C01F01F01C84010BD000020440258E1
:100EC0003C3F00082DE9F04104466D48031D0268CF
:100ED0000168186802F00307C1F305356949C0F3DA
:100EE00000100968C1F3CC0111FB00F0FFF709FB0A
:100EF000002D6FD0644E1FB3DFF89081012F01D019
:100F0000022F69D06FF00C01FFF7EFFA0746306847
:100F1000C0F30800FFF7F5FA3946FFF71EFA4FF065
:100F20007E51FFF71AFA07462846FFF7EAFA01460C
:100F30004046FFF79CFA3946FFF767FA054668E036
:100F400053490A6812F0200F26D0524A0968C1F3AB
:100F5000C10122FA01F86FF00C01FFF7C6FA07464B
:100F60003068C0F30800FFF7CCFA3946FFF7F5F90F
:100F70004FF07E51FFF7F1F907462846FFF7C1FA17
:100F800005464046FFF7BDFA2946FFF770FA394695
:100F9000FFF73BFA05463CE06FF00C01FFF7A5FABE
:100FA00007463068C0F30800FFF7ABFA3946FFF791
:100FB000D4F94FF07E51FFF7D0F907462846FFF7E6
:100FC000A0FA01463448FFF752FA3946FFF71DFAF6
:100FD00005461EE04FE0FFE76FF00C01FFF785FAD2
:100FE00007463068C0F30800FFF78BFA3946FFF771
:100FF000B4F94FF07E51FFF7B0F907462846FFF7E6
:1010000080FA01462548FFF732FA3946FFF7FDF925
:1010100005463068C0F34620FFF773FA4FF07E5163
:10102000FFF79BF901462846FFF721FAFFF76EFA12
:1010300020603068C0F30640FFF763FA4FF07E513E
:10104000FFF78BF901462846FFF711FAFFF75EFA22
:1010500060603068C0F30660FFF753FA4FF07E51CE
:10106000FFF77BF901462846FFF701FAFFF74EFA32
:10107000A060BDE8F081002020606060F8E700001B
:10108000284402583C440258384402580024744A08
:10109000004402580090D0030024744C20BCBE4B86
:1010A0002DE9F04104466D48031D02680168186887
:1010B00002F00307C1F305556949C0F30020096830
:1010C000C1F3CC0111FB00F0FFF71BFA002D6FD02C
:1010D000644E1FB3DFF89081012F01D0022F69D039
:1010E0006FF00C01FFF701FA07463068C0F3080003
:1010F000FFF707FA3946FFF730F94FF07E51FFF757
:101100002CF907462846FFF7FCF901464046FFF751
:10111000AEF93946FFF779F9054668E053490A68A0
:1011200012F0200F26D0524A0968C1F3C10122FAF9
:1011300001F86FF00C01FFF7D8F907463068C0F3EB
:101140000800FFF7DEF93946FFF707F94FF07E5147
:10115000FFF703F907462846FFF7D3F9054640464F
:10116000FFF7CFF92946FFF782F93946FFF74DF926
:1011700005463CE06FF00C01FFF7B7F90746306811
:10118000C0F30800FFF7BDF93946FFF7E6F84FF066
:101190007E51FFF7E2F807462846FFF7B2F901460D
:1011A0003448FFF764F93946FFF72FF905461EE08A
:1011B0004FE0FFE76FF00C01FFF797F90746306843
:1011C000C0F30800FFF79DF93946FFF7C6F84FF066
:1011D0007E51FFF7C2F807462846FFF792F901460D
:1011E0002548FFF744F93946FFF70FF905463068FF
:1011F000C0F34620FFF785F94FF07E51FFF7ADF8B9
:1012000001462846FFF733F9FFF780F92060306880
:10121000C0F30640FFF775F94FF07E51FFF79DF8D8
:1012200001462846FFF723F9FFF770F96060306840
:10123000C0F30660FFF765F94FF07E51FFF78DF8B8
:1012400001462846FFF713F9FFF760F9A060BDE8F3
:10125000F081002020606060F8E700002844025818
:1012600044440258404402580024744A004402583E
:101270000090D0030024744C20BCBE4B2DE9F05FDD
:101280000025044600682E46FD4FDFF8F88310F075
:10129000006F1FD0606E58B1B0F5801F0DD0B0F553
:1012A000001F0FD0B0F5401F18BF01251ED010E061
:1012B000386840F40030386018E00221201D01F049
:1012C00093FE04E0022104F1240001F02FFF050049
:1012D0000CD02E46208810F4807F24D0606D052825
:1012E0001FD2DFE800F00C11161C1C00606ED8F84D
:1012F000001021F440110843C8F80000EAE73868FC
:1013000040F4003038600AE00021201D01F06CFE3E
:1013100004E0002104F1240001F008FF05467DB13E
:1013200000E001252E46208810F4007F2BD0A06D10
:10133000802820D00DDC90B1402815D0012521E077
:10134000606DD8F8001021F007010843C8F80000CC
:10135000E9E7C02818BFB0F5807FEFD111E0386809
:1013600040F4003038600CE004F104004FF000015C
:1013700001F03AFE04E0002104F1240001F0D6FE61
:10138000054695B12E462088DFF8FC9210F4806F58
:101390002FD0D4F8A400B0F5800F22D00EDCA0B17D
:1013A000B0F5001F16D0012522E0A06DD8F800107E
:1013B00021F4E0710843C8F80000E4E7B0F5C00F7D
:1013C00018BFB0F5000FEED111E0386840F40030DE
:1013D00038600CE004F104004FF0000101F004FE5D
:1013E00004E0002104F1240001F0A0FE054685B1CF
:1013F0002E46208810F4006F30D0D4F8A800B0F149
:10140000007F23D00FDCA8B1B0F1807F17D0012579
:1014100023E0D4F8A400D9F8001021F460010843B7
:10142000C9F80000E5E7B0F1407F18BFB0F1806F68
:10143000EDD111E0386840F4003038600CE004F180
:1014400004004FF0000101F0CFFD04E0002104F1A1
:10145000240001F06BFE05467DB12E46206810F099
:10146000007F20D0A06CE0B1102810D0202813D02D
:10147000302818BF012514D014E0D4F8A800D9F8FA
:10148000001021F0E0610843C9F80000E6E7386881
:1014900040F40030386004E00221201D01F0A4FD7A
:1014A00005467DB12E46208810F4805F2DD0E06D7A
:1014B000B0F5005F21D00DDC98B1B0F5805F15D09C
:1014C000012521E07148A16C026822F0300211432D
:1014D0000160E8E7B0F5405F18BFB0F5804FEFD18D
:1014E00011E0386840F4003038600CE004F104008A
:1014F0004FF0000101F078FD04E0002104F1240028
:1015000001F014FE054695B12E46208810F4005FC8
:101510002CD0206EB0F5403F26D011DC20B3B0F5C2
:10152000803F14D0B0F5003F18D001251DE0E16DDB
:10153000D8F8000020F4E0400843C8F80000E4E7D1
:10154000B0F5802F18BFB0F5A02FEED10CE004F15C
:1015500004004FF0010101F047FD04E0012104F116
:10156000240001F0E3FD05469DB12E46208810F4CD
:10157000804F2DD0D4F8AC00B0F1405F26D011DC04
:1015800020B3B0F1805F14D0B0F1005F18D0012516
:101590001DE0206ED8F8001021F4E0210843C8F8BF
:1015A0000000E3E7B0F1804F18BFB0F1A04FEED1DB
:1015B0000CE004F104004FF0010101F015FD04E01E
:1015C000012104F1240001F0B1FD05467DB12E4654
:1015D000208810F4004F20D0E06EE0B1B0F1805FC1
:1015E0000FD0B0F1005F18BF01250FD014E0D4F880
:1015F000AC10D9F8000020F0E0400843C9F8000022
:10160000E6E7386840F40030386004E00121201D2E
:1016100001F0EAFC05467DB12E46206810F0807F7F
:101620001FD0606CD8B101280FD0022812D0032837
:1016300018BF012513D013E0E06ED8F8001021F098
:1016400040510843C8F80000E7E7386840F400302C
:10165000386004E00221201D01F0C6FC054605B3F8
:101660002E46206810F4800F32D0DFF824A0DAF87C
:10167000000040F48070CAF80000FFF7EBF809E0C2
:101680002C44025850440258584402584C440258C2
:10169000004802588346DAF8000010F4807F08D032
:1016A00014E0F748616C026822F003021143016004
:1016B000D7E7FFF7CFF8A0EB0B00642801D903258B
:1016C00005E0DAF8000010F4807FF2D08DB12E46EC
:1016D0002078DFF8B0A310F0010F71D0A06F1828A8
:1016E0006CD059DCA8B308285BD0102860D0012545
:1016F00065E0E548B4F8B020016802F4407001F4F8
:10170000407181420CD0E0480168026821F44071C8
:1017100042F480320260026822F48032026001608A
:10172000D4F8B000B0F5807F19D1FFF793F8824666
:10173000D548016811F0020F08BF41F2883B0ED175
:10174000FFF788F8A0EB0A00584503D903252E4679
:10175000BEE733E0CC48006810F0020FF0D0D4F8B8
:10176000B0104FF440708843C8481CBF016821F492
:101770007C5109D00160C448B4F8B0200168C2F3BC
:101780000B0211430160A3E7C14A036802EA111189
:1017900023F47C521143EDE7202818BF2828A6D156
:1017A0000CE004F104004FF0010101F01DFC04E025
:1017B000012104F1240001F0B9FC054665B12E4673
:1017C000207810F0020F1FD0606F06281AD2DFE8D1
:1017D00000F0170C11171717A06FDAF8001021F09E
:1017E00038010843CAF80000EAE70121201D01F092
:1017F000FBFB04E0012104F1240001F097FC054605
:101800007DB100E001252E46207810F0040F20D095
:10181000D4F8900006281AD2DFE800F0170C111750
:101820001717606FDAF8001021F007010843CAF8B3
:101830000000E9E70121201D01F0D6FB04E00121B1
:1018400004F1240001F072FC0546ADB100E0012571
:101850002E46207810F0200F2ED0D4F88C00B0F156
:10186000405F27D012DC28B3B0F1805F15D0B0F113
:10187000005F19D001251EE0D4F89000D9F80010BF
:1018800021F007010843C9F80000E2E7B0F1804FFA
:1018900018BFB0F1A04FEDD10CE004F104004FF0FF
:1018A000000101F0A1FB04E0022104F1240001F099
:1018B0003DFC05469DB12E46207810F0400F2ED0FD
:1018C000D4F89800B0F5406F27D012DC28B3B0F5FB
:1018D000806F15D0B0F5006F19D001251EE0D4F847
:1018E0008C00DAF8001021F0E0410843CAF800004B
:1018F000E2E7B0F5805F18BFB0F5A05FEDD10CE076
:1019000004F104004FF0000101F06EFB04E002213D
:1019100004F1240001F00AFC05469DB12E46207812
:1019200010F0800F2ED0D4F89C00B0F5C04F27D017
:1019300012DC28B3B0F5005F15D0B0F5804F19D098
:1019400001251EE0D4F89810D9F8000020F4E050EA
:101950000843C9F80000E2E7B0F5004F18BFB0F542
:10196000204FEDD10CE004F104004FF0000101F034
:101970003BFB04E0022104F1240001F0D7FB054603
:1019800055B12E46207810F0080F20D0D4F88000F2
:10199000B0F5805F0AD011E0D4F89C00D9F80010AF
:1019A00021F460410843C9F80000EBE7022104F18B
:1019B000240001F0BBFB002818BF0126D4F88000EA
:1019C000DAF8001021F440510843CAF800002078EA
:1019D00010F0100F15D0D4F89400B0F5807F07D127
:1019E000022104F1240001F0A1FB002818BF012608
:1019F000D4F89400D9F8001021F440710843C9F8D4
:101A00000000206810F4002F18D0D4F8A00040B1D6
:101A1000B0F5803F0AD0B0F5003F18BF01250BD0CC
:101A20000BE00021201D01F0DFFA04E0022104F1A7
:101A3000240001F07BFB054695B12E46206810F48A
:101A4000802F2FD0D4F88400B0F5801F12D0B0F5CD
:101A5000001F1FD0B0F5401F18BF012520D020E087
:101A6000D4F8A000D9F8001021F440310843C9F897
:101A70000000E3E7386840F40030386010E0000010
:101A80004C440258544402587044025810440258BE
:101A9000CFFFFF00012104F1240001F047FB0546C0
:101AA00065B12E46206810F4803F1DD0E06C78B1FF
:101AB000B0F5803F18BF01250FD014E0D4F88400A2
:101AC000DAF8001021F440110843CAF80000E9E7F1
:101AD000386840F40030386004E00221201D01F035
:101AE00083FA0546EDB12E46206810F0005F07D05E
:101AF000022104F1240001F019FB002818BF01267F
:101B0000206810F4003F1BD0E06FB8B1B0F5807FC3
:101B100010D0B0F5007F1CBFB0F5407F01250DD07F
:101B20000DE03848E16C026822F4803242EA01019B
:101B30000160D9E7386840F400303860F5B32E46CC
:101B4000206810F4801F08D0206FD8F8001021F012
:101B5000004141EA0000C8F80000206810F0805FF2
:101B600008D02948D4F8B410026822F4804242EA2E
:101B700001010160206810F4001F08D0A06ED8F8A1
:101B8000001021F0807141EA0000C8F800002068D0
:101B900010F0804F0AD01C48016821F40041016018
:101BA0000168D4F8B82041EA02010160206810F011
:101BB000004F09D01348216D026800E018E022F0C0
:101BC000405242EA01010160206810F4000F09D080
:101BD000D4F88800DAF8001021F4400141EA00004E
:101BE000CAF80000002E0CBF00200120BDE8F09FC5
:101BF000E06FDAF8001021F440710843CAF80000E1
:101C00009EE700004C44025810440258002804BFCC
:101C1000012070472DE9F05FDFF85C9204468A46A8
:101C2000D9F8000000F00F0050450DD2D9F800009F
:101C300020F00F0040EA0A00C9F80000D9F80000BF
:101C400000F00F0050457DD120788C4D10F0040F2E
:101C50000AD02069296801F07001884204D92968F6
:101C600021F07001084328602078854E10F0080F9D
:101C70000AD06069316801F07001884204D9316886
:101C800021F0700108433060207810F0100F0AD066
:101C9000A069316801F4E061884204D9316821F417
:101CA000E06108433060207810F0200F0BD07548B9
:101CB000E169026802F07002914204D9026822F0E0
:101CC000700211430160207810F0020F0AD0E06822
:101CD000296801F00F01884204D9296821F00F0119
:101CE00008432860207810F0010F45D06648A168AD
:101CF0002A6822F47062114329606168022926D0A3
:101D0000032929D0006801292BD010F0040F56D0E8
:101D10005E4F386820F0070008433860FEF79AFDF0
:101D200039688046606801F03801B1EBC00F18BF18
:101D300041F2883B20D000BFFEF78CFDA0EB0800ED
:101D4000584500E03BE010D90320BDE8F09F006853
:101D500010F4003FDCD132E0006810F0007FD7D1F2
:101D60002DE010F4807FD3D129E06068396801F05C
:101D70003801B1EBC00FDFD1207810F0020F0AD08C
:101D8000E068296801F00F01814204D9296821F037
:101D90000F0108432860D9F8000000F00F005045FB
:101DA00010D9D9F8000020F00F0040EA0A00C9F865
:101DB0000000D9F8000000F00F00504502D00120CB
:101DC000BDE8F09F207810F0040F0AD02069296840
:101DD00001F07001814204D9296821F070010843A3
:101DE0002860207810F0080F0AD06069316801F08F
:101DF0007001814204D9316821F0700108433060DC
:101E0000207810F0100F0AD0A069316801F4E06169
:101E1000814204D9316821F4E061084330602078C0
:101E200010F0200F0BD01748E169026802F0700231
:101E30008A4204D9026822F070021143016000F066
:101E4000AFF813492B682A68C3F3032302F00F028B
:101E5000CB5C895C03F01F0201F01F01D0400D4AEA
:101E600020FA01F111600C4908600C480068BDE8D7
:101E7000F05FFEF72BBD000000200052184402580E
:101E80001C4402582044025800440258104402588E
:101E90003C3F000814000020100000200800002033
:101EA00010B500F07DF80C4A0C490D4B1468D2F8BF
:101EB00000C0C4F303220CF00F0C8A5C11F80CC0B4
:101EC00002F01F01074A20FA01F10CF01F0021FA6D
:101ED00000F01860116010BD184402583C3F000823
:101EE000140000201000002010B500F059F8104A2E
:101EF0001049114B1468D2F800C0C4F303220CF04F
:101F00000F0C8A5C11F80CC002F01F02D0400CF0DC
:101F10001F0220FA02F21A60084B18600848006895
:101F2000C0F30210085C00F01F0022FA00F010BDA0
:101F3000184402583C3F0008140000201000002004
:101F40001C44025810B500F02BF8104A1049114BF0
:101F50001468D2F800C0C4F303220CF00F0C8A5CA2
:101F600011F80CC002F01F02D0400CF01F0220FA42
:101F700002F21A60084B186008480068C0F302209B
:101F8000085C00F01F0022FA00F010BD184402584F
:101F90003C3F000814000020100000201C440258A0
:101FA0006A482DE9F0416A4E00686A4D10F0380029
:101FB0000CD03111082806D0102804BF6648BDE8AF
:101FC000F08118280ED00846BDE8F081286810F08E
:101FD000200F1DBF2868C0F3C10026FA00F030466C
:101FE000BDE8F0815D48021D03680168106803F0D8
:101FF0000308C1F3051700F0010159480068C0F358
:10200000CC0010FB01F0FEF77CFA002F04BF00208B
:10201000BDE8F081B8F1000F524C24D0524EB8F117
:10202000010F02D0B8F1020F64D06FF00C01FEF77F
:102030005CFA05462068C0F30800FEF762FA2946FC
:10204000FEF78BF94FF07E51FEF787F905463846CB
:10205000FEF757FA01463046FEF709FA2946FEF721
:10206000D4F9054663E0296811F0200F24D02968CF
:10207000C1F3C101CE406FF00C01FEF736FA054600
:102080002068C0F30800FEF73CFA2946FEF765F920
:102090004FF07E51FEF761F905463846FEF731FAFA
:1020A00007463046FEF72DFA3946FEF7E0F9294695
:1020B000FEF7ABF905463AE06FF00C01FEF715FAB2
:1020C00005462068C0F30800FEF71BFA2946FEF714
:1020D00044F94FF07E51FEF740F905463846FEF7C9
:1020E00010FA01462148FEF7C2F92946FEF78DF99C
:1020F00005461CE06FF00C01FEF7F7F90546206875
:10210000C0F30800FEF7FDF92946FEF726F94FF067
:102110007E51FEF722F905463846FEF7F2F90146F0
:102120001348FEF7A4F92946FEF76FF90546206823
:10213000C0F34620401CFEF7E4F901462846FEF7AE
:1021400096F9BDE8F041FEF7E1B9000010440258ED
:102150000090D0030044025840787D012844025882
:1021600034440258304402580024744A0024744C09
:1021700020BCBE4B002804BF012070472DE9F05F52
:1021800004460078DFF8EC93FB4F10F0010FFB4D95
:1021900058D0D9F80000396800F03800102819D05C
:1021A000182804BF01F00300022813D06068B0F5BE
:1021B000803F04BF286840F4803014D010B1B0F5DF
:1021C000A02F1BD0286820F480302860286820F4D5
:1021D000802008E0286810F4003F33D060680028B1
:1021E00000F0C6822EE028606068D0B1FEF732FBB6
:1021F0000646286810F4003F08D023E0286840F421
:1022000080202860286840F48030ECE7FEF722FB4D
:10221000801B642800F2FD81286810F4003FF5D08F
:1022200010E0FEF717FB0646286810F4003F09D0BF
:10223000FEF710FB801B642800F2EB81286810F485
:10224000003FF5D1207841F2030ACD4E10F0020F85
:102250007FD0D9F80000396810F0380014D0182861
:1022600008BF11F0030F0FD0E068D8B3296821F040
:10227000190141EA00002860FEF7ECFA8046286860
:1022800010F0040F36D040E0286810F0040F03D09F
:10229000E068002800F06C82E068296821F01901EC
:1022A00008432860FEF7D6FA8046286810F0040F2D
:1022B0000BD100BFFEF7CEFAA0EB0800022800F217
:1022C000A881286810F0040FF4D0FEF7BDFA50453D
:1022D00009D8206940281FD0316821F47C3141EAB7
:1022E00000301EE01FE0207C316821F0FE4141EA11
:1022F000006016E0FEF7AEFAA0EB0800022800F23C
:102300008881286810F0040FF4D0FEF79DFA50453C
:10231000E9D820694028DFD1306820F47C3040F4CF
:102320000030306015E0286820F001002860FEF7DA
:1023300091FA8046286810F0040F0AD0FEF78AFA56
:10234000A0EB0800022800F26481286810F0040F56
:10235000F4D1207810F0100F69D0D9F80000DFF820
:102360002482396800F03800082814D0182804BFE7
:1023700001F0030001280ED0E0690028286843D04E
:1023800040F080002860FEF765FA8346286810F464
:10239000807F27D030E0286810F4807F1CBFE06980
:1023A000802840F0E581FEF74FFA50450FD8206AAB
:1023B000202805D1306820F0F84040F0804004E04B
:1023C000316821F0F84141EA806030602FE094F8F4
:1023D0002000D8F8001021F07C5141EA0060C8F8D4
:1023E000000024E0FEF736FAA0EB0B0002287DD8AF
:1023F000286810F4807FF5D0FEF726FA5045E6D81D
:10240000206A2028DCD1D5E720F080002860FEF784
:1024100021FA0646286810F4807F08D0FEF71AFAE1
:10242000801B022862D8286810F4807FF6D12078BB
:1024300010F0080F2ED0544E60690028306814D078
:1024400040F001003060FEF705FA8046306810F079
:10245000020F1FD1FEF7FEF9A0EB0800022845D8B5
:10246000306810F0020FF5D014E020F00100306069
:10247000FEF7F0F98046306810F0020F0AD000BF76
:10248000FEF7E8F9A0EB080002282FD8306810F01A
:10249000020FF5D1207810F0200F2CD0A069002871
:1024A000286813D040F480502860FEF7D3F9064620
:1024B000286810F4005F1ED1FEF7CCF9801B0228BB
:1024C00014D8286810F4005FF6D014E020F480508F
:1024D0002860FEF7BFF90646286810F4005F0AD0AE
:1024E000FEF7B8F9801B022800D800E091E02868C8
:1024F00010F4005FF4D1207810F0040F6ED0DFF8F4
:102500008C80D8F8000040F48070C8F80000FEF716
:10251000A1F90646D8F8000010F4807F0AD100BF68
:10252000FEF798F9801B642873D8D8F8000010F4DF
:10253000807FF5D0A068164E012804BF306840F0B7
:10254000010009D008B1052824D0306820F001002E
:102550003060306820F004003060A06841F2883AB2
:1025600058B3FEF777F98046306810F0020F19D0A3
:1025700034E0000010440258284402580044025835
:10258000044402580C44025874440258004802584B
:1025900070440258306840F004003060306840F009
:1025A0000100D9E7FEF756F9A0EB0800504530D8F6
:1025B000306810F0020FF5D010E0FEF74BF98046BE
:1025C000306810F0020F09D0FEF744F9A0EB0800C4
:1025D00050451ED8306810F0020FF5D1606AE0B3A4
:1025E000664ED9F8001001F0380118297ED0022873
:1025F000286820F0807028600ED0FEF72BF9044682
:10260000286810F0007F28D0FEF724F9001B02286C
:102610006DD90320BDE8F09FFEF71CF980462868BD
:1026200010F0007F0AD000BFFEF714F9A0EB0800FD
:102630000228EED8286810F0007FF5D1E06A3A68E9
:10264000A16A22F0F30222F4407242EA0010084329
:1026500038604FF4FE02100200E08CE0238EB4F8E4
:1026600038C094F83410A3F1010894F83C70ACF130
:1026700001034902A7F1010CA1F5007101F47E41AB
:1026800002EA0342C8F308073943114300EA0C6326
:102690003B4841EA03023B493260026822F00102F2
:1026A00002600A68A36C6FF3CF0242EAC3020A60B9
:1026B0000268216C22F00C02114301600168626C17
:1026C00021F0020111430160016841F48031016091
:1026D000016841F400310160016841F4802101602A
:1026E000016841F001010160286801E01AE013E08F
:1026F00040F080702860FEF7ADF80446286810F0BE
:10270000007F38D1FEF7A6F8011B022981D828687E
:1027100010F0007FF6D02EE0286810F0007F7FF4E4
:1027200073AF28E039680128306821D0A26A01F02F
:10273000030393421CD1E26AC1F305118A4217D107
:10274000226BC0F30801521E914211D1616BC0F39C
:102750004622491E91420BD1A16BC0F30642491E8D
:10276000914205D1E16BC0F30660491E814202D05F
:102770000120BDE8F09F0020BDE8F09F30440258E2
:102780002C44025834440258401EB0F1807F24BFCC
:10279000012070474FF0E0214861F020034A82F8A1
:1027A000140D0020072288610A6170470FE000E0E5
:1027B00090F88010012904BF022070474DF8044DA5
:1027C000012280F8802024214FF0200C0022C0F844
:1027D000841001680B680C6823F0005324F0010496
:1027E0000C60426601680B60C0F884C080F88020ED
:1027F00010465DF8044B704790F88020012A04BF12
:102800000220704730B4012280F880202423C0F8D1
:1028100084300368D3F800C01C6824F001041C60F5
:1028200003689C6824F0606421439960416E00292C
:1028300008BFA0F86A2014D00168114B03F1080406
:102840008A688968C2F34262490F5D5C615C2D0150
:10285000B5FBF1F5A0F86A50995CA25C0901B1FBE7
:10286000F2F2A0F86820202203680021C3F800C01B
:10287000C0F8842080F88010084630BC7047000003
:102880002C3F000890F88020012A04BF02207047E6
:1028900030B4012280F880202423C0F884300368FB
:1028A000D3F800C01C6824F001041C6003689C6815
:1028B00024F0604421439960416E002908BFA0F8CC
:1028C0006A2014D00168114B03F108048A688968F2
:1028D000C2F34262490F5D5C615C2D01B5FBF1F50D
:1028E000A0F86A50995CA25C0901B1FBF2F2A0F871
:1028F0006820202203680021C3F800C0C0F88420AB
:1029000080F88010084630BC704700002C3F00085B
:10291000002804BF0120704710B50446D0F8840099
:1029200028B9002084F88000204600F029F82420EF
:10293000C4F884002068016821F00101016020468C
:1029400000F01CFE012808BF10BDA06A00281CBFB3
:10295000204600F073FD2068416821F490414160F9
:102960002068816821F02A0181602068016841F0B7
:10297000010101602046BDE8104000F0CCBD000020
:1029800010B586B000220092019202920392049246
:102990000068A0F18041B1F588311CBF06B010BDC0
:1029A0001848016841F010010160006800F0100053
:1029B00005901548016841F001010160016801F0CE
:1029C00001010591016841F00101016000680221E7
:1029D00001224FF0070C00F00100059003230B4C7F
:1029E0004FF400708DE80F1069462046FDF70CFE8D
:1029F0004FF48060694600902046FDF705FE06B062
:102A000010BD0000F0440258E04402580000025893
:102A10002DE9F8430446D0F884001F4615460E46BB
:102A2000202858D1002E12BF002D0120BDE8F883C8
:102A300094F8800001284ED0012184F880102120D4
:102A40004FF00009C4F88C90C4F88400FDF702FF31
:102A50008046A068A4F85450A4F85650B0F5805FA2
:102A600003BF206900280025354618BF0026B4F8AA
:102A7000560084F88090E8B143464FF000024FF0D2
:102A800080012046009700F059FFD8B9002D14BFEF
:102A900015F8010B36F8020B216808BFC0F30800D7
:102AA0008862B4F85600401EA4F85600B4F85600E8
:102AB0000028E1D10022434640212046009700F043
:102AC0003DFF10B10320BDE8F8832020C4F8840046
:102AD0000020BDE8F8830220BDE8F883FEE700008F
:102AE00030B587B0114800240094019402940394F7
:102AF0000494016841F00401016000684FF4005142
:102B00000B4D224600F0040005902846FDF796FE86
:102B10004FF40050009001212846CDE90114694688
:102B20000394FDF771FD07B030BD0000E04402588A
:102B300000080258FEE7FEE770472DE9F0014B6AF6
:102B4000002B18BFB2F1406F06D0D0F800C08B6ADE
:102B5000A3F10103CCF810308B69002B7AD0D1F8A7
:102B600020C0BCF1000F4FD00368D1F808C0C3F8F3
:102B70001CC0D1F82CC0CB6953B3D1E90C564F6AB5
:102B80008C8A4CEA05053E432E430D6A46EA84468C
:102B9000D1E9034C46EA0C0C4CEA0505D1F818C003
:102BA0002C430D68234343EA0C0C03684CEA050CE4
:102BB000B2F1406F4CEA020CC3F814C004BFBDE888
:102BC000F0017047496800688161BDE8F001704715
:102BD000D1E90C544E6A8B8A4CEA050C44EA06058E
:102BE0000C694CEA0505D1F820C045EA834300682A
:102BF00023438C69096843EA0C03234319431143B7
:102C00004161BDE8F0017047D1F81CC0BCF1000F74
:102C100021D0D1E90B45D1F824804E6B8F8A2C430B
:102C200046EA08052C43CD6844EA874425430C68EE
:102C300045EA0C0C4CEA030C03684CEA040CB2F1B4
:102C4000406F4CEA020CC3F814C004BFBDE8F001A9
:102C50007047B7E717E0D1F82CC0D1E90C464F6AAE
:102C60008D8A4CEA040C46EA070400684CEA040C1E
:102C700009684CEA854C4CEA03031943114341614E
:102C8000BDE8F00170470B6AE3B30368D1F808C0F0
:102C9000C3F81CC0CB6913B3D1E90B454F6A4E6B27
:102CA000B1F814C025433E432E430D6A46EA8C46D4
:102CB000D1E903C4344325438C6945EA0C0C4CEA42
:102CC000030C03684CEA040CB2F1406F4CEA020CAE
:102CD000C3F814C004BFBDE8F001704772E7D1E942
:102CE0000C45D1F82CC04E6A8B8A4CEA040C354353
:102CF0000C694CEA0505D1F820C045EA83431C4322
:102D00008B6900E008E0006844EA0C0119431143B4
:102D10004161BDE8F0017047CB69F3B1D1E90C45E1
:102D2000D1F82CC04E6A8F8A4CEA040C45EA06049E
:102D30004CEA040CCC684CEA874C4CEA040C4CEA94
:102D40000303D0F800C01343B2F1406FCCF8143045
:102D500004BFBDE8F001704734E74B6A002B04BFA5
:102D6000BDE8F0017047D1E90B458E8AD1F834C037
:102D7000016844EA05004CEA0303184340EA864030
:102D800010434861BDE8F0017047000010B594B0F1
:102D90004FF0100C002001210D900B020C930A063D
:102DA0000E9005230F9211908C0512906A46139095
:102DB0000B900090CDE90310CDE90543CDE9011C4E
:102DC000054806A941F28833FDF71EFE002818BF0A
:102DD0006FF0020014B010BDAC00002070B539488F
:102DE0004C2190B0FDF7AEFA364D374E28462E6096
:102DF000FDF7ABFE45F8046B0024012020211022D2
:102E0000162385E81F00C5E905042E48EC61FDF78F
:102E1000AFFE4FF480750594CDE906546620089402
:102E2000009041F28832274869460B940C940D9427
:102E30000994FDF741FE70B9FFF7A8FF58B9992032
:102E40000090204841F288326946FDF735FE00289F
:102E500008BFFFF79BFF4FF400530894032105942C
:102E60009F220B940C94D8020D94009241F2883268
:102E7000CDE906540393CDE9090112486946FDF7EF
:102E80001BFE10480EA941F28832FDF7A5FF9DF800
:102E900038209DF839009DF83A10120442EA0020CB
:102EA00001430A48814205D109A000F0E3FD10B0BA
:102EB000002070BD0CA000F0DDFD10B04FF0FF3021
:102EC00070BD0000AC000020005000521740EF0021
:102ED000573235513634204F4B2C666C6173682065
:102EE00049443A25580D0A005732355136342045A9
:102EF00052524F522121212121202049443A255864
:102F00000D0A000010B59EB04FF0060C00204FF4E3
:102F100080714FF440620B904C0103940C90EB24B1
:102F2000CDE90612CDF814C09303089066221D90D7
:102F30000094CDE914100D900EA909931C901690E1
:102F40000E9241F2883219901A901B9017901390AC
:102F50000E48FDF7B1FD70B9FFF718FF58B9992079
:102F60000E900A480EA941F28832FDF7A5FD00280F
:102F700008BFFFF70BFF1CAA04486946FDF754FE83
:102F8000002818BF6FF005001EB010BDAC00002077
:102F90002DE9F0410446006898461646069D0F4606
:102FA0008068384018BF0120B04210D0B5F1FF3F13
:102FB00006D0FDF74FFCA0EB0800A8420AD84DB19F
:102FC00020688068384018BF0120B042EED1002050
:102FD000BDE8F081042084F84100606C40F00100FD
:102FE00060640120BDE8F0812DE9F047DFF82C9105
:102FF0008846044603200027D9F80010884304BF00
:103000000120BDE8F087464E306820F080603060D7
:10301000FDF720FC0546306810F0006F09D000BFB6
:10302000FDF718FC401B02286DD8306810F0006FC7
:10303000F6D12068D9F8001021F47C3141EA003043
:10304000C9F800004FF4FE010A0294F808C0A588F0
:10305000B4F80C9094F810A06D1E4FEA4C2C314B34
:10306000ACF5007C3048A9F101090CF47E4CAAF1C2
:10307000010AC5F3080501EA09414CEA050C02EA18
:103080000A624CEA0101114319600268616922F089
:10309000C002114301600168A26921F020010A43C6
:1030A0000260191D026822F0100202600A68E369DA
:1030B0006FF3CF0242EAC3020A600168B8F1000F61
:1030C00041F01001016014D00168B8F1010F0CBF8C
:1030D00041F4801141F400110160306840F08060DB
:1030E0003060FDF7B7FB0446306810F0006F05D084
:1030F00010E0016841F400210160EEE7FDF7AAFB52
:10310000001B022802D90320BDE8F087306810F0C8
:10311000006FF3D03846BDE8F0870000284402581D
:1031200000440258384402582C4402582DE9F04714
:10313000DFF82C918846044603200027D9F80010B8
:10314000884304BF0120BDE8F087464E306820F078
:1031500080503060FDF77EFB0546306810F0005F60
:1031600009D000BFFDF776FB401B02286DD8306800
:1031700010F0005FF6D12088D9F8001021F07C71A2
:1031800041EA0050C9F800004FF4FE010A0294F829
:1031900008C0A588B4F80C9094F810A06D1E4FEAF2
:1031A0004C2C314BACF5007C3048A9F101090CF4F2
:1031B0007E4CAAF1010AC5F3080501EA09414CEA6F
:1031C000050C02EA0A624CEA010111431960026827
:1031D000616922F44062114301600168A26921F42F
:1031E00000710A430260191D026822F480720260B5
:1031F0000A68E3696FF3CF0242EAC3020A6001681A
:10320000B8F1000F41F48071016014D00168B8F189
:10321000010F0CBF41F4000141F080710160306882
:1032200040F080503060FDF715FB0446306810F028
:10323000005F05D010E0016841F480010160EEE715
:10324000FDF708FB001B022802D90320BDE8F08728
:10325000306810F0005FF3D03846BDE8F08700001A
:103260002844025800440258404402582C44025852
:103270007047FDF7F5BA000030B5CBB04C212FA850
:10328000FDF760F8002442944394BC2144946846BE
:1032900045944694479448944994FDF753F8022086
:1032A000FDF784FB25482649026842F4404202604B
:1032B00002680A6842F001020A60096801F001012F
:1032C0004A91016811F4005FFBD005214FF0010C19
:1032D00002203890C022CDE93901CDE93B203D9054
:1032E00008253E90C303CDE93F5441942FA8CDE972
:1032F0002FC3FEF73FFF08B172B6FEE740204494AB
:1033000003220301CDE945503F21CDE94703CDE933
:1033100042120421499042A8FEF778FC08B172B627
:10332000FEE74FF00070129400906846FDF7A6FF8C
:10333000002804BF4BB030BD72B6FEE718480258F3
:103340002C040058304A70B4106800F00F000728B1
:1033500005D2106820F00F0040F0070010602B49E4
:103360000020DFF8ACC00C682A4B44F001040C606C
:10337000CCF80000D1F800C00CEA03030B6013681E
:1033800003F00F03072B05D9136823F00F0343F055
:1033900007031360214B204ADFF884C01C1D251D44
:1033A0001860204E204B2060341D2860251DC6F873
:1033B00000C005F1040C23600CF104032A601C1DFD
:1033C000251DCCF8000005F1040C1A6020602A606D
:1033D000CCF800000A68154BDFF854C022F48022B4
:1033E0000A601860DCF800006FF30F00B0F1005FB6
:1033F00003D210490120C1F8080143F2D2000E495E
:10340000086070BC70470000002000520044025861
:10341000104402587FEDF6EA800201011844025878
:1034200000020202284402580000FF0160440258D2
:103430000010005C008000510040005290F82810FD
:1034400011F0010F06D00168C26A4B6823F4003303
:103450001A434A6090F8281011F0020F06D0016854
:10346000026B4B6823F480331A434A6090F82810AB
:1034700011F0040F06D00168426B4B6823F48023DF
:103480001A434A6090F8281011F0080F06D001681E
:10349000826B4B6823F400431A434A6090F828106B
:1034A00011F0100F06D00168C26B8B6823F48053B3
:1034B0001A438A6090F8281011F0200F06D0016896
:1034C000026C8B6823F400531A438A6090F828102A
:1034D00011F0400F11D00168426C4B6823F4801347
:1034E0001A434A60416CB1F5801F06D10168826CB5
:1034F0004B6823F4C0031A434A6090F8281011F077
:10350000800F08BF70470168C06C4A6822F400222F
:10351000104348607047F8B500250446C0F88C5049
:10352000FDF798F9074620686FF07E46006810F0B6
:10353000080F08D000223B464FF4001120460096A9
:1035400000F0FCF968B92068006810F0040F0AD098
:1035500000223B464FF480012046009600F0EEF931
:1035600008B10320F8BD2020C4F88400C4F8880006
:10357000E566002084F88050F8BD00002DE9F04198
:10358000D0F808C00446C66986B00068D4E9045182
:10359000E34AE44B4CEA050C0768002531433A4006
:1035A0004CEA0101114301602068E168426822F49D
:1035B0004052114341602268A1699A421CBF206AAF
:1035C00001439668D84826F4306626F06E463143AB
:1035D00091602168626ACE6A26F00F063243CA62A1
:1035E0002268A2F1804CBCF5883C2FD0A2F180412A
:1035F000B1F588413BD0A2F18041B1F5904140D076
:10360000A2F18041B1F5984145D0A2F18041B1F5D8
:10361000A0414AD0A2F18041B1F58A314FD0A2F148
:103620008041B1F5F0415ED0A2F18041B1F5F841A1
:1036300063D09A4279D1001D006800F00700062887
:1036400073D2DFE800F066686A6C6E70006800F0A4
:103650003800182863D005DCE8B308285BD01028B0
:103660005BD062E020285CD028285CD05DE0006858
:1036700000F00700062858D2DFE800F0494D4F510E
:103680005355006800F0070006284ED2DFE800F02E
:103690003F434547494B006800F00700062844D2E5
:1036A000DFE800F035393B3D3F41006800F007009E
:1036B00006283AD2DFE800F02B2F31333537006887
:1036C00000F0380018282AD006DC20B1082822D0C3
:1036D000102822D029E004E0202822D0282822D057
:1036E00023E0012122E0006800F0070006281CD238
:1036F000DFE800F00D1113151719006800F007003E
:10370000062812D2DFE800F00307090B0D0F002195
:103710000CE002210AE0042108E0082106E0102163
:1037200004E0202102E0402100E080217F48804F1A
:103730009A42804B4FF000064FEA201251D11029D7
:103740001ED006DC02290ED004290FD0082912D081
:10375000E3E0202908BF10461BD0402908BF4FF4E2
:10376000004016D0D9E0FDF79BFB11E06846FDF75D
:10377000A9FB01980CE003A8FDF792FC049807E070
:10378000196811F0200F04D01968C1F3C101C840B5
:10379000B8B3616AD4F8048037F8112008EB480305
:1037A000B0FBF2F18B4298BFB1EB083F7CD800230D
:1037B0001946FCF78FFD02460B02110E1202194347
:1037C0004FEA58001018424671410023FCF782FD71
:1037D0005949A0F54072914224BF2168C86058D26F
:1037E0009BE0D4F81CC04FF6EF78BCF5004F09D031
:1037F000082972D059DCE9B3012965D0042966D0C3
:103800008BE046E008291DD005DC81B1012911D0EB
:10381000042912D081E0102919D0202908BF1046B0
:103820001ED0402908BF4FF4004019D075E0FEF7C4
:103830005BFB14E0FEF786FB11E06846FDF742FBF8
:1038400001980CE003A8FDF72BFC049807E0196829
:1038500011F0200F04D01968C1F3C101C840C0B1F4
:10386000626A616837F81220B0FBF2F0400000EBAA
:10387000510000E025E0B0FBF1F0A0F1100141455E
:103880004BD84FF6F0732168C0F342021840104342
:10389000C8600120A4F86A00A4F8680028462667DA
:1038A000666706B0BDE8F08137E010291AD02029FC
:1038B00008BF104620D0402908BF4FF400401BD05D
:1038C0002BE0FEF711FB15E0FEF73CFB12E068462B
:1038D000FDF7F8FA01980DE0FFE703A8FDF7E0FB1C
:1038E000049807E0196811F0200F05D01968C1F39A
:1038F000C101C8400028CCD0626A616837F8122044
:10390000B0FBF2F000EB5100B0FBF1F0A0F11001C0
:1039100041459CBF216880B2BAD90125B9E70000B2
:10392000F369FFCF000C0058544402580090D003B4
:10393000143F000800440258FFFC0F002DE9F04737
:10394000044600681F469246089D0E46C06931EA4B
:1039500000000CBF01200020504504BF4FF00009BB
:103960004FF0200859D100BFB5F1FF3F4CD0FCF714
:1039700071FFC01BA8422CD85DB32068016811F00C
:10398000040F1CBFC06910F4006F3DD021684FF4D4
:1039900000600862216851E8000F20F4D07041E80F
:1039A0000002002AF6D1206800F1080151E8000F5A
:1039B00020F0010041E80002002AF4D1C4F884801C
:1039C00084F88090C4F88880C4F88C800320BDE817
:1039D000F087216851E8000F20F4D07041E8000220
:1039E000002AF6D1206800F1080151E8000F20F00C
:1039F000010041E80002002AF4D1C4F8848084F870
:103A00008090C4F88880E1E72068C06936EA000049
:103A10000CBF012000205045A6D00020BDE8F08753
:103A200012480021DFF840C00C2210B54FF4E133FA
:103A3000C0F800C0C0E90131C160C0E90412816171
:103A4000C161016241628162FEF762FF07480021A5
:103A5000FEF718FF05480021FEF7CEFEBDE8104036
:103A60000248FEF7A5BE0000001001401C00002027
:103A7000FEE700000FB4054B10B503A9044A0298F5
:103A800000F018F810BC5DF814FB0000753D00084C
:103A90001800002002E008C8121F08C1002AFAD14D
:103AA00070477047002001E001C1121F002AFBD1BE
:103AB000704700002DE9FF4F8DB09B460F4604462E
:103AC000002606E025280BD05A460F999047641C23
:103AD000761C20780028F5D111B03046BDE8F08F73
:103AE0000025A8460122984900E0054314F8013F4B
:103AF000203B02FA03F00842F7D120782E2817D194
:103B000014F8010F45F004052A280ED06FF02F029B
:103B10002078A0F1300109290AD808EB880102EBCE
:103B2000410100EB0108641CF2E757F8048B641CA8
:103B300020786C280DD004DC4C2812D06A2811D1D2
:103B400004E074280DD07A280CD10AE045F4001561
:103B500007E0617845F48015814202D1641C05F5C7
:103B60008015641C2078692844D008DC0028B3D074
:103B7000582867D063280FD0642808D13AE070280D
:103B800065D0732812D075285AD078285AD05A4652
:103B90000F999047761CD5E017F8040B8DF80000BC
:103BA00000208DF80100E946012003E057F8049B4E
:103BB0004FF0FF3069074FF0000501D40AE06D1C9B
:103BC00045450DDA8542FADB19F805100029F6D1D2
:103BD00006E06D1C8542FCDB19F805100029F8D1C0
:103BE0002E4404E019F8010B5A460F9990476D1EB8
:103BF000F8D2A7E00A200021CDE90801C5F3025060
:103C000002280CD001CFC117021E71F100020CDA9C
:103C10000023D0EB030063EB01012D2208E0FF1D20
:103C200027F00707F7E80201EEE72A0504D52B2263
:103C30008DF8282001223CE0EA073AD02022F7E75D
:103C40000A2000E010200021CDE9080107E0102043
:103C5000002145F00405CDE908014FF00808C5F33F
:103C60000250022810D001CF00214FF0000A2A078D
:103C700020D52278702A0DD0DDE908C38CF0100C15
:103C80005CEA030C0CD015E0FF1D27F00707F7E8EE
:103C90000201EAE740228DF828204FF0010A0CE0EB
:103CA00050EA010306D030238DF828308DF8292002
:103CB000022292462278582A04D024A20DF120092B
:103CC0000B9209E026A2F9E7DDE90823FCF702FBE5
:103CD0000B9B9B5C09F8013D50EA0102F4D1ADEB6E
:103CE000090020300890680701D44FF001080899B6
:103CF000884503DD0898A8EB000000E0002080461E
:103D0000002506E00AA85A46405D0F9990476D1CB1
:103D1000761C5545F6DB04E030205A460F99904753
:103D2000761CB8F10001A8F10108F5DC05E019F8EE
:103D3000010B5A460F999047761C0899481E089027
:103D40000029F4DC641CC4E6092801003031323358
:103D500034353637383961626364656600000000C7
:103D600030313233343536373839414243444546B1
:103D70000000000013B50448642301226946FEF7E1
:103D800047FE009802B010BD1C000020484C0025E2
:103D9000DFF820A1206810F4003F11D1BFF34F8F4E
:103DA000BFF36F8FCAF80050BFF34F8FBFF36F8F11
:103DB000206840F400302060BFF34F8FBFF36F8F57
:103DC0003D4F2068A7F1040843F6FF7610F4803FCA
:103DD0001ED13D60BFF34F8F3849D8F80000C0F3C3
:103DE0004E3CC0F3C90906EA4C12484642EA8073C9
:103DF0000B60401EFAD2BCF1010CF4D2BFF34F8F1E
:103E0000206840F480302060BFF34F8FBFF36F8F86
:103E1000FCF72EFDFFF730FAFEF762FEFFF700FE1B
:103E200027A0FFF727FEFEF7D9FFFFF76BF8BFF3D8
:103E30004F8FBFF36F8F206820F400302060CAF8E6
:103E40000050BFF34F8FBFF36F8F3D60BFF34F8FB5
:103E5000206820F480302060BFF34F8FD8F8000036
:103E60002249C0F34E32C0F3C90406EA4213204689
:103E700043EA807CC1F800C0401EF9D2521EF4D241
:103E8000BFF34F8FBFF36F8F4FF0E020184C4FF010
:103E9000104105614561856148682060086880F3CC
:103EA000088814A0FFF7E6FD20688047FEE70000C1
:103EB00014ED00E050EF00E084ED00E060EF00E082
:103EC0000D0A2A2A2A2A2A2A2A2A2A2A2A2A2A2A8F
:103ED0002A2A2A2A2A2A2A2A2A2A2A2A2A2A2A2A42
:103EE0002A2A2A2A2A2A2A2A2A0D0A0074EF00E0FE
:103EF00000000020CCF8D7AAB5BD57323551363472
:103F0000D4CBD0D0D3C3BBA7B3CCD0F23E3E3E0D72
:103F10000A0D0A00010002000400060008000A0061
:103F20000C0010002000400080000001010101038E
:103F3000070100000804020408010101000000005C
:103F40000102030401020304060708096C3F00088C
:103F5000000000201C000000943A0008883F000880
:103F60001C000020DC040000A43A0008000000004F
:103F70000100000010000000000000000090D003CD
:083F80000090D00300000000D6
:040000050800029954
:00000001FF
